:100000000C9407010C942F010C942F010C942F01D8
:100010000C942F010C942F010C942F010C942F01A0
:100020000C942F010C942F010C94AD0C0C942F0107
:100030000C942F010C942F010C942F010C942F0180
:100040000C942F010C942F010C942F010C942F0170
:100050000C942F010C942F010C942F010C94F50A91
:100060000C942F010C94630B0C943D0B0C942F01FA
:100070000C942F010C942F010C942F010C942F0140
:100080000C942F010C942F010C942F010C942F0130
:100090000C94900B0C942F010C942F010C942F01B5
:1000A0000C942F010C942F010C942F0105010905CC
:1000B000A1011500250135004501750195100509BF
:1000C00019012910810205012507463B0175049598
:1000D0000165140939814265009501810126FF00FF
:1000E00046FF000930093109320935750895048148
:1000F000020600FF0920950181020A212695089138
:1001000002C00902290001010080FA09040000026E
:100110000300000009211101000122560007050219
:100120000340001007058103400004120100020093
:100130000000400D0F920000010102000124035055
:10014000004F004B004B0045004E00200043004F85
:10015000004E00540052004F004C004C004500522D
:100160000000001C0348004F0052004900200043DB
:10017000004F002E002C004C00540044002E0000C4
:100180000004030904000000002300260029002CBD
:10019000002F000000000200090F0000030401000E
:1001A0000C00000000000000000000000000000043
:1001B000000000000000250028002B002E00310068
:1001C00000000000240027002A002D003000040455
:1001D00004040403040502020202040302020202F0
:1001E00006060606060604040202020404040802C7
:1001F00001104080401020408040800802040180AF
:100200004020100201108010204040206E0D11246B
:100210001FBECFEFDAE0DEBFCDBF11E0A0E0B1E05E
:10022000ECE1F5E202C005900D92A035B107D9F7D7
:1002300023E0A0E5B1E001C01D92A130B207E1F7D3
:1002400011E0C7E0D1E004C02197FE010E940A122C
:10025000C630D107C9F70E94BC0D0C9473120C94E0
:100260000000E091E502F091E6028481813889F492
:1002700085818138C9F486818138B1F487818138DC
:1002800099F48085811110C081E0918591110CC095
:100290000895843849F48581863831F4868186381A
:1002A00019F48781863869F380E0F2CFCF93DF932A
:1002B00090E0FC01E351FE4F249182539E4FFC01DC
:1002C00084918823C1F090E0880F991FFC01E054CD
:1002D000FE4FC591D491FC01EE54FE4FA591B4910F
:1002E0009FB7F8943881822F809583238883EC917F
:1002F000E22BEC939FBFDF91CF91089587EB92E0C3
:100300000197F1F70895909119029111FCCF91E0B6
:1003100090931902909318022FEF209317021092D6
:100320001602280F20931502909314029091140244
:10033000946A9093140290911302913009F51092EF
:100340001302909114029093BB009091BC0093FD16
:10035000F8CF95EC9093BC00909119029130E1F3A5
:1003600090911602981710F48091160223EF31E055
:10037000AAE1B2E0F9019E2F921B981718F0089598
:1003800095EEE8CF91919D93F6CF982F613208F0CA
:100390004AC0809119028111FCCF22E020931902FA
:1003A00021E0209318022FEF2093170210921602DB
:1003B0006093150243ED51E0A3EFB1E0FA012E2F57
:1003C000241B261758F11092140220911402990F41
:1003D000922B9093140290911302913011F5109288
:1003E0001302909114029093BB009091BC0093FD76
:1003F000F8CF95EC9093BC00909119029230E1F304
:10040000909117029F3FA1F080911702803269F00E
:1004100080911702803359F084E0089521912D9343
:10042000CECF95EEE7CF81E0089582E0089583E096
:1004300008956091D2018091D1010E94C50110926E
:10044000D0011092D2011092CF010895DC0181E019
:100450008093CF0182E58093D1011092D001109258
:10046000D201ED91FC9111970190F081E02DCD0129
:1004700009950E941902982F81E0911180E008955A
:100480001F93CF93DF93EC01142F81E08093CF0172
:1004900082E58093D1011092D0011092D201E881BF
:1004A000F9810190F081E02DCE010995E881F98173
:1004B0000190F081E02D612FCE0109950E94190273
:1004C000982F81E0911180E0DF91CF911F910895E5
:1004D0008FE692E09093CC018093CB01089508952C
:1004E00087E792E09093CA018093C9010895089527
:1004F00081508F30C0F5E82FF0E0EB58FD4E0C94A2
:100500000A12809180008F778093800008958091F7
:1005100080008F7DF9CF80918000877FF5CF84B5F3
:100520008F7784BD089584B58F7DFBCF8091900037
:100530008F77809390000895809190008F7DF9CF00
:1005400080919000877FF5CF8091C0008F77809356
:10055000C00008958091C0008F7DF9CF8091C200C6
:10056000877F8093C2000895CF93DF93282F30E0D8
:10057000F901ED56FE4F8491F901E351FE4FD491FC
:10058000F901E253FE4FC491CC2389F081110E94FE
:100590007802EC2FF0E0EE0FFF1FEE54FE4FA59116
:1005A000B4918FB7F894EC91DE2BDC938FBFDF9181
:1005B000CF910895CF93DF93282F30E0F901ED56C6
:1005C000FE4F8491F901E351FE4FD491F901E253BA
:1005D000FE4FC491CC23A1F081110E947802EC2F30
:1005E000F0E0EE0FFF1FEB57FE4FA591B491EC9199
:1005F000ED2381E090E009F480E0DF91CF91089550
:1006000080E090E0FACF789484B5826084BD84B5B0
:10061000816084BD85B5826085BD85B5816085BDFD
:10062000EEE6F0E0808181608083E1E8F0E0108216
:10063000808182608083808181608083E0E8F0E057
:10064000808181608083E1E9F0E080818260808345
:10065000808181608083E0E9F0E080818160808337
:10066000E1ECF0E08081846080838081826080831F
:10067000808181608083E3ECF0E080818160808311
:10068000E0ECF0E0808182608083E2ECF0E0808149
:1006900081608083EAE7F0E08081846080838081EC
:1006A0008260808380818160808380818068808394
:1006B0000895CF93DF9300D000D0CDB7DEB73FB71A
:1006C000F8948091C5019091C601A091C701B091A5
:1006D000C80126B5A89B05C02F3F19F00196A11DA2
:1006E000B11D3FBFBA2FA92F982F8827820F911DC8
:1006F000A11DB11D9C01AD0162E0220F331F441FFB
:10070000551F6A95D1F7CA01B9010F900F900F904C
:100710000F90DF91CF9108958F929F92AF92BF92E9
:10072000CF92DF92EF92FF92CF93DF9300D000D071
:10073000CDB7DEB74B015C010E9459036B017C0110
:100740000E945903DC01CB018C199D09AE09BF0938
:10075000883E9340A105B10598F321E0821A9108E3
:10076000A108B10888EEC80E83E0D81EE11CF11C78
:1007700081149104A104B10419F70F900F900F9008
:100780000F90DF91CF91FF90EF90DF90CF90BF90CF
:10079000AF909F908F900895CF93DF9300D000D0BB
:1007A000CDB7DEB78FB7F8942091C1013091C20167
:1007B0004091C3015091C40129833A834B835C83E8
:1007C0008FBF69817A818B819C810F900F900F90F0
:1007D0000F90DF91CF910895CF92DF92EF92FF9229
:1007E0000F931F93CF93DF93CDB7DEB72A970FB642
:1007F000F894DEBF0FBECDBF8D839E837B016A015F
:1008000010E000E00C151D05C9F10E94CC036F83B8
:10081000788789879A87AD81BE8118966D937D937D
:100820008D939C931B97AD81BE81ED91FC911197A7
:100830000284F385E02DCD01099597FF2FC00E941A
:10084000CC0369837A838B839C83ED81FE818085D1
:100850009185A285B38529813A814B815C81281BD2
:10086000390B4A0B5B0BDA01C90144815581668162
:10087000778184179507A607B707A8F2C8012A96BB
:100880000FB6F894DEBF0FBECDBFDF91CF911F91A1
:100890000F91FF90EF90DF90CF900895F701819333
:1008A0000F5F1F4F7F01AECFEF92FF920F931F9309
:1008B000CF93DF930091E5021091E602F801828167
:1008C00093812091E3023091E4028217930729F08B
:1008D00021303105E9F5892BD9F1D091E702F801F2
:1008E000E080F18060E0C7010E942602C82F8823C3
:1008F00079F10E947E018D2FD13208F080E20E94B2
:1009000083011092CE018093CD01482F50E0B801B1
:100910006C5F7F4FC7010E94EC03D81319C0409150
:10092000E702E091E502F091E602349630E020E043
:100930008FEF90E050E02417350734F46191962B47
:1009400086232F5F3F4FF7CF992311F08F3F09F494
:10095000C0E08C2FDF91CF911F910F91FF90EF900E
:100960000895EF92FF920F931F93CF93DF9300D0E0
:1009700000D000D0CDB7DEB7E091E502F091E602FD
:100980000081118145E560EFC8010E944002882383
:1009900009F47AC06AE070E080E090E00E948C0385
:1009A00040E06BEFC8010E944002882309F46CC04C
:1009B00064E170E080E090E00E948C030091E50229
:1009C0001091E602F801E080F1806AEFC7010E9411
:1009D0002602811114C090E080E0F80193838283A5
:1009E0000E94540426960FB6F894DEBF0FBECDBF0A
:1009F000DF91CF911F910F91FF90EF9008950E948A
:100A00007E0186E00E9483011092CE018093CD0189
:100A1000482F50E0BE016F5F7F4FC7010E94EC037B
:100A20008630C9F68B81843A61F58C81803249F534
:100A30008D81811106C09E81911108C083E090E0F4
:100A4000CCCF813019F49E81913091F09A8191112F
:100A500018C08130B1F48E81833099F48981882364
:100A600051F0813059F0833061F487E090E0B5CFE8
:100A700084E090E0B2CF85E090E0AFCF86E090E0F8
:100A8000ACCF82E090E0A9CFE091E502F091E602E0
:100A90001382128280E0A6CFCF92DF92EF92FF9274
:100AA0000F931F93CF93DF937C016A0110E000E066
:100AB0000C151D0581F0EB01D701ED91FC91019022
:100AC000F081E02D6991C7010995892B21F00F5F15
:100AD0001F4FBE01EDCFC801DF91CF911F910F9144
:100AE000FF90EF90DF90CF900895FC01538D448DDF
:100AF000252F30E0842F90E0821B930B541710F0C9
:100B0000CF96089501970895FC01918D828D9817D5
:100B100061F0A28DAE0FBF2FB11D5D968C91928DAD
:100B20009F5F9F73928F90E008958FEF9FEF0895DE
:100B3000FC01918D828D981731F0828DE80FF11DA7
:100B4000858D90E008958FEF9FEF0895FC01818DD2
:100B5000228D90E0805C9F4F821B91098F739927B3
:100B600008958AE392E00E94A6059C0181E0232B70
:100B700009F480E0089580E090E0892B29F00E943C
:100B8000B10581110C9400000895FC01A48DA80FFB
:100B9000B92FB11DA35ABF4F2C91848D90E00196BF
:100BA0008F739927848FA689B7892C93A089B189DF
:100BB0008C9182748C93938D848D981306C00288D7
:100BC000F389E02D80818F7D80830895EF92FF92DD
:100BD0000F931F93CF93DF93EC01F62E81E0888F64
:100BE0009B8D8C8D981319C0E889F989808185FFC8
:100BF00014C09FB7F894EE89FF896083E889F9896A
:100C00008081827480839FBF81E090E0DF91CF91EB
:100C10001F910F91FF90EF9008950B8D10E00F5FE3
:100C20001F4F0F731127E02E8C8D8E110CC00FB645
:100C300007FCFACFE889F989808185FFF5CFCE01DD
:100C40000E94C505F1CFEB8DEC0FFD2FF11DE35A8E
:100C5000FF4FF0829FB7F8940B8FEA89FB89808160
:100C60008062D0CFCF93DF93EC01888D8823B9F0D9
:100C7000AA89BB89E889F9898C9185FD03C08081A7
:100C800086FD0DC00FB607FCF7CF8C9185FFF2CF24
:100C9000808185FFEDCFCE010E94C505E9CFDF91B0
:100CA000CF91089585ED8093BC008091BC0084FDB8
:100CB000FCCF10921902089520917D01260F332751
:100CC000331F21323105ECF420911902FC0190E030
:100CD00080E0243069F082E00895A0917D012191A7
:100CE000AC01435A5E4FA40FB52FB11D2C93019652
:100CF000861798F380917D01680F60937D0180E0F5
:100D0000089581E008951092190281E080931802FD
:100D10001092130282E00E94B40283E00E94B402A7
:100D2000E9EBF0E080818E7F808380818D7F8083FE
:100D300088E48093B80085E48093BC00089508950A
:100D4000E091CE018091CD01E81730F4F0E0E65E4D
:100D5000FD4F808190E008958FEF9FEF089590916F
:100D6000CE018091CD012FEF3FEF981748F4E92F86
:100D7000F0E0E65EFD4F208130E09F5F9093CE0172
:100D8000C90108958091CD019091CE01891B990BE5
:100D90000895CF92DF92EF92FF920F931F93CF931C
:100DA000DF937C01CB018A012091CF01222389F0BE
:100DB000EB016B01C40ED51ECC15DD0569F0699100
:100DC000D701ED91FC910190F081E02DC7010995CB
:100DD000F3CF642F0E945C06C801DF91CF911F9171
:100DE0000F91FF90EF90DF90CF900895CF93DF9316
:100DF0000F92CDB7DEB7FC0169838091CF018823C4
:100E0000F1F08091D201803250F081E090E0938344
:100E1000828390E080E00F90DF91CF9108958091E0
:100E2000D001E82FF0E0ED52FE4F998190838F5F63
:100E30008093D0018093D20181E090E0ECCF61E01B
:100E4000CE0101960E945C06F7CF90E080E0089505
:100E50002091E4003091E50095E6A9012091EC0095
:100E6000822F817020FF06C08091E80080FF06C0BD
:100E700080E008952091E80022FD1AC080915C0175
:100E8000882389F0853089F08091EB0085FD0FC0C3
:100E90002091E4003091E50042175307F9F2915098
:100EA000E1F684E0089582E0089583E0089581E00A
:100EB00008958091530187FF13C08091E80082FF5D
:100EC00006C08091E8008B778093E80004C0809191
:100ED0005C018111F2CF089580915C018823D9F3E0
:100EE0008091E80080FFF8CF8091E8008E77ECCF0A
:100EF000982F9093E900242F762F50E0891731F036
:100F00007091EC002091ED005091F00021FD07C0A0
:100F10009F5F973071F78093E90081E008953091E9
:100F2000EB003E7F3093EB003091ED003D7F30933E
:100F3000ED003091EB0031603093EB007093EC00EA
:100F40002093ED005093F0002091EE0027FDE0CFBC
:100F500080E008950F931F93CF93DF93CDB7DEB753
:100F6000AA970FB6F894DEBF0FBECDBF80915C018B
:100F7000882309F42AC21091E9001F709091EC00B7
:100F8000892F817090FD80E8182B1092E9008091E4
:100F9000E80083FF17C283E591E0FC0101962091F0
:100FA000F100208321E08B359207B9F785B191E0FC
:100FB000892785B98091E80083FFF6C180915301AC
:100FC000909154019A3008F0EFC1E92FF0E0EC570E
:100FD000FD4E0C940A12803899F0823809F0E4C171
:100FE000809157018F70873008F0DEC18093E9004F
:100FF0008091EB0085FB882780F91092E90006C0FC
:101000008091510190915201911182609091E8007C
:10101000977F9093E8008093F1001092F100809107
:10102000E8008E77BDC1882309F4ABC1823009F096
:10103000BBC1809155018111AEC1809157018F7064
:101040002FEF280F263008F0AFC18093E9002091E0
:10105000EB0020FFA0C1933031F48091EB0080625F
:101060008093EB0098C19091EB0090619093EB001E
:1010700021E030E001C0220F8A95EAF72093EA00D0
:101080001092EA008091EB008860EACF81118CC158
:10109000009155010F778091E3008078802B809339
:1010A000E3008091E800877F8093E8000E94590761
:1010B0008091E80080FFFCCF8091E30080688093FE
:1010C000E30082E0011183E080935C016DC18058F0
:1010D000823008F069C120915501309156012C3DB4
:1010E00083E0380709F079C083E08A838AE2898344
:1010F0004FB7F894DE01139620E03EE051E2E32F73
:10110000F0E050935700E49120FF03C0E295EF70A8
:101110003F5FEF708E2F90E0EA30C8F0C7968D9356
:101120009D932F5F243159F74FBF8091E800877F4F
:101130008093E8008091590190915A018A3291057B
:1011400010F08AE290E040E0FE01319627C0C096A0
:10115000E6CF20915C01222399F1253089F120917D
:10116000E80023FD2DC02091E80022FD1BC0209146
:10117000E80020FF13C03091F3002091F2000097A7
:1011800019F02034310510F141E02034310509F027
:1011900040E02091E8002E772093E8000097C9F600
:1011A0004111D7CF8091E80082FD0AC080915C0197
:1011B000882331F0853021F08091E80083FFF2CF61
:1011C0008091E8008B778093E800EEC041914093D6
:1011D000F10001972F5F3F4FD2CF832F99278330A4
:1011E0009105C9F060F48130910509F45DC0029762
:1011F00009F0DAC089E290E0E2E0F1E021C081325A
:10120000910509F456C0829709F0CEC086E590E0BA
:10121000ECEAF0E015C0C90199272130A9F182302C
:10122000910509F439C0892B09F0BEC0E1E8F1E06D
:10123000E4918E2F90E0E1E8F1E0009709F4B4C06A
:101240002091E800277F2093E800209159013091F8
:101250005A018217930708F49C0140E021153105DB
:1012600069F541112BC08091E80082FDA9CF8091E2
:101270005C01882309F4A4CF853009F4A1CF8091C3
:10128000E80083FFF0CF9CCFE3E6F1E0E4918E2FFE
:1012900090E0E3E6F1E0D1CFEDE3F1E0E4918E2FD1
:1012A00090E0EDE3F1E0C9CF82E190E0EBE2F1E024
:1012B000C7CF89E090E0E4E1F1E0C2CF80915C012A
:1012C000882309F47DCF853009F47ACF8091E80036
:1012D00083FD76CF8091E80082FDC5CF8091E80044
:1012E00080FFBCCF9091F3008091F2002115310571
:1012F00019F08034910558F041E08034910509F0EF
:1013000040E08091E8008E778093E800A7CF449179
:101310004093F1003196215031090196E7CF803892
:1013200009F042C08091E800877F8093E8008091B7
:101330005B018093F10073CE811136C0009155019D
:10134000023090F58091E800877F8093E800009359
:101350005B010E945907002311F084E005C08091D1
:10136000E30087FDFACF81E080935C0142E360EC0B
:1013700082E00E94780742E361EC81E00E947807F6
:1013800013C080915501813079F481E0933009F0E8
:1013900080E0809352011092E9008091E800877FFD
:1013A0008093E8000E9459078091E80083FF0AC0FB
:1013B0008091E800877F8093E8008091EB00806255
:1013C0008093EB001F701093E900AA960FB6F89473
:1013D000DEBF0FBECDBFDF91CF911F910F9108955A
:1013E0000C94AA07CF92DF92EF92FF920F931F9374
:1013F000CF93DF9384B7877F84BF0FB6F894A89507
:1014000080916000886180936000109260000FBE40
:1014100080E830E020E00FB6F894809361002093DC
:1014200061000FBEC8EDD0E088818F7E8883E7ED34
:10143000F0E080818160808384E082BF81E08093DE
:10144000500188818E7F888302EE10E0F8011082BF
:101450001092DA0081EEC82ED12CF601108288811C
:101460008F77888388818068888388818F7D88834F
:1014700019BC10925C0110925B0110925201109203
:10148000510190EEE92EF12CF70180818B7F808352
:1014900088818160888342E360E080E00E94780771
:1014A000F60180818E7F8083F80180818160808356
:1014B000808188608083F70180818E7F808388812E
:1014C00080618883DF91CF911F910F91FF90EF9002
:1014D000DF90CF900895EF92FF920F931F93CF93D9
:1014E000DF9300D000D000D00F92CDB7DEB780914F
:1014F0005C01843009F058C082E08093E90080915B
:10150000E80082FF21C08091E80085FF18C00E949A
:101510002807811114C007E010E0CE0101967C017C
:101520008091E80085FD4DC08091E8008B77809325
:10153000E8000E94AA070E942807882389F3809167
:10154000E8008B778093E80081E08093E900809148
:10155000E80080FF29C00E942807811115C008E01B
:1015600010E086EAE82E81E0F82E8091E80085FD03
:1015700032C08091E8008E778093E8000E94AA072D
:101580000E942807882389F38091E8008E77809352
:10159000E800E6EAF1E088E0DF011D928A95E9F7CC
:1015A0008BB190E289278BB927960FB6F894DEBFEE
:1015B0000FBECDBFDF91CF911F910F91FF90EF90A4
:1015C00008958091F100D7018D937D01015011099B
:1015D00009F0A6CFB4CFF70181917F018093F1008C
:1015E0000150110909F0C1CFCFCF1F921FB61F9232
:1015F00011242F933F938F939F93AF93BF93809129
:10160000C1019091C201A091C301B091C401309178
:10161000C00123E0230F2D3750F50196A11DB11D08
:101620002093C0018093C1019093C201A093C30194
:10163000B093C4018091C5019091C601A091C701EA
:10164000B091C8010196A11DB11D8093C501909371
:10165000C601A093C701B093C801BF91AF919F91FC
:101660008F913F912F911F901FBE1F90189526E8D4
:10167000230F0296A11DB11DD3CF1F920F920FB65B
:101680000F9211242F933F934F935F936F937F9308
:101690008F939F93AF93BF93EF93FF938AE392E06F
:1016A0000E94C505FF91EF91BF91AF919F918F91DE
:1016B0007F916F915F914F913F912F910F900FBE4E
:1016C0000F901F9018952F932FB72F938F939F9361
:1016D000EF93FF93E0914A02F0914B028081E091F9
:1016E0005002F091510282FD19C090818091530205
:1016F0008F5F8F7320915402821741F0E091530263
:10170000F0E0E65CFD4F958F80935302FF91EF91DF
:101710009F918F912F912FBF2F9118958081F6CF98
:101720001F920F920FB60F9211242F933F934F9356
:101730005F936F937F938F939F93AF93BF93EF9339
:10174000FF939091B900892F887F803509F4C0C03C
:1017500008F042C0803309F4B6C098F5883101F131
:10176000D0F4883009F4A7C0803109F4A4C08823DC
:1017700009F4F0C0FF91EF91BF91AF919F918F91CC
:101780007F916F915F914F913F912F910F900FBE7D
:101790000F901F901895803209F495C0883251F748
:1017A0009091160280911502981778F5E091160233
:1017B00081E08E0F80931602F0E0ED50FE4F8081A5
:1017C0007CC0803409F490C0883409F47EC088332A
:1017D00089F6809317026DC0803A09F49FC0B8F56E
:1017E000803809F489C050F5803611F1D8F4883575
:1017F00009F6E091160281E08E0F80931602809127
:10180000BB00F0E0ED50FE4F808380911802811103
:101810005CC081E08093130284EA8093BC00109244
:101820001902A8CF803721F0987E983609F0A2CF10
:1018300083E08093190210929F0141C0803909F41E
:101840005BC0987E983809F095CF85E839C0883B11
:10185000D9F058F5883A19F0803B09F08BCF84E035
:101860008093190210927E0110927D01E091C901CE
:10187000F091CA01099580917D01811105C081E037
:1018800080937D0110925D01E0917E0181E08E0FD9
:1018900080937E01F0E0E35AFE4F80818093BB008D
:1018A00090917E0180917D0123C0907F903C09F052
:1018B00061CF85ECB2CF809114028093BB0085ECA0
:1018C0008093BC0057CF809317020E94520652CFDC
:1018D000E091160281E08E0F809316028091BB008A
:1018E000F0E0ED50FE4F808390911602809115023A
:1018F000981708F0AACFE3CF80919F01803208F0BB
:10190000A4CFE0919F0181E08E0F80939F01809191
:10191000BB00F0E0E158FE4F8083D1CF85EC80938F
:10192000BC001092190280919F01803230F4E09146
:101930009F01F0E0E158FE4F108260919F0170E03E
:10194000E091CB01F091CC018FE791E009951092E5
:101950009F0110CF10921702B8CF1F920F920FB6AF
:101960000F9211242F933F934F935F936F937F9325
:101970008F939F93AF93BF93EF93FF938091E10079
:1019800082FF09C08091E20082FF05C08091E100E2
:101990008B7F8093E1008091DA0080FF17C08091F7
:1019A000D80080FF13C08091DA008E7F8093DA0028
:1019B0008091D90080FF86C080E189BD82E189BD28
:1019C00009B400FEFDCF81E080935C018091E100CD
:1019D00080FF17C08091E20080FF13C08091E20079
:1019E0008E7F8093E2008091E20080618093E2002C
:1019F0008091D80080628093D80019BC85E08093E4
:101A00005C018091E10084FF26C08091E20084FFA8
:101A100022C080E189BD82E189BD09B400FEFDCF0D
:101A20008091D8008F7D8093D8008091E1008F7ED7
:101A30008093E1008091E2008F7E8093E2008091AC
:101A4000E20081608093E20080915B018823F1F1E4
:101A500084E080935C018091E10083FF22C080914B
:101A6000E20083FF1EC08091E100877F8093E10048
:101A700082E080935C0110925B018091E1008E7F97
:101A80008093E1008091E2008E7F8093E20080915C
:101A9000E20080618093E20042E360E080E00E9427
:101AA0007807FF91EF91BF91AF919F918F917F91B7
:101AB0006F915F914F913F912F910F900FBE0F90BB
:101AC0001F90189519BC10925C0180CF8091E300A3
:101AD00087FD02C081E0BDCF83E0BBCFEAE3F2E047
:101AE0001382128248EE53E060E070E04483558335
:101AF000668377838CE091E0918380838DEC90E026
:101B0000958784878CEC90E09787868788EC90E0B7
:101B1000918B808B89EC90E0938B828B8AEC90E0A8
:101B2000958B848B8EEC90E0978B868B118E128E2A
:101B3000138E148EA7EDB2E013961C921E9212978C
:101B400014964D935D936D937C9317978EE191E07E
:101B500011969C938E93E3EEF2E084E090E0918303
:101B6000808388EE92E09383828386E08483B683C9
:101B7000A583108617820895CDB7DEB72A970FB6D2
:101B8000F894DEBF0FBECDBF0E940303E0914A026E
:101B9000F0914B0282E08083E0914602F09147028F
:101BA0001082E0914802F091490280E18083109216
:101BB0005202E0914E02F0914F0286E08083E09164
:101BC0004C02F0914D02808180618083E0914C0253
:101BD000F0914D02808188608083E0914C02F09109
:101BE0004D02808180688083E0914C02F0914D022B
:101BF00080818F7D80831092CE011092CD01109252
:101C0000D0011092D2010E9483060E9470020E94AD
:101C10006802E091E502F091E602138212823496A6
:101C2000DF0185E11D928A95E9F70E94B1048111D7
:101C300023C0E0913A02F0913B020280F381E02D53
:101C400040E250E06CE271E08AE392E00995E091B5
:101C50003A02F0913B020280F381E02D42E050E035
:101C60006DE471E08AE392E0099568EE73E080E04C
:101C700090E00E948C03CDCF0E943101882319F09F
:101C800088E08093E7028DE00E94560185E00E9483
:101C900056018AE00E94560189E00E94560188E0C0
:101CA0000E94560186E00E945601209A559A0E9491
:101CB000F209789400E3802E912CA12CB12C88E1BC
:101CC000482E512C612C712C90E8E92EF12C14E057
:101CD000212E8DE00E94DA0221E0892B09F020E01C
:101CE0002093A50185E00E94DA0221E0892B09F00A
:101CF00020E02093A4018AE00E94DA0221E0892BEF
:101D000009F020E02093A30189E00E94DA0221E09B
:101D1000892B09F020E02093A20188E00E94DA02DA
:101D200021E0892B09F020E02093A10186E00E94A8
:101D3000DA0221E0892B09F020E02093A0010E9423
:101D40005404882309F432C30E943101C090E50293
:101D5000D090E6028823F9F08091E7028830D8F02D
:101D6000EFE5D6011496EC931497FFED1596FC93CE
:101D700015978FE816968C93169717961C921797BF
:101D80001A968C911A9718968C9318971B968C918B
:101D90001B9719968C93F0920701E0920601F0923E
:101DA0000501E0920401F0920301E0920201F09239
:101DB0000101E0920001D6011896BC91EB2FF0E0F2
:101DC000FA87E987D60119960C9110E08091A50158
:101DD000882309F40AC28091A401882309F49CC0D5
:101DE000C8018095909581708093AE01CF0176E017
:101DF000959587957A95E1F7809590958170809378
:101E0000AF01C801959587958095909581708093D5
:101E1000B001CF01880F892F881F990B809590956D
:101E200081708093B1018091A301882309F441C09E
:101E3000C8018095909580FF06C0E1E0F0E0F09346
:101E40000501E093040189859A8566E0959587955B
:101E50006A95E1F78095909580FF0AC08091040112
:101E60009091050181589F4F909305018093040143
:101E7000C801959587958095909580FF06C081E073
:101E800090E0909307018093060189859A85880FD9
:101E9000892F881F990B8095909580FF0AC08091AB
:101EA00006019091070181589F4F909307018093FD
:101EB00006018091A2018823C1F189859A8525E0D8
:101EC000959587952A95E1F78095909581708093F7
:101ED000B60189859A8595958795809590958170AD
:101EE0008093B7018091A101882321F189859A858A
:101EF000A5E095958795AA95E1F7809590958170D5
:101F00008093B80189859A85959587958095909558
:101F100081708093B90112C01092AE011092AF018E
:101F20001092B0011092B1017ECF1092B6011092C2
:101F3000B701D8CF1092B8011092B90189859A855E
:101F400095958795959587958095909581708093C7
:101F5000BA0129853A8564E0359527956A95E1F7B8
:101F600020953095922F91709093BB011092BC01F7
:101F70001092BD01980174E0359527957A95E1F7A7
:101F80002095309521702093B2019801E6E03595B7
:101F90002795EA95E1F72095309521702093B301BC
:101FA0009801F3E035952795FA95E1F7209530955E
:101FB00021702093B4019801A5E035952795AA9545
:101FC000E1F72095309521702093B5012091A00173
:101FD0002223B9F029853A8546E0359527954A951B
:101FE000E1F72095309520FFD0C1992309F4CDC1A8
:101FF0001092BA011092BB01E1E0E093BC01109293
:10200000AF0189859A8523E0959587952A95E1F713
:10201000809590959A83898380FF03C091E0909387
:10202000BC01809106018093A901809104018093F5
:10203000AA01809102018093AB01809100018093FD
:10204000AC018091AE01882309F4B3C19091B10134
:10205000992309F4AEC1A1E0A093A8018091B20137
:10206000882349F08091A6019091A7018460909304
:10207000A7018093A6018091B301882349F0809144
:10208000A6019091A70182609093A7018093A60179
:102090008091B401882349F08091A6019091A70115
:1020A00088609093A7018093A6018091B501882351
:1020B00049F08091A6019091A70181609093A701BA
:1020C0008093A6018091B601882349F08091A601F2
:1020D0009091A70180619093A7018093A6018091C0
:1020E000B701882349F08091A6019091A7018062F1
:1020F0009093A7018093A6018091B801882349F0AD
:102100008091A6019091A70180649093A70180938C
:10211000A6018091B901882349F08091A601909190
:10212000A70180689093A7018093A6018091BA01CE
:10213000882349F08091A6019091A7019260909325
:10214000A7018093A6018091BB01882349F080916B
:10215000A6019091A70191609093A7018093A60199
:102160008091BC01882349F08091A6019091A7013C
:1021700090619093A7018093A6018091BD0188236F
:1021800049F08091A6019091A70190629093A701D8
:102190008093A6018091BE01882349F08091A60119
:1021A0009091A70194609093A7018093A6018091DC
:1021B000BF01882349F08091A6019091A701986002
:1021C0009093A7018093A6010E946B0A0E94F009D8
:1021D00080E090E0892B09F47CCD0E94B105882332
:1021E00009F475CD0E94000072CDC80180959095CC
:1021F00081708093AE0189859A85B6E09595879523
:10220000BA95E1F78095909581708093AF01C801F0
:10221000959587958095909581708093B00189857B
:102220009A85880F892F881F990B809590958170CA
:102230008093B101D60114963C90232D2F7330E08A
:1022400050E040E02850310941095109AFEFB0E0BA
:102250000E942F1269837A838B839C83A50194014A
:102260000E9410123093070120930601F601F581B8
:10227000F9832F2F2F7330E050E040E028503109D0
:1022800041095109A1E0BFEF0E943D126D837E8399
:102290008F839887A50194010E94101221503F4F0F
:1022A0004F4F5F4F3093050120930401D6011696DE
:1022B000DC90832D807C869586958695B981B07C4F
:1022C0003B2E3294369447E03422382A2D2D207844
:1022D00030E0220F232F221F330B2329022E000C64
:1022E000330B440B550B2450310941095109AFEF11
:1022F000B0E00E942F12A30192010E9410123093AD
:102300000301209302012D2D2F7130E050E040E0B9
:102310002450310941095109A1E0BFEF0E943D124B
:1023200069837A838B839C83A30192010E9410129C
:1023300021503F4F4F4F5F4F3093010120930001D9
:1023400089859A8565E0959587956A95E1F78095E9
:10235000909581708093B60189859A85959587952A
:102360008095909581708093B701C801880F892F5F
:10237000881F990B8095909581708093B801C80152
:102380009595879595958795C1CD0095109500FFFA
:1023900038CE882309F435CE1092BA011092BB01D1
:1023A000F1E0F093BD011092AE012BCE0E94B1047A
:1023B00038CE9091AF019923C9F09091B101992342
:1023C00021F083E08093A80149CE9091B001992338
:1023D000E1F085E0F7CF992321F0B7E0B093A801B1
:1023E0003DCE1092A8013ACE88E0ECCF9091B0019A
:1023F0008111F1CF86E09111E5CF8091B101882361
:1024000099F3E2E0E093A80129CE8111EACF20926E
:10241000A80124CEEE0FFF1F0590F491E02D099442
:10242000052E97FB1EF400940E94271257FD07D03B
:102430000E94421207FC03D04EF40C9427125095D0
:102440004095309521953F4F4F4F5F4F08959095A0
:102450008095709561957F4F8F4F9F4F08950E9493
:102460006412A59F900DB49F900DA49F800D911DA7
:1024700011240895B7FF0C942F120E942F12821B73
:10248000930B0895A1E21A2EAA1BBB1BFD010DC0E0
:10249000AA1FBB1FEE1FFF1FA217B307E407F50714
:1024A00020F0A21BB30BE40BF50B661F771F881FF0
:1024B000991F1A9469F760957095809590959B0186
:1024C000AC01BD01CF010895A29FB001B39FC0012F
:1024D000A39F700D811D1124911DB29F700D811D50
:1024E0001124911D0895F894FFCF8F029302810269
:1024F00087028B02B302B302B30296029C02A002CF
:10250000A402AA02B302AE02EB071308D40913080F
:0C251000D40946086708D4098F099C090B
:10251C00800080008000800000000000E6054C0573
:10252C0075053206A6058405980500000000F60620
:10253C00C90625079F06C206AF06A006436C617349
:10254C0073696320436F6E74726F6C6C6572206E6E
:10255C006F7420646574656374656421000D0A00F2
:00000001FF
