:100000000C946E010C9496010C9496010C9496013C
:100010000C9496010C9496010C9496010C94960104
:100020000C9496010C9496010C94570C0C94960128
:100030000C9496010C9496010C9496010C949601E4
:100040000C9496010C9496010C9496010C949601D4
:100050000C9496010C9496010C9496010C94350E18
:100060000C9496010C9496010C9496010C949601B4
:100070000C9496010C9496010C9496010C949601A4
:100080000C9496010C9496010C9496010C94960194
:100090000C94180D0C9496010C9496010C949601F6
:1000A0000C9496010C9496010C94960100000002A9
:1000B00000090F0000030401000C00000000000014
:1000C000000000000000000000000000000000250B
:1000D0000028002B002E0031000000000024002723
:1000E000002A002D00300004040404040304050267
:1000F00002020204030202020206060606060604C3
:10010000040202020404040802011040804010208E
:1001100040804080080204018040201002011080CD
:1001200010204040200902290001010080FA090442
:10013000000002030000000921110100012250000B
:100140000705020340001007058103400004050174
:100150000905A10115002501350045017501950E20
:1001600005091901290E8102950281010501250762
:10017000463B017504950165140939814265009576
:1001800001810126FF0046FF0009300931093209CB
:1001900035750895048102750895018101C0090231
:1001A0009900040100A0FA0904000002FF5D0100AB
:1001B0001121000101258114000000001301080035
:1001C000000705810320000407050103200008093A
:1001D00004010004FF5D03001B21000101018240B6
:1001E000010220168300000000000016030000003A
:1001F000000000070582032000020705020320001B
:1002000004070583032000400705030320001009AD
:1002100004020001FF5D02000921000101228407A0
:1002200000070584032000100904030000FFFD13EC
:100230000406410001010312010002FFFFFF405EBE
:10024000048E0214010102030112010002000000E9
:10025000400D0FC100000101020001080331002E12
:1002600000300000001A034E0075006C006C00574F
:10027000006900690043006F006E002D0058000007
:100280000018034E0075006C006C00730074006170
:10029000006C006700690061000000040309041A93
:1002A000034E0075006C006C005700690069004344
:1002B000006F006E002D005300000018034E007503
:1002C000006C006C007300740061006C00670069D2
:1002D00000610000000403090400881311241FBEFC
:1002E000CFEFDAE0DEBFCDBF11E0A0E0B1E0E0E8A3
:1002F000F8E202C005900D92AC35B107D9F722E0C3
:10030000ACE5B1E001C01D92A838B207E1F711E0F9
:10031000CEE6D1E004C02197FE010E94D213CD3673
:10032000D107C9F70E947D0E0C9425140C9400008F
:1003300080915E0287FF13C08091E80082FF06C0B3
:100340008091E8008B778093E80004C0809186025A
:100350008111F2CF0895809186028823D9F380918C
:10036000E80080FFF8CF8091E8008E77ECCF2091F5
:10037000E4003091E50095E6A9012091EC00822F80
:10038000817020FF06C08091E80080FF06C080E0F9
:1003900008952091E80022FD1AC0809186028823EA
:1003A00089F0853089F08091EB0085FD0FC02091A8
:1003B000E4003091E50042175307F9F29150E1F65D
:1003C00084E0089582E0089583E0089581E008952F
:1003D000FC0180916402909165026817790708F426
:1003E000CB0140E0009741F4411106C08091E80044
:1003F00082FF2FC080E00895209186022223A9F178
:100400002530A9F12091E80023FD2DC02091E800BE
:1004100022FDECCF2091E80020FFE4CF3091F300E3
:100420002091F200009719F02034310558F041E096
:100430002034310509F040E02091E8002E77209328
:10044000E800D0CF41914093F10001972F5F3F4FDB
:10045000E9CF80918602882341F0853041F0809178
:10046000E80083FFC3CF81E0089582E0089583E030
:10047000089580E880930701809306018093050129
:1004800080930401ECE4F2E082E1DF011D928A95A1
:10049000E9F7089590E080E0089581E00895809163
:1004A000280290912702891B990B089590912702A9
:1004B000809128022FEF3FEF981748F4E92FF0E0E2
:1004C000E95FFD4F208130E09F5F90932702C901D3
:1004D0000895E091270280912802E81730F4F0E0B7
:1004E000E95FFD4F808190E008958FEF9FEF0895C1
:1004F00008950895089520910302260F3327331F8E
:1005000021323105E4F420910602FC0190E080E004
:10051000243061F082E00895309103022191DC01E2
:10052000AD51BE4FA30FB11D2C9301968617A0F3BA
:1005300080910302680F6093030280E0089581E0D8
:100540000895CF93DF930F92CDB7DEB7FC01698397
:1005500080914B028823F1F080914A02803250F062
:1005600081E090E09383828390E080E00F90DF91C0
:10057000CF91089580914902E82FF0E0E75DFD4FAB
:10058000998190838F5F8093490280934A0281E032
:1005900090E0ECCF61E0CE0101960E947B02F7CFA4
:1005A000CF92DF92EF92FF920F931F93CF93DF933F
:1005B0007C01CB018A0120914B02222389F0EB01BF
:1005C0006B01C40ED51ECC15DD0569F06991D7010C
:1005D000ED91FC910190F081E02DC7010995F3CFD9
:1005E000642F0E947B02C801DF91CF911F910F9170
:1005F000FF90EF90DF90CF90089585ED8093BC0041
:100600008091BC0084FDFCCF109206020895CF9328
:10061000DF9300D000D0CDB7DEB78FB7F89420912C
:10062000950130919601409197015091980129834D
:100630003A834B835C838FBF69817A818B819C81F4
:100640000F900F900F900F90DF91CF910895CF935F
:10065000DF9300D000D0CDB7DEB73FB7F8948091DC
:10066000900190919101A0919201B091930126B5D2
:10067000A89B05C02F3F19F00196A11DB11D3FBFDA
:10068000BA2FA92F982F8827820F911DA11DB11D68
:100690009C01AD0162E0220F331F441F551F6A9574
:1006A000D1F7CA01B9010F900F900F900F90DF9111
:1006B000CF9108958F929F92AF92BF92CF92DF9287
:1006C000EF92FF92CF93DF9300D000D0CDB7DEB78B
:1006D0004B015C010E9427036B017C010E942703F0
:1006E000DC01CB018C199D09AE09BF09883E9340FE
:1006F000A105B10598F321E0821A9108A108B1087B
:1007000088EEC80E83E0D81EE11CF11C8114910410
:10071000A104B10419F70F900F900F900F90DF9183
:10072000CF91FF90EF90DF90CF90BF90AF909F90D0
:100730008F900895789484B5826084BD84B581607B
:1007400084BD85B5826085BD85B5816085BDEEE6D9
:10075000F0E0808181608083E1E8F0E010828081B8
:1007600082608083808181608083E0E8F0E0808126
:1007700081608083E1E9F0E0808182608083808114
:1007800081608083E0E9F0E0808181608083E1EC3A
:10079000F0E08081846080838081826080838081BA
:1007A00081608083E3ECF0E0808181608083E0EC15
:1007B000F0E0808182608083E2ECF0E08081816003
:1007C0008083EAE7F0E080818460808380818260BA
:1007D00080838081816080838081806880830895A8
:1007E000CF93DF9390E0FC01EA5FFE4F24918951A3
:1007F0009F4FFC0184918823C9F090E0880F991FD6
:10080000FC01E752FF4FA591B491FC01E553FF4F66
:10081000C591D49161110DC09FB7F8948C9120952A
:1008200082238C938881282328839FBFDF91CF91D7
:100830000895623051F49FB7F8943C91822F8095CF
:1008400083238C93E8812E2BEFCF8FB7F894EC9114
:100850002E2B2C938FBFEACF282F30E0F901E455DF
:10086000FF4F9491F901EA5FFE4F849129513F4F68
:10087000F90124912223F1F0992371F091509F30D6
:1008800058F4E92FF0E0E95DFB4E0C94D2139091FF
:1008900080009F7790938000E22FF0E0EE0FFF1F23
:1008A000E553FF4FA591B4919FB7F894EC918E2B2F
:1008B0008C939FBF0895909180009F7DEBCF909186
:1008C0008000977FE7CF94B59F7794BDE5CF94B52F
:1008D0009F7DFBCF909190009F7790939000DCCF0D
:1008E000909190009F7DF9CF90919000977FF5CFE8
:1008F0009091C0009F779093C000CECF9091C000A0
:100900009F7DF9CF9091C200977F9093C200C4CF92
:100910001092060281E0809305021092040282E0A8
:100920000E942C0483E00E942C04E9EBF0E080811B
:100930008E7F808380818D7F808388E48093B80060
:1009400085E48093BC0008958AE792E090939A0131
:1009500080939901089589E792E090939D01809397
:100960009C010895E0917301F0917401868190914A
:100970007501911115C09581907C969596959695E7
:10098000807C829586958770892B2781207830E03E
:10099000220F232F221F330B822B880F880F880FE3
:1009A0000895492F2091730130917401280F311D52
:1009B000F901858190E002C0959587954A95E2F707
:1009C000809590958170089580917501811106C080
:1009D00080914C0190914D010C94D10480914E0175
:1009E00090914F01F9CF80917501811106C08091DE
:1009F0004801909149010C94D10480914A01909151
:100A00004B01F9CF80917501811106C0809144019D
:100A1000909145010C94D104809146019091470139
:100A2000F9CF80917501811106C0809140019091AC
:100A300041010C94D1048091420190914301F9CF7E
:100A400080917501811106C080913C0190913D011A
:100A50000C94D10480913E0190913F01F9CF809197
:100A60007501811106C080913801909139010C9473
:100A7000D10480913A0190913B01F9CF80917501A9
:100A8000811106C080913401909135010C94D104FC
:100A90008091360190913701F9CF809175018111D4
:100AA00006C080913001909131010C94D104809165
:100AB000320190913301F9CF80917501811106C007
:100AC00080912C0190912D010C94D10480912E01E4
:100AD00090912F01F9CF80917501811106C080910D
:100AE0002801909129010C94D10480912A019091C0
:100AF0002B01F9CF80917501811106C080912401ED
:100B0000909125010C94D1048091260190912701A8
:100B1000F9CF80917501811106C0809120019091DB
:100B200021010C94D1048091220190912301F9CFED
:100B3000CF93DF93C82FD1E0613208F045C0D09148
:100B40000602D111FCCF82E08093060281E08093FF
:100B500005028FEF8093BF011092E1016093E001E5
:100B6000462F50E069E272E080EC91E00E940214AE
:100B70001092E2018091E201CC0FC82BC093E201F8
:100B800080910402813021F5109204028091E201EB
:100B90008093BB008091BC0083FDF8CF85EC8093EF
:100BA000BC00809106028230E1F38091BF018F3F4B
:100BB00059F08091BF01D2E0803231F08091BF01C5
:100BC000D4E0803309F4D3E08D2FDF91CF910895E5
:100BD00085EEE5CF60914A02809168010E949805F8
:100BE0001092490210924A0210924B02089587EB2C
:100BF00092E00197F1F708950F931F93CF93DF933E
:100C00008C01D42FC22F81E080934B0282E5809328
:100C100068011092490210924A02D801ED91FC91AC
:100C20000190F081E02DC8010995D801ED91FC916A
:100C30000190F081E02D6D2FC80109950E94EA0511
:100C400081110AC0CC2351F00E94F7058C2FDF914F
:100C5000CF911F910F910895C0E0F8CFC1E0F6CF7A
:100C6000CF93C82F813208F040C0809106028111D5
:100C7000FCCF81E080930602809305029FEF909362
:100C8000BF011092E1019C0F9093E0018093E2017B
:100C90008091E201846A8093E201809104028130B4
:100CA00011F5109204028091E2018093BB008091C3
:100CB000BC0083FDF8CF85EC8093BC0080910602D8
:100CC0008130E1F38091E1018C1710F4C091E101D2
:100CD0004C2F50E060EC71E087E092E00E9402143B
:100CE0008C2FCF91089585EEE7CFC0E0F9CFAF927A
:100CF000BF92DF92EF92FF920F931F93CF93DF93F8
:100D0000CDB7DEB72A970FB6F894DEBF0FBECDBFC2
:100D10008D839E83F42ED22EE32E81E080934B02AE
:100D200082E5809368011092490210924A02AD81D7
:100D3000BE81ED91FC9111970190F081E02DCD01E4
:100D400009950E94EA0581114DC00E94F7058F2D7B
:100D5000B0E2BF1508F480E20E943006109227022C
:100D600080932802082F10E0B12CA12CA016B10608
:100D7000B8F50E9407036F83788789879A87ED818A
:100D8000FE816087718782879387AD81BE81ED91F7
:100D9000FC9111970284F385E02DCD01099597FF11
:100DA00032C00E94070369837A838B839C83ED8121
:100DB000FE8180859185A285B38529813A814B8109
:100DC0005C81281B390B4A0B5B0BDA01C90144819A
:100DD00055816681778184179507A607B707A8F222
:100DE00081E0FA1080E02A960FB6F894DEBF0FBEBD
:100DF000CDBFDF91CF911F910F91FF90EF90DF90CA
:100E0000BF90AF900895ED2DFE2D81933FEFA31A73
:100E1000B30ADE2EEF2EAACFE0917301F091740198
:100E20008281938120917101309172018217930721
:100E300029F02130310529F5892B19F19F012B5F0C
:100E40003F4F448160E0808191810E947706882332
:100E5000C1F0E0917301F09174016481359650E026
:100E600040E09FEF20E070E04617570734F43191DF
:100E7000232B93234F5F5F4FF7CF222311F09F3F28
:100E800009F480E00895982F9093E900242F762F9D
:100E900050E0891731F07091EC002091ED005091F5
:100EA000F00021FD06C09F5F973071F78093E90045
:100EB00008953091EB003E7F3093EB003091ED00D0
:100EC0003D7F3093ED003091EB0031603093EB00CB
:100ED0007093EC002093ED005093F0002091EE0011
:100EE00027FDE1CF0895CF92DF92EF92FF920F930B
:100EF0001F93CF93DF9384B7877F84BF0FB6F89497
:100F0000A8958091600088618093600010926000D5
:100F10000FBE80E830E020E00FB6F89480936100C7
:100F2000209361000FBEC8EDD0E088818F7E88835A
:100F3000E7EDF0E080818160808384E082BF81E022
:100F40008093870288818E7F888302EE10E0F8010B
:100F500010821092DA0081EEC82ED12CF601108298
:100F600088818F77888388818068888388818F7D56
:100F7000888319BC10928602109285021092840216
:100F80001092830290EEE92EF12CF70180818B7F85
:100F9000808388818160888342E360E080E00E94F2
:100FA0004307F60180818E7F8083F8018081816014
:100FB0008083808188608083F70180818E7F808339
:100FC000888180618883DF91CF911F910F91FF907D
:100FD000EF90DF90CF9008950F931F93CF93DF93FF
:100FE000CDB7DEB7AA970FB6F894DEBF0FBECDBF60
:100FF00080918602882309F4D8C01091E9001F70FF
:101000009091EC00892F817090FD80E8182B109250
:10101000E9008091E80083FFC5C08EE592E0FC0105
:1010200001962091F100208322E086369207B9F7DD
:1010300085B191E0892785B980918202811118C01C
:1010400080915F028130A1F480915E02813A81F447
:101050008091E800877F8093E80064E170E086E695
:1010600092E00E94E8018091E8008B778093E8008D
:101070008091E80083FF88C080915E0290915F02BA
:101080009A3008F081C0E92FF0E0EA5CFB4E0C9446
:10109000D213803899F0823809F076C080916202CC
:1010A0008F70873008F070C08093E9008091EB006A
:1010B00085FB882780F91092E90006C080918302A1
:1010C00090918402911182609091E800977F9093B3
:1010D000E8008093F1001092F1008091E8008E7793
:1010E000E8C1882309F4D5C1823009F04DC0809150
:1010F00060028111D9C1809162028F702FEF280F99
:10110000263008F041C08093E9002091EB0020FFD9
:10111000CBC1933031F48091EB0080628093EB007F
:10112000C3C19091EB0090619093EB0021E030E01F
:1011300001C0220F8A95EAF72093EA001092EA0094
:101140008091EB008860EACF81111EC0009160029F
:101150000F778091E3008078802B8093E30080916B
:10116000E800877F8093E8000E9498018091E80062
:1011700080FFFCCF8091E30080688093E30082E0F1
:10118000011183E0809386028091E80083FF0AC00A
:101190008091E800877F8093E8008091EB00806277
:1011A0008093EB001F701093E900AA960FB6F89495
:1011B000DEBF0FBECDBFDF91CF911F910F9108957C
:1011C0008058823008F720916002309161022C3DF6
:1011D00083E0380799F583E08A838AE289834FB7F1
:1011E000F894DE01139620E03EE051E2E32FF0E0B8
:1011F00050935700849120FF03C082958F703F5F0A
:101200008F708A30C8F0895C90E08D939D932F5F3A
:10121000243161F74FBF8091E800877F8093E80019
:101220006AE270E0CE0101960E94E8018091E80038
:101230008B778093E800A8CF805DE6CF832F992736
:1012400040918202442309F466C083309105C9F0BD
:1012500060F48130910509F49CC0029709F094CFA5
:1012600089E290E0E5E2F1E021C08132910509F4E4
:1012700095C0829709F088CF80E590E0EEE4F1E038
:1012800015C0C90199272130B1F18230910509F4C7
:101290003AC0892B09F078CFE5EDF2E0E4918E2F8A
:1012A00090E0E5EDF2E0009709F46ECF2091E800C0
:1012B000277F2093E8002091640230916502821715
:1012C000930708F49C0140E02115310509F070C036
:1012D00041116EC08091E80082FDA8CF8091860206
:1012E000882309F4A3CF853009F4A0CF8091E800CA
:1012F00083FFF0CF9BCFEBEBF2E0E4918E2F90E0F9
:10130000EBEBF2E0D0CFEFE9F2E0E4918E2F90E04A
:10131000EFE9F2E0C8CF8230910509F444C0833090
:10132000910541F0019709F02FCF82E190E0E7E3CA
:10133000F2E0BCCFC9019927223019F18330910521
:1013400068F40097B1F0019709F01ECFE1E8F2E0F0
:10135000E4918E2F90E0E1E8F2E0A5CF039709F049
:1013600013CFEBE5F2E0E4918E2F90E0EBE5F2E0B5
:101370009ACFEBE9F2E0E4918E2F90E0EBE9F2E016
:1013800092CFE5E6F2E0E4918E2F90E0E5E6F2E020
:101390008ACF82E190E0E9E4F2E088CF89E090E052
:1013A000E7E3F1E083CF89E990E0EEE9F1E07ECF79
:1013B00080918602882309F439CF853009F436CF2D
:1013C0008091E80083FD32CF8091E80082FD82CFDA
:1013D0008091E80080FF78CF9091F3008091F20037
:1013E0002115310519F08034910558F041E0803421
:1013F000910509F040E08091E8008E778093E80045
:1014000063CF44914093F100319621503109019608
:10141000E7CF803809F0B8CE8091E800877F8093CD
:10142000E800809185028093F10057CE8111ACCE07
:1014300000916002023008F0A7CE8091E800877F1B
:101440008093E800009385020E949801002311F028
:1014500084E005C08091E30087FDFACF81E08093AE
:10146000860280918202882359F042E360EC82E098
:101470000E94430742E361EC81E00E94430784CE6F
:1014800042E261EC81E00E94430742E261EC83E0CA
:10149000F4CF80916002813009F076CE81E0933004
:1014A00009F080E0809384021092E9008091E800C6
:1014B000877F8093E8000E94980166CE0C94EC0729
:1014C000EF92FF920F931F93CF937C018B010E94A9
:1014D000B701C82F811119C08091E80085FD0DC0AA
:1014E0008091E8008E778093E8000E94EC070E94CC
:1014F000B701882389F3C82F08C0F70181917F01C4
:101500008093F1000150110939F78C2FCF911F9171
:101510000F91FF90EF900895EF92FF920F931F931A
:10152000CF93DF9300D000D000D00F92CDB7DEB7BD
:1015300080918602843009F04FC080918202882316
:1015400041F182E08093E9008091E80082FF21C0B0
:101550008091E80085FF18C00E94B701811114C076
:1015600007E010E0CE0101967C018091E80085FD46
:1015700040C08091E8008B778093E8000E94EC07E0
:101580000E94B701882389F38091E8008B778093CC
:10159000E80081E08093E9008091E80080FF1CC0B2
:1015A0008091820250E040E0882369F168E070E0B9
:1015B0008AE792E00E94600AEAE7F2E088E0DF0151
:1015C0001D928A95E9F78091E8008E778093E80074
:1015D0008BB190E289278BB927960FB6F894DEBFBE
:1015E0000FBECDBFDF91CF911F910F91FF90EF9074
:1015F00008958091F100D7018D937D01015011096B
:1016000009F0B3CFC1CF64E170E086E692E00E94BA
:10161000600AD9CFE6E6F2E084E1DF01982F1D925F
:101620009A95E9F7818308950F931F93CF93DF93E2
:1016300000D000D000D0CDB7DEB7E0917301F091BB
:1016400074010081118120E045E560EFC8010E942E
:10165000FC05882309F464C06AE070E080E090E053
:101660000E945A0320E040E06BEFC8010E94FC0595
:10167000882309F455C064E170E080E090E00E94A6
:101680005A0300917301109174019E012F5F3F4F27
:1016900046E06AEFD8018D919C910E9477068823DD
:1016A000C9F18B81843A39F58C81803221F59D8195
:1016B0008E81292F282B89F129813A81223048F403
:1016C00031111CC09430F0F5813029F484E090E0B1
:1016D0003FC0311113C09130A9F5833089F485E002
:1016E00090E02223A9F186E090E0213089F187E0A3
:1016F00090E0233069F182E090E02AC0913011F54A
:10170000823119F488E090E023C08131A1F78AE0AA
:1017100090E01EC090E080E01BC083E090E018C025
:10172000E0917301F09174011382128280E0269699
:101730000FB6F894DEBF0FBECDBFDF91CF911F91E2
:101740000F9108959111D7CF8331A9F689E090E0E8
:10175000F80193838283E0917301F0917401828197
:10176000938120917101309172018217930729F0C2
:1017700021303105D9F6892BC9F2359685E1DF0193
:101780001D928A95E9F7E0917301F091740186E06A
:101790008483E0916F01F09170010190F081E02D60
:1017A0008FE691E026960FB6F894DEBF0FBECDBF50
:1017B000DF91CF911F910F9109940F931F93CF93B6
:1017C000DF93CDB7DEB760970FB6F894DEBF0FBEDC
:1017D000CDBF8C010E94F705D8011496ED91FC91C4
:1017E00021E043E06EEF808191810E94FC05882317
:1017F00009F43FC01A86198686E0FE013B96DF0198
:10180000982F1D929A95E9F71A8219823897DF016D
:101810001D928A95E9F7D8011496ED91FC919E01ED
:10182000275F3F4F48E060E0808191810E9477060A
:101830008823D9F10E94F705D8011496ED91FC9107
:101840009E012F5F3F4F48E060E0808191810E94C0
:101850007706882351F129819985291315C02A8596
:101860009A81291311C09F852889922B81F4F80150
:10187000168260960FB6F894DEBF0FBECDBFDF9123
:10188000CF911F910F9108950E94F705C4CF91E069
:10189000D80116969C9316971496ED91FC9194811D
:1018A000983038F798E09483E4CF80E0E2CF1F923D
:1018B0000F920FB60F9211242F933F934F935F9384
:1018C0006F937F938F939F93AF93BF93EF93FF9308
:1018D0008091E10082FF09C08091E20082FF05C093
:1018E0008091E1008B7F8093E1008091DA0080FF9E
:1018F00017C08091D80080FF13C08091DA008E7FDE
:101900008093DA008091D90080FF86C080E189BD94
:1019100082E189BD09B400FEFDCF81E0809386029B
:101920008091E10080FF17C08091E20080FF13C02A
:101930008091E2008E7F8093E2008091E2008061DE
:101940008093E2008091D80080628093D80019BC17
:1019500085E0809386028091E10084FF26C080911B
:10196000E20084FF22C080E189BD82E189BD09B423
:1019700000FEFDCF8091D8008F7D8093D8008091AC
:10198000E1008F7E8093E1008091E2008F7E809362
:10199000E2008091E20081608093E2008091850204
:1019A0008823F1F184E0809386028091E10083FF37
:1019B00022C08091E20083FF1EC08091E100877FFA
:1019C0008093E10082E080938602109285028091EC
:1019D000E1008E7F8093E1008091E2008E7F809312
:1019E000E2008091E20080618093E20042E360E0E7
:1019F00080E00E944307FF91EF91BF91AF919F91CB
:101A00008F917F916F915F914F913F912F910F90A7
:101A10000FBE0F901F90189519BC1092860280CFB0
:101A20008091E30087FD02C081E0BDCF83E0BBCFA2
:101A30001F920F920FB60F9211242F933F934F9343
:101A40005F936F937F938F939F93AF93BF93EF9326
:101A5000FF939091B900892F887F803509F4C0C029
:101A600008F042C0803309F4B6C098F5883101F11E
:101A7000D0F4883009F4A7C0803109F4A4C08823C9
:101A800009F4F0C0FF91EF91BF91AF919F918F91B9
:101A90007F916F915F914F913F912F910F900FBE6A
:101AA0000F901F901895803209F495C0883251F735
:101AB0009091E1018091E001981778F5E091E101C2
:101AC00081E08E0F8093E101F0E0E054FE4F8081D1
:101AD0007CC0803409F490C0883409F47EC0883317
:101AE00089F68093BF016DC0803A09F49FC0B8F5B4
:101AF000803809F489C050F5803611F1D8F4883562
:101B000009F6E091E10181E08E0F8093E10180917F
:101B1000BB00F0E0E054FE4F80838091050281110C
:101B20005CC081E08093040284EA8093BC00109240
:101B30000602A8CF803721F0987E983609F0A2CF10
:101B400083E0809306021092BE0141C0803909F4FF
:101B50005BC0987E983809F095CF85E839C0883BFE
:101B6000D9F058F5883A19F0803B09F08BCF84E022
:101B70008093060210929B0110920302E09199015A
:101B8000F0919A01099580910302811105C081E0CD
:101B9000809303021092E301E0919B0181E08E0F9C
:101BA00080939B01F0E0ED51FE4F80818093BB005C
:101BB00090919B018091030223C0907F903C09F09B
:101BC00061CF85ECB2CF8091E2018093BB0085ECC0
:101BD0008093BC0057CF8093BF010E94FD0252CF7B
:101BE000E091E10181E08E0F8093E1018091BB00E3
:101BF000F0E0E054FE4F80839091E1018091E0019C
:101C0000981708F0AACFE3CF8091BE01803208F088
:101C1000A4CFE091BE0181E08E0F8093BE01809140
:101C2000BB00F0E0E256FE4F8083D1CF85EC80937D
:101C3000BC00109206028091BE01803230F4E09127
:101C4000BE01F0E0E256FE4F10826091BE0170E0EE
:101C5000E0919C01F0919D018EE991E0099510922F
:101C6000BE0110CF1092BF01B8CF1F921FB61F92B6
:101C700011242F933F938F939F93AF93BF938091A2
:101C8000950190919601A0919701B09198013091A2
:101C9000940123E0230F2D3750F50196A11DB11DAE
:101CA000209394018093950190939601A0939701BE
:101CB000B09398018091900190919101A09192012F
:101CC000B09193010196A11DB11D80939001909355
:101CD0009101A0939201B0939301BF91AF919F9115
:101CE0008F913F912F911F901FBE1F90189526E84E
:101CF000230F0296A11DB11DD3CFCDB7DEB72F970D
:101D00000FB6F894DEBF0FBECDBF0E949A030E94AB
:101D10000A0B62E08DE00E94F00362E085E00E9421
:101D2000F00362E08AE00E94F00362E089E00E9432
:101D3000F00362E088E00E94F00360E086E00E9429
:101D4000F003209A559A10922702109228021092BE
:101D5000490210924A020E9488040E94A4040E9430
:101D6000AB040E94140B81110FC068EE73E080E099
:101D700090E00E945A038BB120E282278BB985B193
:101D800041E0842785B9EDCF0E940C07882309F430
:101D9000A3C01091750160917301709174017A83F1
:101DA0006983FB018581111102C0880F880F809320
:101DB0000301E981FA8111118BC08681880F880F98
:101DC000809302010E94B20480930101E981FA81AB
:101DD000111180C08781880F880F880F80930001C0
:101DE0000E947A0581110E94890580936A0189B158
:101DF0008095881F8827881F809382020E9473071E
:101E00007894F0915201FB87209153012C874091E7
:101E100050014D87E09051012090560130905701BC
:101E20008BEB482E512C612C712C9AEB892E912C26
:101E3000A12CB12C60915401709155017E836D836A
:101E400080915A0190915B0198878F83E0915801AE
:101E5000F0915901FA87E98786B18095881F882714
:101E6000881F80936E0186B121E086FB882780F968
:101E7000822780936D0183B186FB882780F98227B2
:101E800080936C0193B195FB992790F992279093D9
:101E90006B0183B18295817082278093690189B13A
:101EA0008095881F8827881F909182029817B9F023
:101EB0008091E00081608093E00088E19CE00FB6B3
:101EC000F894A895809360000FBE90936000FFCFB8
:101ED000878176CF808582CF0E94140B88CF0E94A5
:101EE00039020E940C07882309F414C2F0916E0194
:101EF000F9830E946B05F09075012981222309F472
:101F0000B6C090916D01992309F48DC080934C0265
:101F10000E945C0580934D020E944D0580934E0205
:101F20000E943E0580934F0280916C01882341F00E
:101F30000E942F05809354020E9420058093550231
:101F400080916B01882341F00E942F0580935602F7
:101F50000E942005809357020E9411058093580229
:101F60000E9402058093590280916A018111A6C1E5
:101F70000E947A05809350020E9489058093510245
:101F80000E94F304809352020E94E404809353025F
:101F9000809169018823A9F00E945C05882309F4D7
:101FA0009EC10E940205882309F499C1109258022B
:101FB0001092590281E080935A0210925B021092B3
:101FC0004D028D859E2DFF2011F08B859C850E94F2
:101FD000D104882319F081E080935A0260910701AF
:101FE00050910601409105019091040180914C02AD
:101FF00020918202222309F492C160937D025093C2
:102000007E0240937F02909380028111BCC1909127
:102010004D02992309F473C390914F02992309F457
:10202000BBC183E0B6C1882329F0809106018F5798
:10203000809306010E945C05882329F080910601A7
:102040008158809306010E944D05882329F08091D4
:1020500007018F57809307010E943E05882309F4EA
:1020600063CF809107018158809307015DCF8093F2
:102070004C020E945C0580934D020E944D058093A6
:102080004E020E943E0580934F02C0907301D09093
:102090007401F6010581F11005C1000F000FF681F2
:1020A000FF0FFF0FFF870E94B204182FF601F110F7
:1020B000FBC0F781FF0FFF0FFF0FFE87202F30E0DF
:1020C0008091030190E0AC014D5F5F4F42175307D1
:1020D00024F003972817390724F5802F90E0B0E00B
:1020E000A0E020E082329105A105B105C4F02FEFF8
:1020F0008D3D9105A105B10594F49C01AD012252DD
:10210000310941095109AFEFB0E00E940B14698316
:102110007A838B839C83A50194010E94B31320933F
:1021200007014F85242F30E08091020190E0AC013F
:102130004D5F5F4F4217530724F003972817390765
:102140005CF55F85852F90E0B0E0A0E082329105DC
:10215000A105B1050CF4AAC08D3D9105A105B105FD
:102160000CF0A6C09C01AD01225231094109510970
:10217000A2E0BFEF0E94DB1369837A838B839C8389
:10218000A30192010E94B313DA01C90181509F4F4C
:10219000AF4FBF4F80930601212F30E080910101A6
:1021A00090E0AC014D5F5F4F4217530724F0039757
:1021B0002817390724F5812F90E0B0E0A0E020E057
:1021C00082329105A105B105C4F02FEF8D3D910537
:1021D000A105B10594F49C01AD01225231094109D8
:1021E0005109AFEFB0E00E940B1469837A838B83AF
:1021F0009C83A50194010E94B313209305016E8571
:10220000262F30E08091000190E0AC014D5F5F4FE0
:102210004217530724F003972817390754F57E8592
:10222000872F90E0B0E0A0E082329105A105B105D2
:102230000CF440C08D3D9105A105B105ECF59C0164
:10224000AD012252310941095109A2E0BFEF0E94BC
:10225000DB1369837A838B839C83A30192010E94A1
:10226000B313DA01C90181509F4FAF4FBF4F809325
:1022700004010E942F05809354020E942005809340
:10228000550289859A85FF2011F08F8198850E94DB
:10229000D104809356028D819E81F110C1010E946C
:1022A000D10458CEF781FECEF08507CF8FEF72CFE5
:1022B00080E070CF8FEFDBCF80E0D9CF0E947A052E
:1022C000809351020E948905809350020E94F3047A
:1022D000809353020E94E4048093520259CE0E94DC
:1022E0006B05882309F46DCE0E941105882309F43B
:1022F00068CE80918202882309F463CE109258023E
:102300001092590210925A0281E080935B0210925F
:102310004C0257CE0E9439020E94140B5FCEE1E0BE
:10232000F1E06E9F90016F9F300D11243058309373
:102330006D0220936C026FEF7EEF569F9001579FC6
:10234000300D11242150304830936F0220936E02DB
:102350004E9F90014F9F300D1124305830937102E1
:1023600020937002969F9001979F300D1124215069
:102370003048309373022093720290916802811169
:1023800023C09E7F22C090914F02992309F43FCE33
:1023900081E080937C02A9C190914E02992309F4B7
:1023A0009FC185E0F6CF80914E02882309F49BC13E
:1023B00087E0EFCF84E0EDCF80914F02882311F0CA
:1023C00082E0E7CF88E0E5CF91609093680280914A
:1023D000680290914D029923E9F08260809368022F
:1023E0008091680290914E029923B1F084608093AD
:1023F00068028091680290914F02992379F0886079
:102400008093680280916902909150029111E7C017
:102410008F7DE6C08D7FE2CF8B7FE9CF877FF0CFC6
:10242000846090937B0280937A0280917A029091EB
:102430007B0220915102222309F4B7C0826090935D
:102440007B0280937A0280917A0290917B022091A4
:102450005202222309F4ABC0886090937B028093E0
:102460007A0280917A0290917B022091530222237A
:1024700009F49FC0816090937B0280937A028091DF
:102480007A0290917B0220915402222309F493C096
:10249000806190937B0280937A0280917A0290917E
:1024A0007B0220915502222309F487C08062909319
:1024B0007B0280937A0280917A0290917B02209134
:1024C0005602222309F47BC0806490937B028093A0
:1024D0007A0280917A0290917B0220915702222306
:1024E00009F46FC0806890937B0280937A02809198
:1024F0007A0290917B0220915802222309F463C052
:10250000926090937B0280937A0280917A029091FC
:102510007B0220915902222309F457C091609093C5
:102520007B0280937A0280917A0290917B022091C3
:102530005A02222309F44BC0906190937B0280934E
:102540007A0280917A0290917B0220915B02222391
:1025500009F43FC0906290937B0280937A0280914D
:102560007A0290917B0220915C022223A1F1946077
:1025700090937B0280937A0280917A0290917B0201
:1025800020915D02222349F1986090937B02809311
:102590007A020E948C0A0E945E0A80E090E0892BF9
:1025A00009F45ACC0E94000045CC8D7F48CF877F2C
:1025B00054CF8E7F60CF8F7E6CCF8F7D78CF8F7B17
:1025C00084CF8F7790CF9D7F9CCF9E7FA8CF9F7E1B
:1025D000B4CF9F7DC0CF9B7FCBCF977FD6CF80627C
:1025E000809369028091690290915102992309F4C4
:1025F00063C0806180936902809169029091520268
:10260000992309F45BC08068809369028091690214
:1026100090915302992309F453C080648093690216
:102620008091690290915402992309F44BC0816012
:10263000809369028091690290915502992309F46F
:1026400043C0826080936902809156028195809395
:102650006A0280915702819580936B028091680293
:1026600090915802992391F1806180936802809142
:10267000680290915902992359F18062809368020F
:102680008091690290915A02992321F1846080938C
:1026900069028091680290915C029923E9F080645C
:1026A000809368028091680290915D029923B1F055
:1026B0008068809368026DCF8F7E9CCF8F77A4CF88
:1026C0008F7BACCF8E7FB4CF8D7FBCCF8F7ECDCFB5
:1026D0008F7DD4CF8B7FDBCF8F7BE2CF8F77E9CF1E
:1026E000882309F467CE10927C0280917A0290913F
:1026F0007B0220915002211193CE8B7F92CE8111CB
:1027000052CE80914E02882309F456CE86E041CE07
:10271000ACE5B1E013961C921E92129748EE53E07E
:1027200060E070E014964D935D936D937C931797E2
:102730008CE091E011969C938E93EFE6F1E084E0BB
:1027400090E09383828386E791E095838483168269
:102750008EE191E091838083B087A78312861186F2
:1027600086E083870895052E97FB1EF400940E944F
:10277000CA1357FD07D00E94E01307FC03D04EF4A4
:102780000C94CA1350954095309521953F4F4F4F6B
:102790005F4F089590958095709561957F4F8F4F0D
:1027A0009F4F0895EE0FFF1F0590F491E02D0994BF
:1027B000B7FF0C940B140E940B14821B930B08950B
:1027C000A1E21A2EAA1BBB1BFD010DC0AA1FBB1F35
:1027D000EE1FFF1FA217B307E407F50720F0A21BA7
:1027E000B30BE40BF50B661F771F881F991F1A9414
:1027F00069F760957095809590959B01AC01BD013E
:10280000CF010895FB01DC0102C001900D924150FF
:102810005040D8F708950E941614A59F900DB49FBC
:10282000900DA49F800D911D11240895A29FB001C9
:10283000B39FC001A39F700D811D1124911DB29FF4
:10284000700D811D1124911D0895F894FFCF63042C
:10285000670447045B045F044C044C044C046A04A2
:102860007004740478047E044C04820449087108DE
:10287000C4087108C408A408E008C408090A160AB4
:10288000808080808080808000000000A102D002D3
:102890004A0278024F025602690200000000DD0B76
:1028A00005060706050407040500070004060606DA
:1028B00005010701040706070405060504010601D2
:1028C00004020602040406040503070305050705C0
:0C28D000040306030502070205070707C2
:00000001FF
