:100000000C9475010C949D010C949D010C949D0120
:100010000C949D010C949D010C949D010C949D01E8
:100020000C949D010C949D010C94010D0C949D0168
:100030000C949D010C949D010C949D010C949D01C8
:100040000C949D010C949D010C949D010C949D01B8
:100050000C949D010C949D010C949D010C94DF0E59
:100060000C949D010C949D010C949D010C949D0198
:100070000C949D010C949D010C949D010C949D0188
:100080000C949D010C949D010C949D010C949D0178
:100090000C94C20D0C949D010C949D010C949D0137
:1000A0000C949D010C949D010C949D010000000096
:1000B000240027002A002D0030000000000023004B
:1000C000260029002C002F00000000002500280039
:1000D0002B002E0031000404040404030405020272
:1000E00002020403020202020606060606060404D1
:1000F0000202020404040802011040804010204063
:10010000804080080204018040201002011080100D
:10011000204040200000000200090F0000030401FD
:10012000000C0000000000000000000000000000C3
:100130000000000902290001010080FA0904000002
:1001400002030000000921110100012250000705EF
:100150000203400010070581034000040501090562
:10016000A10115002501350045017501950E050910
:100170001901290E81029502810105012507463BDF
:100180000175049501651409398142650095018165
:100190000126FF0046FF0009300931093209357593
:1001A0000895048102750895018101C00902990032
:1001B000040100A0FA0904000002FF5D0100112102
:1001C0000001012581140000000013010800000750
:1001D000058103200004070501032000080904012C
:1001E0000004FF5D03001B210001010182400102A8
:1001F000201683000000000000160300000000002D
:1002000000070582032000020705020320000407FF
:1002100005830320004007050303200010090402A2
:100220000001FF5D0200092100010122840700078F
:100230000584032000100904030000FFFD130406D9
:10024000410001010312010002FFFFFF405E048E26
:100250000214010102030112010002000000400D1E
:100260000FC100000101020001080331002E00301F
:100270000000001A034E0075006C006C0057006906
:1002800000690043006F006E002D00580000001848
:10029000034E0075006C006C007300740061006C0C
:1002A000006700690061000000040309041A034E9E
:1002B0000075006C006C0057006900690043006F16
:1002C000006E002D005300000018034E0075006CF6
:1002D000006C007300740061006C006700690061CD
:1002E00000000004030904000A1711241FBECFEF09
:1002F000DAE0DEBFCDBF11E0A0E0B1E0E8E1F0E37D
:1003000002C005900D92AC35B107D9F722E0ACE5FB
:10031000B1E001C01D92AD3BB207E1F711E0C5E7C6
:10032000D1E004C02197FE010E948817C437D1078D
:10033000C9F70E94270F0C94F1170C9400008091CC
:10034000930287FF13C08091E80082FF06C080916E
:10035000E8008B778093E80004C08091BB02811194
:10036000F2CF08958091BB028823D9F38091E800F1
:1003700080FFF8CF8091E8008E77ECCF2091E400E9
:100380003091E50095E6A9012091EC00822F817063
:1003900020FF06C08091E80080FF06C080E008953D
:1003A0002091E80022FD1AC08091BB02882389F0C9
:1003B000853089F08091EB0085FD0FC02091E4002D
:1003C0003091E50042175307F9F29150E1F684E0CD
:1003D000089582E0089583E0089581E00895FC0186
:1003E0008091990290919A026817790708F4CB01DD
:1003F00040E0009741F4411106C08091E80082FF7F
:100400002FC080E008952091BB022223A9F125305E
:10041000A9F12091E80023FD2DC02091E80022FDE4
:10042000ECCF2091E80020FFE4CF3091F300209141
:10043000F200009719F02034310558F041E02034E3
:10044000310509F040E02091E8002E772093E80084
:10045000D0CF41914093F10001972F5F3F4FE9CFFB
:100460008091BB02882341F0853041F08091E80003
:1004700083FFC3CF81E0089582E0089583E008956B
:1004800090E080E0089581E0089580916F0290915E
:100490006E02891B990B089590916E0280916F02F4
:1004A0002FEF3FEF981748F4E92FF0E0E25BFD4FA4
:1004B000208130E09F5F90936E02C9010895E09122
:1004C0006E0280916F02E81730F4F0E0E25BFD4FBE
:1004D000808190E008958FEF9FEF0895089508952B
:1004E000089520914A02260F3327331F2132310508
:1004F000E4F420914D02FC0190E080E0243061F0B2
:1005000082E0089530914A022191DC01A65DBD4F41
:10051000A30FB11D2C9301968617A0F380914A0278
:10052000680F60934A0280E0089581E00895CF93B8
:10053000DF930F92CDB7DEB7FC0169838091920201
:100540008823F1F080919102803250F081E090E0B8
:100550009383828390E080E00F90DF91CF910895A4
:1005600080919002E82FF0E0E059FD4F998190834F
:100570008F5F809390028093910281E090E0ECCFB6
:1005800061E0CE0101960E947102F7CFCF92DF9217
:10059000EF92FF920F931F93CF93DF937C01CB01D8
:1005A0008A0120919202222389F0EB016B01C40E93
:1005B000D51ECC15DD0569F06991D701ED91FC914F
:1005C0000190F081E02DC7010995F3CF642F0E94BF
:1005D0007102C801DF91CF911F910F91FF90EF90B1
:1005E000DF90CF90089585ED8093BC008091BC0092
:1005F00084FDFCCF10924D020895CF93DF9300D07D
:1006000000D0CDB7DEB78FB7F8942091DC013091E0
:10061000DD014091DE015091DF0129833A834B8354
:100620005C838FBF69817A818B819C810F900F9051
:100630000F900F90DF91CF910895CF93DF9300D06B
:1006400000D0CDB7DEB73FB7F8948091D701909135
:10065000D801A091D901B091DA0126B5A89B05C0B7
:100660002F3F19F00196A11DB11D3FBFBA2FA92F31
:10067000982F8827820F911DA11DB11D9C01AD01EE
:1006800062E0220F331F441F551F6A95D1F7CA013C
:10069000B9010F900F900F900F90DF91CF910895B7
:1006A0008F929F92AF92BF92CF92DF92EF92FF9282
:1006B000CF93DF9300D000D0CDB7DEB76B017C01C4
:1006C0000E941D034B015C01C114D104E104F1043B
:1006D000F9F40F900F900F900F90DF91CF91FF9052
:1006E000EF90DF90CF90BF90AF909F908F90089544
:1006F00021E0C21AD108E108F10888EE880E83E0F3
:10070000981EA11CB11CC114D104E104F104E1F252
:100710000E941D03DC01CB0188199909AA09BB09B4
:10072000883E9340A105B10518F7CECF789484B5E3
:10073000826084BD84B5816084BD85B5826085BDDD
:1007400085B5816085BDEEE6F0E0808181608083C3
:10075000E1E8F0E0108280818260808380818160A6
:100760008083E0E8F0E0808181608083E1E9F0E06F
:10077000808182608083808181608083E0E9F0E015
:10078000808181608083E1ECF0E0808184608083FF
:10079000808182608083808181608083E3ECF0E0EF
:1007A000808181608083E0ECF0E0808182608083E2
:1007B000E2ECF0E0808181608083EAE7F0E0808114
:1007C0008460808380818260808380818160808377
:1007D000808180688083089581508F30C0F5E82F34
:1007E000F0E0ED50F84E0C948817809180008F77E0
:1007F000809380000895809180008F7DF9CF809153
:100800008000877FF5CF84B58F7784BD089584B548
:100810008F7DFBCF809190008F778093900008951B
:10082000809190008F7DF9CF80919000877FF5CFE8
:100830008091C0008F778093C00008958091C000A0
:100840008F7DF9CF8091C200877F8093C200089589
:100850001F93CF93DF93162F282F30E0F901EC5E22
:10086000FE4F8491F901EB50FF4FD491F901EA5208
:10087000FF4FC491CC23A1F081110E94EC03EC2F17
:10088000F0E0EE0FFF1FE853FF4FA591B4918FB733
:10089000F894EC91111108C0D095DE23DC938FBF42
:1008A000DF91CF911F910895DE2BF8CF10924D026A
:1008B00081E080934C0210924B0261E082E00E9442
:1008C000280461E083E00E942804E9EBF0E08081E5
:1008D0008E7F808380818D7F808388E48093B800C1
:1008E00085E48093BC000895CF93DF93282F30E0F8
:1008F000F901EC5EFE4F8491F901EB50FF4FD4916A
:10090000F901EA52FF4FC491CC2379F081110E9482
:10091000EC03EC2FF0E0EE0FFF1FE654FF4FA59124
:10092000B491EC91ED2381E009F480E090E0DF9157
:10093000CF910895CF93DF9300D000D000D0CDB7F2
:10094000DEB78D83811126C060E080917B010E941B
:10095000280480917F0190918001880F991F880F52
:10096000991F9C01990F440B550B29833A834B83A4
:100970005C83CA01B9010E94500361E080917B0150
:1009800026960FB6F894DEBF0FBECDBFDF91CF9194
:100990000C9428041E8260E080917B010E94280450
:1009A00080917F01909180019C01990F440B550B20
:1009B000CA01B9010E94500361E080917B010E944D
:1009C000280480917F01909180019C01990F440B34
:1009D000550BCA01B9010E9450033E813F5F3E831F
:1009E0004D814313D8CF26960FB6F894DEBF0FBEC5
:1009F000CDBFDF91CF910895811104C080916F0127
:100A00000C949A04823019F480917001F9CF8630E9
:100A100091F420917101822F90E0222389F381309B
:100A2000910531F08230910559F785E090E0E8CFEB
:100A300082E090E0E5CF833019F480917401E0CF3B
:100A4000843019F480917201DBCF853019F48091E4
:100A50007301D6CF813019F480917501D1CF0895FB
:100A600080E792E09093E1018093E00108958FE6A2
:100A700092E09093E4018093E301089590E0FC01FB
:100A8000EB50FF4F24918A529F4FFC0184918823A1
:100A900099F090E0880F991FFC01E455FF4FA59154
:100AA000B491FC01E853FF4F859194918FB7F8946E
:100AB000EC91E22BEC938FBF0895E091A801F091A7
:100AC000A90186819091AA01911115C09581907C10
:100AD000969596959695807C829586958770892BBC
:100AE0002781207830E0220F232F221F330B822B07
:100AF000880F880F880F0895CF93DF93C82FD1E018
:100B0000613208F045C0D0914D02D111FCCF82E096
:100B100080934D0281E080934C028FEF8093060218
:100B20001092280260932702462F50E060E772E09F
:100B300087E092E00E94B817109229028091290262
:100B4000CC0FC82BC093290280914B02813021F534
:100B500010924B02809129028093BB008091BC00CF
:100B600083FDF8CF85EC8093BC0080914D028230EC
:100B7000E1F3809106028F3F59F080910602D2E0A6
:100B8000803231F080910602D4E0803309F4D3E062
:100B90008D2FDF91CF91089585EEE5CF6091910281
:100BA000809168010E947C0510929002109291023F
:100BB00010929202089587EB92E00197F1F7089561
:100BC0000F931F93CF93DF938C01D42FC22F81E01B
:100BD0008093920282E580936801109290021092B5
:100BE0009102D801ED91FC910190F081E02DC801B6
:100BF0000995D801ED91FC910190F081E02D6D2FC8
:100C0000C80109950E94CE0581110AC0CC2351F07C
:100C10000E94DB058C2FDF91CF911F910F910895DA
:100C2000C0E0F8CFC1E0F6CFCF93C82F813208F0F3
:100C300040C080914D028111FCCF81E080934D0234
:100C400080934C029FEF90930602109228029C0F13
:100C5000909327028093290280912902846A8093CD
:100C6000290280914B02813011F510924B02809144
:100C700029028093BB008091BC0083FDF8CF85ECF6
:100C80008093BC0080914D028130E1F38091280275
:100C90008C1710F4C09128024C2F50E067E072E0EE
:100CA0008EE492E00E94B8178C2FCF91089585EEC4
:100CB000E7CFC0E0F9CFAF92BF92DF92EF92FF9201
:100CC0000F931F93CF93DF93CDB7DEB72A970FB65D
:100CD000F894DEBF0FBECDBF8D839E83F42ED22E3F
:100CE000E32E81E08093920282E580936801109266
:100CF000900210929102AD81BE81ED91FC9111970D
:100D00000190F081E02DCD0109950E94CE05811161
:100D10004DC00E94DB058F2DB0E2BF1508F480E2C4
:100D20000E94140610926E0280936F02082F10E04A
:100D3000B12CA12CA016B106B8F50E94FD026F835C
:100D4000788789879A87ED81FE816087718782879E
:100D50009387AD81BE81ED91FC9111970284F3855B
:100D6000E02DCD01099597FF32C00E94FD026983F5
:100D70007A838B839C83ED81FE8180859185A2851A
:100D8000B38529813A814B815C81281B390B4A0B41
:100D90005B0BDA01C9014481558166817781841733
:100DA0009507A607B707A8F281E0FA1080E02A9617
:100DB0000FB6F894DEBF0FBECDBFDF91CF911F916C
:100DC0000F91FF90EF90DF90BF90AF900895ED2DC1
:100DD000FE2D81933FEFA31AB30ADE2EEF2EAACF8A
:100DE000E091A801F091A901828193812091A6014F
:100DF0003091A7018217930729F02130310529F599
:100E0000892B19F19F012B5F3F4F448160E0808166
:100E100091810E945B068823C1F0E091A801F091C6
:100E2000A9016481359650E040E09FEF20E070E03A
:100E30004617570734F43191232B93234F5F5F4FAD
:100E4000F7CF222311F09F3F09F480E00895860F29
:100E5000911DFC01858190E002C0959587957A955A
:100E6000E2F78095909581700895FC0184819581C9
:100E700026816091580170915901222321F06091DF
:100E80005A0170915B010C942707FC0184819581C4
:100E900026816091540170915501222321F06091C7
:100EA0005601709157010C942707FC0184819581AC
:100EB00026816091500170915101222321F06091AF
:100EC0005201709153010C942707FC018481958194
:100ED000268160914C0170914D01222321F0609197
:100EE0004E0170914F010C942707FC01848195817C
:100EF00026816091480170914901222321F060917F
:100F00004A0170914B010C942707FC018481958163
:100F100026816091440170914501222321F0609166
:100F20004601709147010C942707FC01848195814B
:100F300026816091400170914101222321F060914E
:100F40004201709143010C942707FC018481958133
:100F5000268160913C0170913D01222321F0609136
:100F60003E0170913F010C942707FC01848195811B
:100F700026816091380170913901222321F060911E
:100F80003A0170913B010C942707FC018481958103
:100F900026816091340170913501222321F0609106
:100FA0003601709137010C942707FC0184819581EB
:100FB00026816091300170913101222321F06091EE
:100FC0003201709133010C9427078091A801909110
:100FD000A9012091AA016091200170912101222391
:100FE00021F060912201709123010C942707982F22
:100FF0009093E900242F762F50E0891731F07091FB
:10100000EC002091ED005091F00021FD06C09F5FA3
:10101000973071F78093E90008953091EB003E7F9F
:101020003093EB003091ED003D7F3093ED00309137
:10103000EB0031603093EB007093EC002093ED00F7
:101040005093F0002091EE0027FDE1CF0895CF925C
:10105000DF92EF92FF920F931F93CF93DF9384B7AA
:10106000877F84BF0FB6F894A8958091600088614F
:1010700080936000109260000FBE80E830E020E0B6
:101080000FB6F89480936100209361000FBEC8ED05
:10109000D0E088818F7E8883E7EDF0E080818160F9
:1010A000808384E082BF81E08093BC0288818E7F50
:1010B000888302EE10E0F80110821092DA0081EECF
:1010C000C82ED12CF601108288818F778883888181
:1010D0008068888388818F7D888319BC1092BB02C9
:1010E0001092BA021092B9021092B80290EEE92E54
:1010F000F12CF70180818B7F8083888181608883D8
:1011000042E360E080E00E94F707F60180818E7F75
:101110008083F80180818160808380818860808302
:10112000F70180818E7F8083888180618883DF9151
:10113000CF911F910F91FF90EF90DF90CF90089586
:101140000F931F93CF93DF93CDB7DEB7AA970FB658
:10115000F894DEBF0FBECDBF8091BB02882309F497
:10116000D8C01091E9001F709091EC00892F817018
:1011700090FD80E8182B1092E9008091E80083FF31
:10118000C5C083E992E0FC0101962091F100208323
:1011900022E08B399207B9F785B191E0892785B9AB
:1011A0008091B702811118C0809194028130A1F41E
:1011B00080919302813A81F48091E800877F809347
:1011C000E80064E170E08BE992E00E94EF01809119
:1011D000E8008B778093E8008091E80083FF88C067
:1011E00080919302909194029A3008F081C0E92F87
:1011F000F0E0EE5FF74E0C948817803899F0823853
:1012000009F076C0809197028F70873008F070C027
:101210008093E9008091EB0085FB882780F910928C
:10122000E90006C08091B8029091B90291118260E4
:101230009091E800977F9093E8008093F1001092DE
:10124000F1008091E8008E77E8C1882309F4D5C1C8
:10125000823009F04DC0809195028111D9C18091F1
:1012600097028F702FEF280F263008F041C080932F
:10127000E9002091EB0020FFCBC1933031F4809145
:10128000EB0080628093EB00C3C19091EB00906112
:101290009093EB0021E030E001C0220F8A95EAF73D
:1012A0002093EA001092EA008091EB008860EACF78
:1012B00081111EC0009195020F778091E300807824
:1012C000802B8093E3008091E800877F8093E80083
:1012D0000E949F018091E80080FFFCCF8091E30095
:1012E00080688093E30082E0011183E08093BB0279
:1012F0008091E80083FF0AC08091E800877F809397
:10130000E8008091EB0080628093EB001F701093E7
:10131000E900AA960FB6F894DEBF0FBECDBFDF91ED
:10132000CF911F910F9108958058823008F7209136
:101330009502309196022C3D83E0380799F583E0C1
:101340008A838AE289834FB7F894DE01139620E0FE
:101350003EE051E2E32FF0E050935700849120FFEC
:1013600003C082958F703F5F8F708A30C8F0895CB0
:1013700090E08D939D932F5F243161F74FBF809153
:10138000E800877F8093E8006AE270E0CE01019672
:101390000E94EF018091E8008B778093E800A8CF4E
:1013A000805DE6CF832F99274091B702442309F44B
:1013B00066C083309105C9F060F48130910509F46D
:1013C0009CC0029709F094CF89E290E0E3E3F1E05A
:1013D00021C08132910509F495C0829709F088CF28
:1013E00080E590E0ECE5F1E015C0C90199272130D6
:1013F000B1F18230910509F43AC0892B09F078CF18
:10140000E3EEF2E0E4918E2F90E0E3EEF2E000975D
:1014100009F46ECF2091E800277F2093E800209107
:10142000990230919A028217930708F49C0140E0D8
:101430002115310509F070C041116EC08091E8009E
:1014400082FDA8CF8091BB02882309F4A3CF853009
:1014500009F4A0CF8091E80083FFF0CF9BCFE9ECA7
:10146000F2E0E4918E2F90E0E9ECF2E0D0CFEDEAEB
:10147000F2E0E4918E2F90E0EDEAF2E0C8CF823006
:10148000910509F444C08330910541F0019709F0BA
:101490002FCF82E190E0E5E4F2E0BCCFC9019927CB
:1014A000223019F18330910568F40097B1F001976B
:1014B00009F01ECFEFE8F2E0E4918E2F90E0EFE824
:1014C000F2E0A5CF039709F013CFE9E6F2E0E4914B
:1014D0008E2F90E0E9E6F2E09ACFE9EAF2E0E491BB
:1014E0008E2F90E0E9EAF2E092CFE3E7F2E0E491B8
:1014F0008E2F90E0E3E7F2E08ACF82E190E0E7E52B
:10150000F2E088CF89E090E0E5E4F1E083CF89E97B
:1015100090E0ECEAF1E07ECF8091BB02882309F4F1
:1015200039CF853009F436CF8091E80083FD32CF82
:101530008091E80082FD82CF8091E80080FF78CF23
:101540009091F3008091F2002115310519F080345B
:10155000910558F041E08034910509F040E0809118
:10156000E8008E778093E80063CF44914093F100C8
:101570003196215031090196E7CF803809F0B8CE75
:101580008091E800877F8093E8008091BA02809381
:10159000F10057CE8111ACCE00919502023008F0D7
:1015A000A7CE8091E800877F8093E8000093BA027D
:1015B0000E949F01002311F084E005C08091E300A8
:1015C00087FDFACF81E08093BB028091B702882328
:1015D00059F042E360EC82E00E94F70742E361ECDD
:1015E00081E00E94F70784CE42E261EC81E00E9434
:1015F000F70742E261EC83E0F4CF809195028130FD
:1016000009F076CE81E0933009F080E08093B90252
:101610001092E9008091E800877F8093E8000E94A3
:101620009F0166CE0C94A008EF92FF920F931F9338
:10163000CF937C018B010E94BE01C82F811119C07C
:101640008091E80085FD0DC08091E8008E77809341
:10165000E8000E94A0080E94BE01882389F3C82FD9
:1016600008C0F70181917F018093F10001501109B9
:1016700039F78C2FCF911F910F91FF90EF90089524
:10168000EF92FF920F931F93CF93DF9300D000D080
:1016900000D00F92CDB7DEB78091BB02843009F045
:1016A0004FC08091B702882341F182E08093E90026
:1016B0008091E80082FF21C08091E80085FF18C07A
:1016C0000E94BE01811114C007E010E0CE01019616
:1016D0007C018091E80085FD40C08091E8008B7717
:1016E0008093E8000E94A0080E94BE01882389F32D
:1016F0008091E8008B778093E80081E08093E90097
:101700008091E80080FF1CC08091B70250E040E06B
:10171000882369F168E070E08FEA92E00E94140B80
:10172000EFEAF2E088E0DF011D928A95E9F7809107
:10173000E8008E778093E8008BB190E289278BB91F
:1017400027960FB6F894DEBF0FBECDBFDF91CF91C5
:101750001F910F91FF90EF9008958091F100D701B4
:101760008D937D010150110909F0B3CFC1CF64E120
:1017700070E08BE992E00E94140BD9CF0F931F9376
:10178000CF93DF9300D000D000D0CDB7DEB7E0918B
:10179000A801F091A9010081118120E045E560EFE9
:1017A000C8010E94E005882309F464C06AE070E083
:1017B00080E090E00E94500320E040E06BEFC80121
:1017C0000E94E005882309F455C064E170E080E0E0
:1017D00090E00E9450030091A8011091A9019E0180
:1017E0002F5F3F4F46E06AEFD8018D919C910E9498
:1017F0005B068823C9F18B81843A39F58C8180326C
:1018000021F59D818E81292F282B89F129813A810B
:10181000223048F431111CC09430F0F5813029F4A5
:1018200084E090E03FC0311113C09130A9F58330BE
:1018300089F485E090E02223A9F186E090E0213050
:1018400089F187E090E0233069F182E090E02AC0DE
:10185000913011F5823119F488E090E023C0813194
:10186000A1F78AE090E01EC090E080E01BC083E01A
:1018700090E018C0E091A801F091A90113821282B2
:1018800080E026960FB6F894DEBF0FBECDBFDF9185
:10189000CF911F910F9108959111D7CF8331A9F660
:1018A00089E090E0F80193838283E091A801F091B0
:1018B000A901828193812091A6013091A70182170D
:1018C000930729F021303105D9F6892BC9F23596D5
:1018D00085E1DF011D928A95E9F7E091A801F09179
:1018E000A90186E08483E091A401F091A501019013
:1018F000F081E02D84EA91E026960FB6F894DEBFE1
:101900000FBECDBFDF91CF911F910F9109940F931F
:101910001F93CF93DF93CDB7DEB760970FB6F894E0
:10192000DEBF0FBECDBF8C010E94DB05D80114962F
:10193000ED91FC9121E043E06EEF808191810E9466
:10194000E005882309F43FC01A86198686E0FE0167
:101950003B96DF01982F1D929A95E9F71A8219821A
:101960003897DF011D928A95E9F7D8011496ED9119
:10197000FC919E01275F3F4F48E060E080819181AC
:101980000E945B068823D9F10E94DB05D8011496DA
:10199000ED91FC919E012F5F3F4F48E060E0808118
:1019A00091810E945B06882351F129819985291331
:1019B00015C02A859A81291311C09F852889922BE9
:1019C00081F4F801168260960FB6F894DEBF0FBE60
:1019D000CDBFDF91CF911F910F9108950E94DB053C
:1019E000C4CF91E0D80116969C9316971496ED916A
:1019F000FC919481983038F798E09483E4CF80E0AC
:101A0000E2CF1F920F920FB60F9211242F933F93A4
:101A10004F935F936F937F938F939F93AF93BF93F6
:101A2000EF93FF938091E10082FF09C08091E20073
:101A300082FF05C08091E1008B7F8093E10080915F
:101A4000DA0080FF17C08091D80080FF13C080911A
:101A5000DA008E7F8093DA008091D90080FF86C003
:101A600080E189BD82E189BD09B400FEFDCF81E03E
:101A70008093BB028091E10080FF17C08091E2005B
:101A800080FF13C08091E2008E7F8093E2008091FE
:101A9000E20080618093E2008091D80080628093B0
:101AA000D80019BC85E08093BB028091E10084FFDF
:101AB00026C08091E20084FF22C080E189BD82E1DE
:101AC00089BD09B400FEFDCF8091D8008F7D809341
:101AD000D8008091E1008F7E8093E1008091E20048
:101AE0008F7E8093E2008091E20081608093E2002B
:101AF0008091BA028823F1F184E08093BB02809147
:101B0000E10083FF22C08091E20083FF1EC080912C
:101B1000E100877F8093E10082E08093BB02109216
:101B2000BA028091E1008E7F8093E1008091E20013
:101B30008E7F8093E2008091E20080618093E200DA
:101B400042E360E080E00E94F707FF91EF91BF91D0
:101B5000AF919F918F917F916F915F914F913F9145
:101B60002F910F900FBE0F901F90189519BC1092D7
:101B7000BB0280CF8091E30087FD02C081E0BDCF32
:101B800083E0BBCF1F920F920FB60F9211242F93B9
:101B90003F934F935F936F937F938F939F93AF93F5
:101BA000BF93EF93FF939091B900892F887F803581
:101BB00009F4C0C008F042C0803309F4B6C098F5FB
:101BC000883101F1D0F4883009F4A7C0803109F4DC
:101BD000A4C0882309F4F0C0FF91EF91BF91AF91A9
:101BE0009F918F917F916F915F914F913F912F9135
:101BF0000F900FBE0F901F901895803209F495C07A
:101C0000883251F79091280280912702981778F531
:101C1000E091280281E08E0F80932802F0E0E95FD6
:101C2000FD4F80817CC0803409F490C0883409F471
:101C30007EC0883389F6809306026DC0803A09F42D
:101C40009FC0B8F5803809F489C050F5803611F18D
:101C5000D8F4883509F6E091280281E08E0F809350
:101C600028028091BB00F0E0E95FFD4F8083809106
:101C70004C0281115CC081E080934B0284EA809326
:101C8000BC0010924D02A8CF803721F0987E983684
:101C900009F0A2CF83E080934D021092050241C06B
:101CA000803909F45BC0987E983809F095CF85E8B3
:101CB00039C0883BD9F058F5883A19F0803B09F0D3
:101CC0008BCF84E080934D021092E20110924A0281
:101CD000E091E001F091E101099580914A028111C2
:101CE00005C081E080934A0210922A02E091E2014D
:101CF00081E08E0F8093E201F0E0E65DFD4F808190
:101D00008093BB009091E20180914A0223C0907FB2
:101D1000903C09F061CF85ECB2CF8091290280938D
:101D2000BB0085EC8093BC0057CF809306020E94D5
:101D3000F30252CFE091280281E08E0F80932802B7
:101D40008091BB00F0E0E95FFD4F80839091280215
:101D500080912702981708F0AACFE3CF809105025F
:101D6000803208F0A4CFE091050281E08E0F8093CD
:101D700005028091BB00F0E0EB51FE4F8083D1CF94
:101D800085EC8093BC0010924D0280910502803258
:101D900030F4E0910502F0E0EB51FE4F10826091CB
:101DA000050270E0E091E301F091E40185EE91E03D
:101DB00009951092050210CF10920602B8CF1F921B
:101DC0001FB61F9211242F933F938F939F93AF932E
:101DD000BF938091DC019091DD01A091DE01B09173
:101DE000DF013091DB0123E0230F2D3750F5019601
:101DF000A11DB11D2093DB018093DC019093DD01D7
:101E0000A093DE01B093DF018091D7019091D801BA
:101E1000A091D901B091DA010196A11DB11D809365
:101E2000D7019093D801A093D901B093DA01BF9163
:101E3000AF919F918F913F912F911F901FBE1F9047
:101E4000189526E8230F0296A11DB11DD3CFCDB75B
:101E5000DEB761970FB6F894DEBF0FBECDBF0E940C
:101E6000960310926E0210926F02109290021092DE
:101E700091020E9456040E9430050E94370540914D
:101E80007D0150917E015A834983CA0199270E949E
:101E9000C11791E0811101C090E090936F01898199
:101EA0008F5F90E00E94C11791E0811101C090E026
:101EB0009093700189818E5F90E00E94C117182F66
:101EC000809371018981865F90E00E94C11791E043
:101ED000811101C090E0909372018981855F90E04B
:101EE0000E94C11791E0811101C090E090937301AD
:101EF0008981845F90E00E94C11791E0811101C047
:101F000090E0909374015981535F852F90E00E9477
:101F1000C11791E0811101C090E0909375011330D9
:101F200078F01092710181E080936F0180937401C9
:101F30001092700180937201109273018093750169
:101F400088E00E943E058DE00E943E050E94BE0B87
:101F5000811111C068EE73E080E090E00E945003B0
:101F60008DE00E94740461E0892B09F060E08DE04F
:101F70000E942804EBCF0E94F006882309F44CC18C
:101F80001091AA016091A8017091A9017A836983D7
:101F9000FB018581111102C0880F880F8093030116
:101FA000E981FA81111134C18681880F880F8093ED
:101FB00002010E945D0580930101E981FA811111FE
:101FC00029C18781880F880F880F80930001209A8C
:101FD000559A86E00E9474049C0191E0232B09F439
:101FE00090E09093B7020E9427087894F091260120
:101FF000FC87209127012D87409124014E87509125
:1020000025015F8720902A0130902B018BEB482E11
:10201000512C612C712C9AEB892E912CA12CB12C76
:1020200060912801709129017F836E8380912E0138
:1020300090912F0199878887E0912C01F0912D01D3
:10204000FB87EA8780916F0180936E018091740114
:1020500080936D01F1E08F2780936C018091720174
:1020600080936B018091730180936A018091750167
:102070008093690180E88093070180930601809333
:1020800005018093040182E1E5ECF1E011928A956B
:10209000E9F70E94F006882309F49CC40E94FD021F
:1020A0006B017C01C0927701D0927801E0927901B6
:1020B000F0927A0184EA91E00E94C507898384EA5C
:1020C00091E00E94D507909176019111C9C0F981E4
:1020D000FF2309F4C2C0882309F4BFC080918101A5
:1020E00081119DC0C0928E01D0928F01E09290012B
:1020F000F092910121E0209381016091760180911D
:102100007B010E942804809176018111CBC39091BC
:10211000AA019D83E091A801F091A901F98BE88BB8
:1021200080916E01C0907101882309F4C0C1809133
:102130006D01882309F4D6C084EA91E00E94350736
:102140008093C50184EA91E00E9445078093C6010F
:1021500084EA91E00E9455078093C70184EA91E0E8
:102160000E9465078093C80180916C01882361F10A
:1021700084EA91E00E943507882329F080910601C6
:102180008F578093060184EA91E00E9445078823D7
:1021900029F08091060181588093060184EA91E03C
:1021A0000E945507882329F0809107018F5780935B
:1021B000070184EA91E00E946507882329F0809155
:1021C0000701815880930701C11095C080916B0170
:1021D000882361F084EA91E00E94A5078093CD01F5
:1021E00084EA91E00E94B5078093CE0180916A0154
:1021F000882309F4B5C084EA91E00E94A507809382
:10220000CF0184EA91E00E94B5078093D001A8C075
:102210008781CDCE8085D9CE0E94BE0BD8CE80914D
:102220008E0190918F01A0919001B0919101C81AF7
:10223000D90AEA0AFB0A80918A0190918B01A09148
:102240008C01B0918D018C159D05AE05BF0508F080
:1022500054CF41E04093760150CF109281014DCF91
:1022600059815523D1F38823C1F38091810161E025
:10227000811145CF87E08093A1018093A2018093D3
:10228000A3011092760160917D01698360916F01D5
:102290007981872F90E00E94C91789818F5F6091B3
:1022A000700190E00E94C91789818E5F6091710171
:1022B00090E00E94C9178981865F6091720190E069
:1022C0000E94C9178981855F6091730190E00E9427
:1022D000C9178981845F89836091740190E00E94AD
:1022E000C9170BCF1092C5011092C6011092C701F9
:1022F0001092C80139CFF1E0CF1211C084EA91E009
:102300000E94A5078093CD0184EA91E00E94B50761
:102310008093CE0184EA91E00E94D50769CF22E044
:10232000C2121EC084EA91E00E94A5078093CF01EB
:1023300084EA91E00E94B5078093D00184EA91E09D
:102340000E94D507882361F084EA91E00E94A507E6
:102350008093CD0184EA91E00E94B5078093CE017D
:1023600084EA91E00E94C5078093D10184EA91E05C
:102370000E94D5078093D201809170018111D3C151
:1023800084EA91E00E9475078093C90184EA91E094
:102390000E9485078093CA010E94E5078093CB01C4
:1023A00084EA91E00E9495078093CC0184EA91E051
:1023B0000E94D507182FCC2029F180916F01882326
:1023C00009F11093820100918401011120C28091D2
:1023D0008301811709F4E5C180917701909178011B
:1023E000A0917901B0917A01112309F4B3C18093CE
:1023F000860190938701A0938801B093890110937F
:102400008301102F1093D201809169018823C9F0B4
:1024100084EA91E00E944507882309F429C284EAEE
:1024200091E00E94D507882309F422C21092D101BD
:102430001092D20181E08093D3011092D4011092C6
:10244000C6014D816E857F85442311F06C857D85A5
:10245000888999890E942707882319F081E0809351
:10246000D301F091B702F983609107015091060101
:1024700040910501909104018091C501FF2309F469
:10248000B4C26093B2025093B3024093B4029093EB
:10249000B5028111DEC29091C601992309F4B1C43D
:1024A0009091C801992309F4DDC283E0D8C284EA7F
:1024B00091E00E9435078093C50184EA91E00E9473
:1024C00045078093C60184EA91E00E9455078093F6
:1024D000C70184EA91E00E9465078093C801E889FA
:1024E000F989E580FD81F1110EC1EE0CEE0CE88951
:1024F000F9890681000F000F0E945D05F82EFD810D
:10250000F11105C1E889F9891781110F110F110F18
:102510002E2D30E08091030190E0AC014D5F5F4FC4
:102520004217530724F003972817390724F58E2DF7
:1025300090E0B0E0A0E020E082329105A105B10575
:10254000C4F02FEF8D3D9105A105B10594F49C01D8
:10255000AD012252310941095109AFEFB0E00E94AB
:10256000D71769837A838B839C83A50194010E948A
:10257000691720930701202F30E08091020190E03D
:10258000AC014D5F5F4F4217530724F003972817A4
:10259000390754F5802F90E0B0E0A0E08232910539
:1025A000A105B1050CF4B7C08D3D9105A105B1059C
:1025B0000CF0B3C09C01AD0122523109410951090F
:1025C000A2E0BFEF0E94911769837A838B839C837B
:1025D000A30192010E946917DA01C90181509F4F3E
:1025E000AF4FBF4F809306012F2D30E08091010146
:1025F00090E0AC014D5F5F4F4217530724F0039703
:102600002817390724F58F2D90E0B0E0A0E020E0F6
:1026100082329105A105B105C4F02FEF8D3D9105E2
:10262000A105B10594F49C01AD0122523109410983
:102630005109AFEFB0E00E94D71769837A838B838B
:102640009C83A50194010E94691720930501212F05
:1026500030E08091000190E0AC014D5F5F4F421788
:10266000530724F003972817390754F5812F90E07A
:10267000B0E0A0E082329105A105B1050CF44FC095
:102680008D3D9105A105B1050CF04BC09C01AD013C
:102690002252310941095109A2E0BFEF0E9491176E
:1026A00069837A838B839C83A30192010E946917BB
:1026B000DA01C90181509F4FAF4FBF4F8093040192
:1026C00084EA91E00E94A5078093CD0184EA91E01D
:1026D0000E94B5078093CE01FD816A857B85FF232B
:1026E00011F068857985888999890E9427078093E8
:1026F000CF012D816E817F812111B1018889998956
:102700000E94270782CDE889F9890781F5CEE889FB
:10271000F9891085FDCE8FEF65CF80E063CF8FEF15
:10272000CDCF80E0CBCF84EA91E00E947507809303
:10273000CA0184EA91E00E9485078093C9010E9442
:10274000E5078093CC0184EA91E00E94950780938D
:10275000CB012CCE40918601509187016091880178
:10276000709189016C017D01C41AD50AE60AF70A45
:102770004091920150919301609194017091950163
:102780004C155D056E057F0540F000918501011136
:1027900004C021E0209384012ACE1092850100E03C
:1027A0002ECE112309F42BCE84EA91E00E94A507D6
:1027B000811106C084EA91E00E94B507882319F0D0
:1027C00081E0809385018091770190917801A091BB
:1027D0007901B0917A014091860150918701609111
:1027E000880170918901841B950BA60BB70B01E042
:1027F00040919201509193016091940170919501E3
:1028000084179507A607B70708F0F9CDC8CF8091C0
:10281000770190917801A0917901B0917A0140916E
:102820008601509187016091880170918901841B14
:10283000950BA60BB70B40919601509197016091B3
:10284000980170919901481759076A077B0768F04A
:1028500084EA91E00E94A507811107C084EA91E013
:102860000E94B507882309F4CACD1092840197CF3E
:1028700084EA91E00E943507882309F4E2CD84EAD6
:1028800091E00E94C507882309F4DBCD1092D101A5
:102890001092D2011092D30181E08093D401109262
:1028A000C501CFCD82E1E5ECF1E011928A95E9F71F
:1028B00084EA91E00E94750780939A0184EA91E08E
:1028C0000E94850780939B0184EA91E00E9435076E
:1028D00080939C0184EA91E00E94450780939D01CA
:1028E00084EA91E00E94550780939E0184EA91E07A
:1028F0000E94650780939F0184EA91E00E949507FA
:102900008093A00187E08093A101EAE9F1E080E0F3
:1029100091919923E9F08093A1019091A101809177
:10292000A201981781F0973071F08091A30198135C
:102930004DC0811111C090916F0121E092279093B9
:102940006F010E94FC048091A1018093A20189CDB6
:102950008F5F8730E9F6E1CF823039F490917001D2
:1029600021E0922790937001ECCF863059F490913A
:1029700071019F5F933018F490937101E2CF109230
:102980007101DFCF833039F49091740121E09227F7
:1029900090937401D6CF843039F49091720121E084
:1029A000922790937201CDCF853039F490917301C5
:1029B00021E0922790937301C4CF813011F690915A
:1029C000750121E0922790937501BBCF9093A301ED
:1029D000892FB7CF0E94BE0B61E08DE00E942804D2
:1029E00060E08DE00E9428043CCDE1E0F1E06E9FC4
:1029F00090016F9F300D112430583093A202209324
:102A0000A1026FEF7EEF569F9001579F300D11246A
:102A1000215030483093A4022093A3024E9F90018E
:102A20004F9F300D112430583093A6022093A502F9
:102A3000969F9001979F300D11242150304830937C
:102A4000A8022093A70290919D02811123C09E7F2E
:102A500022C09091C801992309F41DCD81E0809393
:102A6000B102C5C19091C701992309F4BBC185E0AA
:102A7000F6CF8091C701882309F4B7C187E0EFCF73
:102A800084E0EDCF8091C801882311F082E0E7CF88
:102A900088E0E5CF916090939D0280919D02909196
:102AA000C6019923E9F0826080939D0280919D0286
:102AB0009091C7019923B1F0846080939D02809129
:102AC0009D029091C801992379F0886080939D02BE
:102AD00080919E029091C9019111FBC08F7EFAC036
:102AE0008D7FE2CF8B7FE9CF877FF0CF846090939B
:102AF000B0028093AF028091AF029091B00220911A
:102B0000CA01222309F4CBC082609093B002809363
:102B1000AF028091AF029091B0022091CB012223AD
:102B200009F4BFC088609093B0028093AF02809197
:102B3000AF029091B0022091CC01222309F4B3C0DE
:102B400081609093B0028093AF028091AF02909128
:102B5000B0022091CD01222309F4A7C08061909397
:102B6000B0028093AF028091AF029091B0022091A9
:102B7000CE01222309F49BC080629093B00280931F
:102B8000AF028091AF029091B0022091CF01222339
:102B900009F48FC080649093B0028093AF0280915B
:102BA000AF029091B0022091D001222309F483C09A
:102BB00080689093B0028093AF028091AF029091B1
:102BC000B0022091D101222309F477C09260909342
:102BD000B0028093AF028091AF029091B002209139
:102BE000D201222309F46BC091609093B0028093CC
:102BF000AF028091AF029091B0022091D3012223C5
:102C000009F45FC090619093B0028093AF0280910D
:102C1000AF029091B0022091D401222309F453C055
:102C200090629093B0028093AF028091AF02909136
:102C3000B0022091D501222309F447C094609093FB
:102C4000B0028093AF028091AF029091B0022091C8
:102C5000D601222309F43BC098609093B002809380
:102C6000AF020E94400B0E94120B89B1881F882777
:102C7000881F90E079817817190609F4ABC080911C
:102C8000E00081608093E00088E19CE00FB6F8945A
:102C9000A895809360000FBE90936000FFCF8D7F5A
:102CA00034CF877F40CF8E7F4CCF8F7E58CF8F7DA4
:102CB00064CF8F7B70CF8F777CCF9D7F88CF9E7FB7
:102CC00094CF9F7EA0CF9F7DACCF9B7FB8CF977FC7
:102CD000C4CF806180939E0280919E029091CA0130
:102CE000992309F463C0806280939E0280919E02C2
:102CF0009091CB01992309F45BC0806480939E027C
:102D000080919E029091CC01992309F453C0806870
:102D100080939E0280919E029091CD01992309F4A7
:102D20004BC0816080939E0280919E029091CE0163
:102D3000992309F443C0826080939E028091CF0161
:102D4000819580939F028091D00181958093A0020C
:102D500080919D029091D101992391F1806180939E
:102D60009D0280919D029091D201992359F1806238
:102D700080939D0280919E029091D301992321F12D
:102D8000846080939E0280919D029091D501992349
:102D9000E9F0806480939D0280919D029091D6011C
:102DA0009923B1F0806880939D025BCF8F7D9CCF8B
:102DB0008F7BA4CF8F77ACCF8E7FB4CF8D7FBCCFEE
:102DC0008F7ECDCF8F7DD4CF8B7FDBCF8F7BE2CF3C
:102DD0008F77E9CF80E090E0892B09F433C90E9416
:102DE00000001EC9882309F44BCE1092B1028091D5
:102DF000AF029091B0022091C901211177CE8B7F53
:102E000076CE811136CE8091C701882309F43ACE5F
:102E100086E025CECF92DF92EF92FF92ACE5B1E053
:102E200013961C921E92129788EEC82E83E0D82E1D
:102E3000E12CF12C1496CD92DD92ED92FC92179735
:102E40008CE091E011969C938E93E4EAF1E084E0AB
:102E500090E0938382838BEA91E09583848316824A
:102E60008EE191E091838083B087A78312861186DB
:102E700086E0838788E00E943E05EFE6F1E088E087
:102E800090E09587848780E290E09787868784E644
:102E900090E0918B808B88EB9BE0A0E0B0E0838F8B
:102EA000948FA58FB68F128AC3A2D4A2E5A2F6A2F0
:102EB00084E690E0A0E0B0E087A390A7A1A7B2A726
:102EC00087E082AB83AB84ABFF90EF90DF90CF9035
:102ED0000895052E97FB1EF400940E94801757FD5D
:102EE00007D00E94961707FC03D04EF40C9480176D
:102EF00050954095309521953F4F4F4F5F4F089526
:102F000090958095709561957F4F8F4F9F4F089555
:102F1000EE0FFF1F0590F491E02D0994B7FF0C947C
:102F2000D7170E94D717821B930B0895A1E21A2E80
:102F3000AA1BBB1BFD010DC0AA1FBB1FEE1FFF1F5D
:102F4000A217B307E407F50720F0A21BB30BE40BAD
:102F5000F50B661F771F881F991F1A9469F76095F4
:102F60007095809590959B01AC01BD01CF010895AE
:102F7000FB01DC0102C001900D9241505040D8F796
:102F80000895F999FECF92BD81BDF89A992780B531
:102F90000895262FF999FECF1FBA92BD81BD20BD9D
:102FA0000FB6F894FA9AF99A0FBE019608950E9406
:102FB000E217A59F900DB49F900DA49F800D911DC9
:102FC00011240895A29FB001B39FC001A39F700D6B
:102FD000811D1124911DB29F700D811D1124911D21
:102FE0000895F894FFCF03040704F503FB03FF03E0
:102FF0002704270427040A041004140418041E04D8
:1030000027042204FD0825097809250978095809AB
:0830100094097809BD0ACA0AFF
:103018008080808080808080000000009702C60247
:1030280040026E0245024C025F0200000000870C5D
:10303800050307030403060305020702050707073C
:103048000404060404020602040106010405060538
:10305800050507050506070605040704040706070E
:0C3068000501070104060606050007002C
:00000001FF
