:100000000C946F010C9497010C9497010C94970138
:100010000C9497010C9497010C9497010C94970100
:100020000C9497010C9497010C94C7190C9488199F
:100030000C9497010C9497010C9497010C949701E0
:100040000C9497010C9497010C9497010C949701D0
:100050000C9497010C9497010C9497010C949617AB
:100060000C9497010C9497010C9497010C949701B0
:100070000C9497010C9497010C9497010C949701A0
:100080000C9497010C9497010C9497010C94970190
:100090000C94E0170C9497010C9497010C94970121
:1000A0000C9497010C9497010C9497011201000293
:1000B000FFFFFF405E048E021401010203010501EF
:1000C0000905A101150025013500450175019510AF
:1000D000050919012910810205012507463B017513
:1000E0000495016514093981426500950181012655
:1000F000FF0046FF000930093109320935750895BE
:100100000481020600FF0920950181020A2126953B
:10011000089102C012010002000000400D0FC10052
:10012000000101020001080331002E003000000030
:100130001A034E0075006C006C00570069006900DE
:1001400043006F006E002D00530000001A034E00A4
:1001500075006C006C0057006900690043006F0077
:100160006E002D005800000018034E0075006C0052
:100170006C007300740061006C006700690061002E
:10018000000018034E0075006C006C0073007400D2
:1001900061006C006700690061000000040309044D
:1001A0000902290001010080FA090400000203008D
:1001B0000000092111010001225600070502034039
:1001C00000100705810340000109029900040100A5
:1001D000A0FA0904000002FF5D01001121000101E5
:1001E00025811400000000130108000007058103A9
:1001F000200001070501032000080904010004FF95
:100200005D03001B210001010182400102201683D1
:1002100000000000000016030000000000000705B9
:100220008203200002070502032000040705830360
:10023000200040070503032000100904020001FF0D
:100240005D020009210001012284070007058403E3
:100250002000100904030000FFFD13040641000103
:1002600001030000000200090F0000030401000C5C
:10027000000000000000000000000000000000007E
:100280000000000000250028002B002E0031000097
:10029000000000240027002A002D00300004040480
:1002A000040403040502020202040302020202061D
:1002B00006060606060404020202040404080201FB
:1002C000104080401020408040800802040180409F
:1002D000201002011080102040402000951B1124A6
:1002E0001FBECFEFDAE0DEBFCDBF22E0A2E2B1E079
:1002F00001C01D92A335B207E1F711E0A0E0B1E023
:10030000E4E2F5E402C005900D92A232B107D9F7FC
:1003100011E0CFE6D1E004C02197FE010E945022F7
:10032000CE36D107C9F70E94991B0C9490220C94E9
:100330000000CF93DF9390E0FC01E454FD4F249143
:1003400083569D4FFC0184918823C1F090E0880F73
:10035000991FFC01E157FD4FC591D491FC01EF5766
:10036000FD4FA591B4919FB7F8943881822F809565
:1003700083238883EC91E22BEC939FBFDF91CF9195
:10038000089587EB92E00197F1F708958DEC91E0E5
:100390009093BC018093BB010895089585ED91E091
:1003A0009093BA018093B901089508952091B801FE
:1003B0002032A8F420914C02243079F4E091B80165
:1003C000F0E0E856FE4FDC018C9180838091B8010B
:1003D0008F5F8093B80180E0089582E0089581E006
:1003E000089590E0FC01EE59FD4F2491FC01E45486
:1003F000FD4F349183569D4FFC018491882391F0E9
:10040000211116C0E82FF0E0EE0FFF1FEF57FD4F50
:10041000A591B4918FB7F894662329F0EC91E32B62
:10042000EC938FBF08959C91E32FE095E923F8CFDB
:1004300021502F3038F7E22FF0E0EF5DFD4F0C94A4
:10044000502260025C02580254024E020202020272
:1004500002024A02460240023C0236020202300216
:100460009091C200977F9093C200CCCF9091C00032
:100470009F7D9093C000C6CF9091C0009F77F9CF29
:1004800090919000977F90939000BCCF90919000B6
:100490009F7DF9CF909190009F77F5CF909180004C
:1004A000977F90938000AECF909180009F7DF9CF91
:1004B000909180009F77F5CF94B59F7D94BDA2CF9A
:1004C00094B59F7794BD9ECF789484B5826084BDA7
:1004D00084B5816084BD85B5826085BD85B5816048
:1004E00085BDEEE6F0E0808181608083E1E8F0E0A8
:1004F0001082808182608083808181608083E0E8D7
:10050000F0E0808181608083E1E9F0E080818260B9
:100510008083808181608083E0E9F0E08081816078
:100520008083E1ECF0E08081846080838081826060
:100530008083808181608083E3ECF0E08081816052
:100540008083E0ECF0E0808182608083E2ECF0E088
:10055000808181608083EAE7F0E08081846080832D
:1005600080818260808380818160808380818068D7
:10057000808308950F931F938B019C019FB7F8947C
:10058000409128025091290260912A0270912B0219
:1005900086B5A89B06C08F3F21F04F5F5F4F6F4F1E
:1005A0007F4F9FBF762F652F542F4427480F511D33
:1005B000611D711D440F551F661F771F440F551F86
:1005C000661F771FFFB7F894809128029091290247
:1005D000A0912A02B0912B02E6B5A89B05C0EF3F7F
:1005E00019F00196A11DB11DFFBFBA2FA92F982F99
:1005F00088278E0F911DA11DB11D880F991FAA1F5D
:10060000BB1F880F991FAA1FBB1F841B950BA60B2E
:10061000B70B883E9340A105B105A0F20150110926
:100620002109310948515C4F6F4F7F4F011511056A
:100630002105310539F61F910F9108952FB7F894D0
:1006400060917C0170917D0180917E0190917F018C
:100650002FBF0895BF92CF92DF92EF92FF920F9338
:100660001F93CF93DF93A091B800B091BA0080910F
:10067000BC008A7B8093BC0064E672E0FB01C491FD
:100680004EEB52E0FA0134918FE992E0FC012491A3
:10069000222389F0C1119EC0E22FF0E0EE0FFF1F70
:1006A000EF57FD4FC591D4912FB7F894E88130955D
:1006B0003E2338832FBF05E612E0F801E490CFEB2C
:1006C000D2E0FE01D49020EA32E0F901F490FF205C
:1006D00091F0E11098C0EF2DF0E0EE0FFF1FEF5703
:1006E000FD4FE590F490CFB6F894F701B080D09428
:1006F000DB20D082CFBE10924C02E1E0E0932702D3
:1007000010922202FB016491FA014491FC01849150
:10071000882389F0611190C0E82FF0E0EE0FFF1FF1
:10072000EF57FD4F859194915FB7F894FC0160817C
:10073000462B40835FBFF8010491FE01C491F9018B
:100740002491222389F001112DC0E22FF0E0EE0F59
:10075000FF1FEF57FD4F859194912FB7F894FC013F
:100760003081C32BC0832FBF8091B9008E7F8093CF
:10077000B9008091B9008D7F8093B90088E480939F
:10078000B80085E48093BC00B093BA00A093B80091
:10079000DF91CF911F910F91FF90EF90DF90CF905D
:1007A000BF90089501500F3080F6E02FF0E0E55241
:1007B000FC4F0C9450220105FD04F904F504EF04EC
:1007C000A503A503A503EB04E704E104DD04D704B6
:1007D000A503D104C150CF3008F05ECFEC2FF0E07C
:1007E000EC50FC4F0C945022CD04C904C504C10444
:1007F000BB044C034C034C03B704B304AD04A9047D
:10080000A3044C039D04EFEFEE0DEF3008F063CF2F
:10081000F0E0E35FFB4F0C9450229904950491049F
:100820008D0487046B036B036B0383047F047904DB
:1008300075046F046B03690461506F3008F06CCF6E
:10084000E62FF0E0EA5DFB4F0C9450226504610452
:100850005D04590453048C038C038C034F044B0434
:10086000450441043B048C0335049091C200977FFA
:100870009093C20051CF9091C0009F7D9093C00093
:100880004BCF9091C0009F77F9CF90919000977FC8
:100890009093900041CF909190009F7DF9CF9091DF
:1008A00090009F77F5CF90918000977F9093800084
:1008B00033CF909180009F7DF9CF909180009F77FA
:1008C000F5CF94B59F7D94BD27CF94B59F7794BD08
:1008D00023CFE091C200E77FE093C200FCCEE0911D
:1008E000C000EF7DE093C000F6CEE091C000EF774E
:1008F000F9CFE0919000E77FE0939000ECCEE0919B
:100900009000EF7DF9CFE0919000EF77F5CFE09187
:100910008000E77FE0938000DECEE0918000EF7DF5
:10092000F9CFE0918000EF77F5CFE4B5EF7DE4BD3E
:10093000D2CEE4B5EF77E4BDCECEE091C200E77F42
:10094000E093C200A9CEE091C000EF7DE093C0002B
:10095000A3CEE091C000EF77F9CFE0919000E77F60
:10096000E093900099CEE0919000EF7DF9CFE09177
:100970009000EF77F5CFE0918000E77FE093800073
:100980008BCEE0918000EF7DF9CFE0918000EF7792
:10099000F5CFE4B5EF7DE4BD7FCEE4B5EF77E4BD00
:1009A0007BCE8091C200877F8093C200CECE8091A3
:1009B000C0008F7D8093C000C8CE8091C0008F772B
:1009C000F9CF80919000877F80939000BECE809178
:1009D00090008F7DF9CF809190008F77F5CF809137
:1009E0008000877F80938000B0CE809180008F7DD3
:1009F000F9CF809180008F77F5CF84B58F7D84BD4E
:100A0000A4CE84B58F7784BDA0CE0F931F93CF93D0
:100A1000C82F813228F080E0CF911F910F91089567
:100A20009FB7F894009128021091290220912A0280
:100A300030912B0286B5A89B06C08F3F21F00F5F37
:100A40001F4F2F4F3F4F9FBF322F212F102F0027B7
:100A5000080F111D211D311D000F111F221F331FF3
:100A6000000F111F221F331F0DC040914F025091E4
:100A700050026091510270915202452B462B472B38
:100A800009F06EC090914C029111EFCF81E08093FC
:100A90004C02809327029FEF90932602109225022A
:100AA0009C0F909324028093230280912302846AF6
:100AB0008093230280912202813009F4CAC085EE1E
:100AC0008093BC009FB7F8940091280210912902EE
:100AD00020912A0230912B0286B5A89B06C08F3F39
:100AE00021F00F5F1F4F2F4F3F4F9FBF322F212FFE
:100AF000102F0027080F111D211D311D000F111F80
:100B0000221F331F000F111F221F331F0DC04091E2
:100B10004F02509150026091510270915202452B48
:100B2000462B472B09F05CC090914C02913079F331
:100B3000809125028C1708F489C0CC2309F46BCF6F
:100B40004FEF4C0F50E04F5F5F4F62E072E08CE27E
:100B500092E00E9480228C2FCF911F910F910895D7
:100B60004FB7F8948091280290912902A0912A020F
:100B7000B0912B02E6B5A89B05C0EF3F19F0019696
:100B8000A11DB11D4FBF40914F0250915002609185
:100B9000510270915202BA2FA92F982F88278E0FD9
:100BA000911DA11DB11D880F991FAA1FBB1F880F82
:100BB000991FAA1FBB1F801B910BA20BB30B4817D9
:100BC00059076A077B0708F05DCF80914E0291E0DC
:100BD00090934D02882309F41ECF0E942A031BCF55
:100BE0004FB7F8948091280290912902A0912A028F
:100BF000B0912B02E6B5A89B05C0EF3F19F0019616
:100C0000A11DB11D4FBF40914F0250915002609104
:100C1000510270915202BA2FA92F982F88278E0F58
:100C2000911DA11DB11D880F991FAA1FBB1F880F01
:100C3000991FAA1FBB1F801B910BA20BB30B481758
:100C400059076A077B0708F06FCFBFCFC091250215
:100C500074CF109222029FB7F894409128025091CD
:100C6000290260912A0270912B0286B5A89B06C0CA
:100C70008F3F21F04F5F5F4F6F4F7F4F9FBF762FAA
:100C8000652F542F4427480F511D611D711D440FBE
:100C9000551F661F771F440F551F661F771F04C01F
:100CA0008091BC0083FF46C0809123028093BB00EB
:100CB00080914F0290915002A0915102B091520246
:100CC000892B8A2B8B2B61F32FB7F8948091280204
:100CD00090912902A0912A02B0912B02E6B5A89B1F
:100CE00005C0EF3F19F00196A11DB11D2FBF009166
:100CF0004F02109150022091510230915202BA2FAE
:100D0000A92F982F88278E0F911DA11DB11D880F27
:100D1000991FAA1FBB1F880F991FAA1FBB1F841BE7
:100D2000950BA60BB70B081719072A073B0708F006
:100D3000B7CF4BCF85ECC4CE0F931F93CF936132C7
:100D400028F081E0CF911F910F9108954FB7F8944B
:100D5000009128021091290220912A0230912B0241
:100D600096B5A89B06C09F3F21F00F5F1F4F2F4FE6
:100D70003F4FE62FC82F4FBF322F212F102F0027B4
:100D8000090F111D211D311D000F111F221F331FBF
:100D9000000F111F221F331F0DC040914F025091B1
:100DA00050026091510270915202452B462B472B05
:100DB00009F078C090914C029111EFCF82E08093BE
:100DC0004C0281E0809327028FEF809326021092DD
:100DD0002502E0932402EE2359F04FEF4E0F50E02E
:100DE0004F5F5F4F62EE71E082E092E00E948022EE
:100DF0001092230280912302CC0FC82BC0932302B0
:100E000080912202813009F4C3C085EE8093BC003A
:100E10009FB7F894409128025091290260912A02CC
:100E200070912B0286B5A89B06C08F3F21F04F5FC3
:100E30005F4F6F4F7F4F9FBF762F652F542F4427F3
:100E4000480F511D611D711D440F551F661F771FEF
:100E5000440F551F661F771F0DC080914F02909160
:100E60005002A0915102B0915202892B8A2B8B2BF8
:100E700009F056C080914C02823079F380912602AD
:100E80008F3F09F483C080912602803209F4F5C0B7
:100E900080912602803309F4ECC084E0CF911F9149
:100EA0000F9108954FB7F8948091280290912902EC
:100EB000A0912A02B0912B02F6B5A89B05C0FF3F76
:100EC00019F00196A11DB11D4FBF40914F025091E5
:100ED00050026091510270915202BA2FA92F982F9F
:100EE00088278F0F911DA11DB11D880F991FAA1F63
:100EF000BB1F880F991FAA1FBB1F801B910BA20B42
:100F0000B30B481759076A077B0708F053CF809146
:100F10004E0291E090934D028111B1C085E012CF55
:100F20002FB7F8948091280290912902A0912A026B
:100F3000B0912B02E6B5A89B05C0EF3F19F00196D2
:100F4000A11DB11D2FBF00914F02109150022091A1
:100F5000510230915202BA2FA92F982F88278E0F55
:100F6000911DA11DB11D880F991FAA1FBB1F880FBE
:100F7000991FAA1FBB1F841B950BA60BB70B081745
:100F800019072A073B0708F075CFC1CF80E0DACEFA
:100F9000109222029FB7F8944091280250912902A2
:100FA00060912A0270912B0286B5A89B06C08F3FE4
:100FB00021F04F5F5F4F6F4F7F4F9FBF762F652FA1
:100FC000542F4427480F511D611D711D440F551F9B
:100FD000661F771F440F551F661F771F04C080913F
:100FE000BC0083FF48C0809123028093BB008091A6
:100FF0004F0290915002A0915102B0915202892B60
:101000008A2B8B2B61F32FB7F89480912802909153
:101010002902A0912A02B0912B02E6B5A89B05C037
:10102000EF3F19F00196A11DB11D2FBF00914F0296
:10103000109150022091510230915202BA2FA92FE3
:10104000982F88278E0F911DA11DB11D880F991F04
:10105000AA1FBB1F880F991FAA1FBB1F841B950BBC
:10106000A60BB70B081719072A073B0708F0B7CFDD
:101070004ECF83E067CE85ECC9CE82E063CE0E947E
:101080002A0385E05FCE2091B801260F3327331F56
:1010900021323105FCF420914C022430C9F466233E
:1010A00081F0DC0190E080E0E091B8012D91AC018D
:1010B00048565E4FE40FF52FF11D208301968617E9
:1010C00098F38091B801680F6093B80180E00895AB
:1010D00082E0089581E0089510924C0281E08093AF
:1010E000270210922202E4E6F2E08491EEEBF2E0B5
:1010F0002491EFE9F2E09491992381F0811152C09B
:10110000E92FF0E0EE0FFF1FEF57FD4FA591B491CF
:101110008FB7F894EC91E22BEC938FBFE5E6F2E009
:101120008491EFEBF2E02491E0EAF2E094919923CC
:1011300081F081111FC0E92FF0E0EE0FFF1FEF5784
:10114000FD4FA591B4918FB7F894EC91E22BEC93FD
:101150008FBF8091B9008E7F8093B9008091B900D4
:101160008D7F8093B90088E48093B80085E48093F4
:10117000BC00089581508F30F0F6E82FF0E0ED5379
:10118000F74F0C9450224F094B09470943093D0979
:101190009B089B089B08390935092F092B0925094C
:1011A0009B081F0981508F3008F0AACFE82FF0E08C
:1011B000E452F74F0C9450221B09170913090F0929
:1011C000090980088008800805090109FB08F7085B
:1011D000F1088008EB088091C200877F8093C200ED
:1011E0008FCF8091C0008F7D8093C00089CF809188
:1011F000C0008F77F9CF80919000877F8093900017
:101200007FCF809190008F7DF9CF809190008F7774
:10121000F5CF80918000877F8093800071CF80918F
:1012200080008F7DF9CF809180008F77F5CF84B5D6
:101230008F7D84BD65CF84B58F7784BD61CF80916C
:10124000C200877F8093C20076CF8091C0008F7DDF
:101250008093C00070CF8091C0008F77F9CF8091CC
:101260009000877F8093900066CF809190008F7D63
:10127000F9CF809190008F77F5CF80918000877FA4
:101280008093800058CF809180008F7DF9CF80912E
:1012900080008F77F5CF84B58F7D84BD4CCF84B52A
:1012A0008F7784BD48CF0895E091C2018091C1013C
:1012B000E81730F4F0E0E45DFD4F808190E00895A0
:1012C0008FEF9FEF08959091C2018091C10198170F
:1012D00058F4E92FF0E0E45DFD4F208130E09F5F9E
:1012E0009093C201C90108952FEF3FEFFBCF80918A
:1012F000C1019091C201891B990B0895CF92DF9291
:10130000EF92FF920F931F93CF93DF938C01862F61
:101310006A012091BD012223F1F04115510589F0A8
:10132000C62FD72F7E01E40EF51E6991D801ED91ED
:10133000FC910190F081E02DC8010995CE15DF05E3
:10134000A1F7C601DF91CF911F910F91FF90EF9010
:10135000DF90CF900895642F972F0E944308F1CF1C
:10136000CF93DF931F92CDB7DEB7FC0169839091D5
:10137000BD01992301F19091C001903290F48091C8
:10138000BE01E82FF0E0EE51FE4F60838F5F809347
:10139000BE018093C00181E090E00F90DF91CF917A
:1013A000089581E090E09383828390E080E00F9045
:1013B000DF91CF910895CE0101960E94D601EBCF27
:1013C00081E090E0089581E0089584E090E0089540
:1013D00090E080E0089580934C0180932A0184B7C7
:1013E000877F84BF0FB6F894A895809160008861CC
:1013F00080936000109260000FBE80E830E020E033
:101400000FB6F89480936100209361000FBE809125
:10141000D8008F7E8093D8008091D7008160809320
:10142000D70084E082BF91E090932E018091D80094
:101430008E7F8093D8001092E2001092DA00109212
:10144000E1008091D8008F778093D8008091D800F8
:1014500080688093D8008091D8008F7D8093D800D9
:1014600019BC10924B0110922D0110922C01109278
:101470002B018091E0008B7F8093E0008091D80069
:1014800081608093D8001092E9008091EB008E7FFC
:101490008093EB008091ED008D7F8093ED00809133
:1014A000EB0081608093EB001092EC0082E380936C
:1014B000ED001092F0008091EE0087FFD8C090936D
:1014C000E9003091EC008091ED002091F00081FF67
:1014D00019C09091EB009E7F9093EB009091ED00EE
:1014E0009D7F9093ED009091EB0091609093EB00C5
:1014F0003093EC008093ED002093F0008091EE009B
:1015000087FFB5C082E08093E9003091EC009091B4
:10151000ED002091F00091FF19C08091EB008E7FCB
:101520008093EB008091ED008D7F8093ED008091A2
:10153000EB0081608093EB003093EC009093ED0022
:101540002093F0008091EE0087FF91C083E08093AC
:10155000E9003091EC008091ED002091F00081FFD6
:1015600019C09091EB009E7F9093EB009091ED005D
:101570009D7F9093ED009091EB0091609093EB0034
:101580003093EC008093ED002093F0008091EE000A
:1015900087FF6DC084E08093E9003091EC0090916A
:1015A000ED002091F00091FF19C08091EB008E7F3B
:1015B0008093EB008091ED008D7F8093ED00809112
:1015C000EB0081608093EB003093EC009093ED0092
:1015D0002093F0008091EE0087FF49C085E0809362
:1015E000E9003091EC009091ED002091F00091FF26
:1015F00019C08091EB008E7F8093EB008091ED000D
:101600008D7F8093ED008091EB0081608093EB00F3
:101610003093EC009093ED002093F0008091EE0069
:1016200087FF25C086E08093E9003091EC0080912F
:10163000ED002091F00081FF18C09091EB009E7F9B
:101640009093EB009091ED009D7F9093ED00909131
:10165000EB0091609093EB003093EC008093ED00F1
:101660002093F0008091EE0087FD1092E9008091B8
:10167000E1008E7F8093E1008091E20081608093A1
:10168000E2008091E20088608093E2008091E000B7
:101690008E7F8093E0008091D80080618093D80095
:1016A0000895FC01209128013091290162177307E8
:1016B00008F49B0140E02115310521F512C09091FD
:1016C0004B01992319F1953099F19091E80093FD20
:1016D00031C09091E80092FD25C09091E80090FD06
:1016E0004DC04111ECCF1EC0953011F19091E80032
:1016F00093FD20C09091E80092FD14C09091E80005
:1017000090FD1AC090914B019111EECF82E00895A7
:1017100080914B018823D1F3853051F08091E8000E
:1017200083FD08C08091E80082FFF2CF80E0089539
:1017300083E0089581E008956091F3008091F200C4
:10174000762F682F6034710520F00DC0603471056C
:1017500051F081918093F100215031096F5F7F4FEB
:101760002115310599F741E06034710509F040E039
:101770008091E8008E778093E8009DCF6091F30020
:101780008091F200762F682FEECFCF93DF93CDB705
:10179000DEB7AA970FB6F894DEBF0FBECDBF80911B
:1017A000F100809322018091F100809323019091B8
:1017B000F100909324019091F10090932501909174
:1017C000F100909326019091F10090932701909160
:1017D000F100909328019091F1009093290195B127
:1017E00021E0922795B990914C01992389F181309C
:1017F00079F590912201913AD9F02091E80023FDEA
:1018000041C08091E80083FF0AC08091E800877F93
:101810008093E8008091EB0080628093EB00AA96B1
:101820000FB6F894DEBF0FBECDBFDF91CF91089504
:101830008091E800877F8093E80064E170E087E3AF
:1018400091E00E94510B8091E8008B778093E80033
:101850008091E80083FFD5CF9091220180912301F0
:101860008A3078F6E82FF0E0E85CF34F0C945022D1
:101870008E0C420C010C420C010CF40EA90E010C52
:10188000890EC00C992309F4FAC2923009F0B9CF3D
:1018900080912401811127C0809126018F709FEFD4
:1018A000980F963008F0ADCF8093E9009091EB004F
:1018B00090FF19C090912301933009F42FC49091A7
:1018C000EB0090619093EB0021E030E001C0220F2B
:1018D0008A95EAF72093EA001092EA008091EB00E3
:1018E00088608093EB001092E9008091E800877F88
:1018F0008093E8008091220187FF06C0ACC28091EE
:101900004B01882309F47DCF8091E80080FFF7CF59
:101910008091E8008E778093E80073CF903809F4C7
:10192000FFC2923809F06DCF809126018F70873009
:1019300008F067CF8093E9008091EB0085FB882752
:1019400080F91092E9009091E800977F9093E80069
:101950008093F1001092F1008091E8008E778093DF
:10196000E8008091220187FF06C09AC280914B0156
:10197000882309F446CF8091E80080FFF7CFC8CFD5
:1019800091113FCF80912401823008F03ACF20910D
:10199000E800277F2093E80080932D012091220109
:1019A00027FF05C091C220914B01222359F02091BD
:1019B000E80020FFF8CF8091E8008E778093E80060
:1019C00080912D018111F8C28091E30087FDF4C25E
:1019D00081E080934B0180914C018111EFC282E044
:1019E0008093E9008091EB008E7F8093EB008091E3
:1019F000ED008D7F8093ED008091EB0081608093FE
:101A0000EB0080EC8093EC0082E38093ED00109279
:101A1000F0008091EE0087FF93C083E08093E9009F
:101A20004091EC002091ED003091F00021FF19C0B1
:101A30008091EB008E7F8093EB008091ED008D7F95
:101A40008093ED008091EB0081608093EB004093E8
:101A5000EC002093ED003093F0008091EE0087FFC2
:101A60006FC084E08093E9004091EC002091ED008C
:101A70003091F00021FF19C08091EB008E7F8093A0
:101A8000EB008091ED008D7F8093ED008091EB0065
:101A900081608093EB004093EC002093ED00309345
:101AA000F0008091EE0087FF4BC085E08093E90055
:101AB0004091EC002091ED003091F00021FF19C021
:101AC0008091EB008E7F8093EB008091ED008D7F05
:101AD0008093ED008091EB0081608093EB00409358
:101AE000EC002093ED003093F0008091EE0087FF32
:101AF00027C086E08093E9004091EC002091ED0042
:101B00003091F00021FF19C08091EB008E7F80930F
:101B1000EB008091ED008D7F8093ED008091EB00D4
:101B200081608093EB004093EC002093ED003093B4
:101B3000F0008091EE0087FF03C082E08093E9000F
:101B400080914C0144E150E0811102C040E450E03A
:101B500028E030E09F5F220F331F24173507D0F3B2
:101B6000892F8295807F826091E09093E900909127
:101B7000EB009E7F9093EB009091ED009D7F909302
:101B8000ED009091EB0091609093EB0091EC9093BD
:101B9000EC008093ED001092F0008091EE0087FF42
:101BA00030CE82E08093E9003091EC009091ED001E
:101BB0002091F00091FF19C08091EB008E7F8093FF
:101BC000EB008091ED008D7F8093ED008091EB0024
:101BD00081608093EB003093EC009093ED002093B4
:101BE000F0008091EE0087FF0CCE83E08093E90047
:101BF0003091EC009091ED002091F00091FF19C020
:101C00008091EB008E7F8093EB008091ED008D7FC3
:101C10008093ED008091EB0081608093EB00309326
:101C2000EC009093ED002093F0008091EE0087FF90
:101C3000E8CD84E08093E9003091EC009091ED00D4
:101C40002091F00091FF19C08091EB008E7F80936E
:101C5000EB008091ED008D7F8093ED008091EB0093
:101C600081608093EB003093EC009093ED00209323
:101C7000F0008091EE0087FFC4CD85E08093E900FD
:101C80003091EC009091ED002091F00091FF19C08F
:101C90008091EB008E7F8093EB008091ED008D7F33
:101CA0008093ED008091EB0081608093EB00309396
:101CB000EC009093ED002093F0008091EE0087FF00
:101CC000A0CD86E08093E9003091EC009091ED008A
:101CD0002091F00091FF19C08091EB008E7F8093DE
:101CE000EB008091ED008D7F8093ED008091EB0003
:101CF00081608093EB003093EC009093ED00209393
:101D0000F0008091EE0087FF7CCD81E08093E900B8
:101D100078CD903809F075CD8091E800877F809369
:101D2000E80080912D018093F1008091E8008E778A
:101D30008093E8008091220187FF06C0BBC080919C
:101D40004B01882309F45DCD8091E80080FFF7CF37
:101D5000DFCD9058923008F054CD809124019091BD
:101D600025018C3D23E0920709F4E3C0292F332796
:101D70002330310509F4B3C108F40DC12132310516
:101D800009F4A8C12232310509F03BCD86E590E087
:101D9000EEEBF0E02091E800277F2093E80020910F
:101DA0002801309129018217930708F49C0140E033
:101DB0002115310509F09EC014C080914B01882384
:101DC00009F44DC0853009F44AC08091E80083FDD4
:101DD00046C08091E80082FD9EC08091E80080FDB1
:101DE000CDC14111EACF97C091110BCD9091240143
:101DF0009F778091E3008078892B8093E300809126
:101E0000E800877F8093E8008091220187FF05C06A
:101E10002EC080914B01882349F08091E80080FF1B
:101E2000F8CF8091E8008E778093E8008091E800F9
:101E300080FFFCCF8091E30080688093E30083E023
:101E4000911101C082E080934B01DBCC80914B016A
:101E5000882309F4D6CC8091E80082FFF7CF8091E7
:101E6000E8008B7758CD80914B018823F9F280915F
:101E7000E80082FFF8CF8091E8008B77D5CF909172
:101E80002401913009F0BDCC91E0833009F090E05D
:101E900090932C0128CD80914B01882309F4B1CC7B
:101EA0008091E80082FFF7CFDACF80914B01882341
:101EB00009F4A7CC8091E80082FFF7CFD0CF209122
:101EC0004B01222309F47ECD2091E80022FFF7CFB9
:101ED0008091E8008B7772CD853009F28091E8001F
:101EE00083FDBDCF8091E80082FD15C08091E800A0
:101EF00080FD1DC180914B018111EECFB0CF80914B
:101F00004B01882309F4ABCF853009F4A8CF809129
:101F1000E80083FDA4CF8091E80082FFF0CF9FCF3F
:101F200080912B0190912C01992309F40CCD8260B2
:101F30000ACD83E08A838AE289835FB7F894DE0161
:101F4000139680E09EE041E207C0295C3F4F2D934D
:101F50003D938F5F843191F0E92FF0E0409357007B
:101F6000E49180FF03C0E295EF709F5FEF702E2F2A
:101F700030E0EA3050F7205D3F4FE9CF5FBF8091FE
:101F8000E800877F8093E8006AE270E0CE01019666
:101F90000E94510B64CF2130310509F4B6C02230C4
:101FA000310509F02ECC80912A018111E2C089E22D
:101FB00090E0E0EAF1E0EECE84E00BCD83E08093A8
:101FC000E9008091EB008E7F8093EB008091ED0023
:101FD0008D7F8093ED008091EB0081608093EB001A
:101FE00081EC8093EC0082E28093ED001092F0008F
:101FF0008091EE0087FFA4CD84E08093E9004091BA
:10200000EC002091ED003091F00021FF19C080918B
:10201000EB008E7F8093EB008091ED008D7F8093AD
:10202000ED008091EB0081608093EB004093EC0029
:102030002093ED003093F0008091EE0087FF80CD7B
:1020400085E08093E9004091EC002091ED00309113
:10205000F00021FF19C08091EB008E7F8093EB0090
:102060008091ED008D7F8093ED008091EB00816089
:102070008093EB004093EC002093ED003093F00050
:102080008091EE0087FF5CCD86E08093E90040916F
:10209000EC002091ED003091F00021FF19C08091FB
:1020A000EB008E7F8093EB008091ED008D7F80931D
:1020B000ED008091EB0081608093EB004093EC0099
:1020C0002093ED003093F0008091EE0087FF38CD33
:1020D00083E034CD89E090E0E2EBF1E05BCE99273C
:1020E0008130910509F45EC008F459C08230910531
:1020F00009F44CC0039709F084CBE6E2F1E0849147
:1021000090E0009709F47DCB45CE80912A018111A2
:1021100009C082E190E0E4E1F1E03CCE8091EB0087
:102120008062DFCB82E190E0ECEAF0E033CE809198
:10213000F3009091F2008927982789278034910530
:1021400068F444914093F100319621503109019691
:102150002115310519F08034910599F741E080345B
:10216000910509F040E08091E8008E778093E800C7
:102170001FCE89E990E0E9ECF1E00CCE8091F3000C
:102180009091F200892798278927E8CF80912A012A
:10219000ECE4F1E08111B3CFE0E3F1E0B0CFECE9A2
:1021A000F1E0ADCF80912A01E2E8F1E08111A7CF03
:1021B000E8E6F1E0A4CF4F925F926F927F928F9208
:1021C0009F92AF92BF92CF92DF92EF92FF920F93C6
:1021D0001F93CF93DF9300D000D000D0CDB7DEB7F0
:1021E0008090C5019090C601D4010D911C9181E0B1
:1021F0008093BD0182E58093BF011092BE011092D1
:10220000C001D801ED91FC910190F081E02D6AEFC1
:10221000C80109956091C0018091BF010E949C0690
:102220001092BE011092C0011092BD0181114FC0E9
:102230000E94C10186E00E9405051092C2018093B0
:10224000C101C82ED12CC114D10409F440C0FE0133
:1022500031965F01F12CE12C0E941E03D8011896E3
:102260006D937D938D939C931B9714C00E941E03C6
:10227000F801408451846284738464197509860965
:1022800097094480558066807780641575058605BA
:10229000970598F4D801ED91FC910284F385E02D27
:1022A000C801099597FDE2CFF50181935F01FFEF2A
:1022B000EF1AFF0ACE14DF0479F6F6E0EF1207C03A
:1022C0008B81843A09F44EC082E090E002C090E035
:1022D00080E0D40113969C938E931297E091C301F2
:1022E000F091C4010280F381E02D83EC91E0099527
:1022F000E091C501F091C6012281338182179307D5
:10230000E1F00197C1F080E026960FB6F894DEBFA9
:102310000FBECDBFDF91CF911F910F91FF90EF9036
:10232000DF90CF90BF90AF909F908F907F906F90F5
:102330005F904F900895232B31F39F012B5F3F4F08
:1023400085E1D9011D928A95E9F786E08483E091C1
:10235000C301F091C4010190F081E02D83EC91E084
:102360000995D2CF8C81803209F0AECF8D81811159
:1023700006C09E81911103C083E090E0AACF9981AD
:102380002A81923068F0211115C08130E1F081116D
:102390009BCF8E81833109F097CF89E090E099CF70
:1023A000211108C0843098F72E81213071F784E024
:1023B00090E08FCF813059F78E81823109F084CF40
:1023C00088E090E086CF8E818330B9F7992341F081
:1023D000913049F0933009F077CF87E090E079CFE2
:1023E00085E090E076CF86E090E073CF0F931F9367
:1023F000CF93DF9300D000D000D01F92CDB7DEB7CF
:102400008091860190914C01992309F4CFC08823D3
:1024100029F0809139018160809339018091870191
:10242000882329F08091390182608093390180915D
:102430008801882329F080913901846080933901D3
:1024400080918901882329F08091390188608093E7
:10245000390120E830E030933E0120933D018FE7C1
:102460009FEF9093400180933F013093420120936E
:10247000410190934401809343018091920188230C
:1024800029F0809139018061809339018091930115
:10249000882329F0809139018062809339018091ED
:1024A0009401882329F08091390180648093390157
:1024B00080919501882329F080913901806880936B
:1024C000390180918A01882329F080913A01806145
:1024D00080933A0180918B01882329F080913A0101
:1024E000806280933A0180918C01882329F0809149
:1024F0003A01806480933A0180918D01882329F00C
:1025000080913A01806880933A0180918E018823FE
:1025100029F080913A01816080933A0180918F0186
:10252000882329F080913A01826080933A0180915A
:102530009601882329F080913A01846080933A01C2
:1025400080919001882319F08FEF80933B01809157
:102550009101882319F08FEF80933C0180914B010A
:1025600044E150E007E311E0843009F4A7C0809112
:102570004B01882381F01091E9001F708091EC00DD
:1025800080FD10681092E9008091E80083FDE1C0B1
:102590001F701093E90027960FB6F894DEBF0FBEA8
:1025A000CDBFDF91CF911F910F910895882309F43A
:1025B000C4C080918901882309F4CEC081E0809352
:1025C000310180E88093320180933301809334019C
:1025D0008093350180912F019091300120918A01E3
:1025E000222309F439C1846020918B01222309F44C
:1025F00031C1826020918C01222309F429C18860B5
:1026000020918D01222309F4F9C0816020918E016F
:10261000222309F4F8C0806120918F01222309F45C
:10262000F7C0806220919001222309F4F6C08064F3
:1026300020919101222309F4F5C080682091920134
:10264000222309F4F4C0926020919301222309F41B
:10265000F3C0916020919601222309F4F2C09061A9
:1026600020919701222309F4F1C0906220919401F6
:10267000222309F4BBC09460209195012111BCC0B4
:10268000977F9093300180932F0180914B0184308C
:1026900009F06DCF82E08093E9008091E80082FF2D
:1026A00009C08091E80085FDE7C08091E8008B7744
:1026B0008093E80048E050E00FE211E081E0809371
:1026C000E9008091E80080FF52CF8BB190E289272A
:1026D0008BB96091E4007091E50025E68091EC00F3
:1026E00080FF48C08091E80080FD48C080914B0188
:1026F000882381F0853071F08091EB0085FD0AC060
:102700008091E4009091E5008617970739F32150F6
:10271000BC0121F78091E8008E778093E80070E09B
:1027200060E0C8010E94892280914C01882309F44D
:102730001ECF84E1F80181831ACF8091870188231D
:1027400009F493C080918901882309F405C183E0CD
:1027500036CF0E94C50B1CCF80918701882309F4D6
:102760007DC080918801811103C01092310129CF71
:1027700085E025CF8091E80082FFB8CFFA01D8012B
:102780008091E80085FD9CC08091E8008E77809361
:10279000E8006091E4007091E50025E68091EC008E
:1027A00080FF1FC08091E80080FDEACF80914B013F
:1027B000882309F4AFCF853009F4ACCF8091EB00CA
:1027C00085FDA8CF8091E4009091E50086179707DA
:1027D00029F32150BC0109F49DCF8091EC0080FDCC
:1027E000E1CF8091E80082FFE1CFCACF9B7F2091AB
:1027F0009501222309F444CF986043CF8E7F209126
:102800008E01211108CF8F7E20918F01211109CFD8
:102810008F7D2091900121110ACF8F7B2091910112
:1028200021110BCF8F772091920121110CCF9D7F29
:102830002091930121110DCF9E7F209196012111AE
:102840000ECF9F7E2091970121110FCF9F7D0ECF3C
:10285000877FD6CE8D7FCECE8B7FC6CE80918801EE
:10286000882309F482CF87E0AACE8091880188234B
:1028700009F478C086E0A3CE4091E4005091E500D1
:1028800025E68091EC0080FF22C08091E80080FD69
:1028900022C080914B01882309F407CF853009F4C9
:1028A00004CF8091EB0085FD00CF8091E4009091F2
:1028B000E5008417950729F32150AC0111F7F5CEF7
:1028C0008D918093F100319709F05ACF23CF8091F9
:1028D000E80082FFDECF67E070E0FE013196809174
:1028E000E80085FD32C08091E8008B778093E80096
:1028F0004091E4005091E50025E68091EC0080FFD6
:102900001FC08091E80080FDEACF80914B018823B1
:1029100009F4CBCE853009F4C8CE8091EB0085FD5B
:10292000C4CE8091E4009091E5008417950729F3C7
:102930002150AC0109F4B9CE8091EC0080FDE1CFCB
:102940008091E80082FFE1CFCACF8091F1008193AE
:102950006150710921F6A9CE80918801811108CFBB
:1029600084E02DCE80918901882311F082E027CE6A
:1029700088E025CE0F931F93CF93DF93E091C5019D
:10298000F091C601C081D18101E00093BD0112E543
:102990001093BF011092BE011092C001E881F9812D
:1029A0000190F081E02D60EFCE010995E881F98179
:1029B0000190F081E02D65E5CE0109956091C0019F
:1029C0008091BF010E949C061092BE011092C0012E
:1029D0001092BD01811134C06AE070E080E090E0A7
:1029E0000E94BA020093BD011093BF01E881F981F2
:1029F0000190F081E02D6BEFCE010995E881F9811E
:102A00000190F081E02D60E0CE0109956091C00158
:102A10008091BF010E949C061092BE011092C001DD
:102A20001092BD0181110CC064E170E080E090E083
:102A30000E94BA02DF91CF911F910F910C94DB108D
:102A4000E091C501F091C6011382128280E0DF910E
:102A5000CF911F910F9108952F923F924F925F92C5
:102A60006F927F928F929F92AF92BF92CF92DF929E
:102A7000EF92FF920F931F93CF93DF93CDB7DEB703
:102A800064970FB6F894DEBF0FBECDBF4C010E9415
:102A9000C101D4011296ED91FC9100811181EE24C7
:102AA000E394E092BD0192E5F92EF092BF011092FD
:102AB000BE011092C001D801ED91FC910190F0810E
:102AC000E02D6EEFC8010995D801ED91FC910190C0
:102AD000F081E02D63E0C80109956091C00180910B
:102AE000BF010E949C061092BE011092C00110927C
:102AF000BD0181110EC10E94C101FE013196FC8B06
:102B0000EB8B88E09E01275F3F4F3A8B298BD901E1
:102B1000E82F1D92EA95E9F7AB89BC891D928A9549
:102B2000E9F73324339482E5282ED4011296ED91EF
:102B3000FC91008111813092BD012092BF01109261
:102B4000BE011092C001D801ED91FC910190F0817D
:102B5000E02D60E0C80109956091C0018091BF013E
:102B60000E949C061092BE011092C0011092BD01FD
:102B70008111FEC00E94C10188E00E9405051092EB
:102B8000C2018093C101C82ED12CC114D10409F413
:102B9000EFC0FE0139965F01F12CE12C0E941E036B
:102BA000D80118966D937D938D939C931B9714C0B9
:102BB0000E941E03F8014084518462847384641966
:102BC0007509860997094480558066807780641569
:102BD00075058605970598F4D801ED91FC9102845E
:102BE000F385E02DC801099597FDE2CFF5018193AA
:102BF0005F01FFEFEF1AFF0ACE14DF0479F6F8E069
:102C0000EF12B6C00E94C101D4011296ED91FC9161
:102C1000008111813092BD012092BF011092BE014E
:102C20001092C001D801ED91FC910190F081E02D4E
:102C300060E0C80109956091C0018091BF010E94C8
:102C40009C061092BE011092C0011092BD0181112C
:102C50008FC00E94C10188E00E9405051092C20148
:102C60008093C101C82ED12CC114D10409F480C0B5
:102C7000AB88BC88F12CE12C0E941E03F801608710
:102C800071878287938714C00E941E03F8012085F4
:102C9000318542855385621B730B840B950B248110
:102CA000358146815781621773078407950798F429
:102CB000D801ED91FC910284F385E02DC8010995BE
:102CC00097FDE2CFD5018D935D01BFEFEB1AFB0AB3
:102CD000CE14DF0489F6F8E0EF124AC099818985A5
:102CE00098139FC09A858A8198139BC08F85811104
:102CF00004C08889882309F49BC081E0F40184839F
:102D00000280F381E02D8481883008F48DC081E059
:102D100030C0D4011296ED91FC9100811181E092B6
:102D2000BD01F092BF01D801ED91FC910190F081BD
:102D3000E02D60E0C80109956091C0018091BF015C
:102D40000E949C061092BE011092C0011092BD011B
:102D500081110EC00E94C10186E00E9405051092FB
:102D6000C2018093C101C82ED12CC114D104D1F469
:102D700080E064960FB6F894DEBF0FBECDBFDF9142
:102D8000CF911F910F91FF90EF90DF90CF90BF9068
:102D9000AF909F908F907F906F905F904F903F90FB
:102DA0002F9008959E012F5F3F4F3C8B2B8B590135
:102DB000F12CE12C0E941E03D80118966D937D938F
:102DC0008D939C931B9714C00E941E03F8014084AE
:102DD0005184628473846419750986099709448053
:102DE000558066807780641575058605970598F48B
:102DF000D801ED91FC910284F385E02DC80109957D
:102E000097FDE2CFD5018D935D01BFEFEB1AFB0A71
:102E1000CE14DF0479F6F6E0EF12AACF0E94C101CA
:102E200070CE0E94C10181CE88E0848381E0A1CF71
:102E3000D40114961C9281E09CCF1F93CF93DF9313
:102E400085ED8093BC0040914F02509150026091FB
:102E5000510270915202495F5F4F6F4F7F4F83E085
:102E600076956795579547958A95D1F70CC08091CF
:102E70004F0290915002A0915102B0915202892BC1
:102E80008A2B8B2B51F48091BC0084FDF0CF1092E3
:102E90004C02DF91CF911F910895411551056105B5
:102EA000710549F085E38A95F1F700004150510919
:102EB00061097109E8CF80914E02C1E0C0934D02D3
:102EC000882339F3D091B8001091BA008091BC00EA
:102ED0008A7B8093BC0060E082E00E94F10160E0A8
:102EE00083E00E94F10110924C02C09327021092DD
:102EF000220261E082E00E94F10161E083E00E9431
:102F0000F1018091B9008E7F8093B9008091B90062
:102F10008D7F8093B90088E48093B80085E4809326
:102F2000BC001093BA00D093B800B3CF1F920F9299
:102F30000FB60F9211242F933F938F939F93AF93CC
:102F4000BF9380917C0190917D01A0917E01B09111
:102F50007F0130917B0123E0230F2D3768F126E8B4
:102F6000230F0296A11DB11D20937B0180937C014C
:102F700090937D01A0937E01B0937F018091280200
:102F800090912902A0912A02B0912B020196A11DD5
:102F9000B11D8093280290932902A0932A02B09336
:102FA0002B02BF91AF919F918F913F912F910F90E5
:102FB0000FBE0F901F9018950196A11DB11DD4CF83
:102FC0001F920F920FB60F9211242F933F934F939E
:102FD0005F936F937F938F939F93AF93BF93EF9381
:102FE000FF93E091B900E87FE93C08F0F8C0F0E019
:102FF000E450F84E0C9450226619EF18EF18EF18B1
:10300000EF18EF18EF18EF180F19EF18EF18EF1867
:10301000EF18EF18EF18EF180F19EF18EF18EF1857
:10302000EF18EF18EF18EF185719EF18EF18EF18FF
:10303000EF18EF18EF18EF180019EF18EF18EF1846
:10304000EF18EF18EF18EF185719EF18EF18EF18DF
:10305000EF18EF18EF18EF184219EF18EF18EF18E4
:10306000EF18EF18EF18EF180619EF18EF18EF1810
:10307000EF18EF18EF18EF182119EF18EF18EF18E5
:10308000EF18EF18EF18EF180319EF18EF18EF18F3
:10309000EF18EF18EF18EF181519EF18EF18EF18D1
:1030A000EF18EF18EF18EF186919EF18EF18EF186D
:1030B000EF18EF18EF18EF187619EF18EF18EF1850
:1030C000EF18EF18EF18EF187619EF18EF18EF1840
:1030D000EF18EF18EF18EF187619EF18EF18EF1830
:1030E000EF18EF18EF18EF187619EF18EF18EF1820
:1030F000EF18EF18EF18EF184419EF18EF18EF1842
:10310000EF18EF18EF18EF18EC18EF18EF18EF188A
:10311000EF18EF18EF18EF184419EF18EF18EF1821
:10312000EF18EF18EF18EF18EC18EF18EF18EF186A
:10313000EF18EF18EF18EF182619EF18EF18EF181F
:10314000EF18EF18EF18EF18C518EF18EF18EF1871
:10315000EF18EF18EF18EF18C518EF18EF18EF1861
:10316000EF18EF18EF18EF18DA18EF18EF18EF183C
:10317000EF18EF18EF18EF180919EF18EF18EF18FC
:10318000EF18EF18EF18EF18091984E080934C023C
:10319000109259011092B801E091B901F091BA0171
:1031A00009958091B801811105C081E08093B80133
:1031B00010929801E091590181E08E0F809359019E
:1031C000F0E0E856FE4F80818093BB00909159015A
:1031D0008091B801981738F185E88093BC00FF9181
:1031E000EF91BF91AF919F918F917F916F915F917F
:1031F0004F913F912F910F900FBE0F901F901895F8
:1032000080E2809326020E941D17E9CF88E3809315
:10321000260285EC8093BC0010924C02E0CF809196
:1032200023028093BB0085ECD8CFE091250281E09A
:103230008E0F809325028091BB00F0E0EE5FFD4F82
:1032400080839091250280912402C4CF85EC8093E5
:10325000BC0010924C0280917A01803230F4E091EF
:103260007A01F0E0E65AFE4F108260917A0170E038
:10327000E091BB01F091BC018AE591E009951092C3
:103280007A01ADCF80E3BDCF80917A01803208F022
:10329000A3CFE0917A0181E08E0F80937A01809133
:1032A000BB00F0E0E65AFE4F808385EC96CF90910C
:1032B000250280912402981700F180912702811144
:1032C000A2CF81E08093220284EAA4CF109226024A
:1032D0009ACFE091250281E08E0F809325028091A4
:1032E000BB00F0E0EE5FFD4F8083E7CF83E080938B
:1032F0004C0210927A0185EC70CFE091250281E0BA
:103300008E0F80932502F0E0EE5FFD4F808189CF24
:103310001F920F920FB60F9211242F933F934F934A
:103320005F936F937F938F939F93AF93BF93CF934D
:10333000EF93FF93C091E900CF708091EC0080FD86
:10334000C0681092E9008091F000877F8093F000C0
:1033500078940E94C50B1092E9008091F00088607B
:103360008093F000CF70C093E900FF91EF91CF916F
:10337000BF91AF919F918F917F916F915F914F918D
:103380003F912F910F900FBE0F901F9018951F9295
:103390000F920FB60F9211242F933F938F939F9309
:1033A0008091E10082FF04C08091E20082FD76C13D
:1033B0008091DA0080FF04C08091D80080FD5AC15E
:1033C0008091E10080FF04C08091E20080FD6CC12B
:1033D0008091E10084FF2AC08091E20084FF26C032
:1033E00080E189BD82E189BD09B400FEFDCF8091F5
:1033F000D8008F7D8093D8008091E1008F7E8093EC
:10340000E1008091E2008F7E8093E2008091E200F3
:1034100081608093E20080912D01811159C18091DA
:10342000E30087FD5BC181E080934B018091E10067
:1034300083FF17C18091E20083FF13C18091E100F7
:10344000877F8093E10082E080934B0110922D01F1
:103450008091E1008E7F8093E1008091E2008E7F79
:103460008093E2008091E20080618093E2001092FC
:10347000E9008091EB008E7F8093EB008091ED005E
:103480008D7F8093ED008091EB0081608093EB0055
:103490001092EC0082E38093ED001092F000809196
:1034A000EE0087FFD9C081E08093E9003091EC0005
:1034B0008091ED002091F00081FF19C09091EB0008
:1034C0009E7F9093EB009091ED009D7F9093ED0097
:1034D0009091EB0091609093EB003093EC0080931F
:1034E000ED002093F0008091EE0087FFB5C082E0F0
:1034F0008093E9003091EC009091ED002091F00074
:1035000091FF19C08091EB008E7F8093EB0080913A
:10351000ED008D7F8093ED008091EB0081608093C2
:10352000EB003093EC009093ED002093F00080913D
:10353000EE0087FF91C083E08093E9003091EC00BA
:103540008091ED002091F00081FF19C09091EB0077
:103550009E7F9093EB009091ED009D7F9093ED0006
:103560009091EB0091609093EB003093EC0080938E
:10357000ED002093F0008091EE0087FF6DC084E0A5
:103580008093E9003091EC009091ED002091F000E3
:1035900091FF19C08091EB008E7F8093EB008091AA
:1035A000ED008D7F8093ED008091EB008160809332
:1035B000EB003093EC009093ED002093F0008091AD
:1035C000EE0087FF49C085E08093E9003091EC0070
:1035D0009091ED002091F00091FF19C08091EB00D7
:1035E0008E7F8093EB008091ED008D7F8093ED00C6
:1035F0008091EB0081608093EB003093EC0090931E
:10360000ED002093F0008091EE0087FF25C086E05A
:103610008093E9003091EC008091ED002091F00062
:1036200081FF18C09091EB009E7F9093EB009091EA
:10363000ED009D7F9093ED009091EB009160909351
:10364000EB003093EC008093ED002093F00080912C
:10365000EE0087FD1092E9008091F0008860809371
:10366000F0009F918F913F912F910F900FBE0F907F
:103670001F9018958091DA008E7F8093DA008091F8
:10368000D90080FF27C080E189BD82E189BD09B4EE
:1036900000FEFDCF81E080934B0192CE8091E1004E
:1036A0008B7F8093E10084CE8091E2008E7F8093B7
:1036B000E2008091E20080618093E2008091D80076
:1036C00080628093D80019BC85E080934B0180CE46
:1036D00084E0AACE19BC10924B0172CE83E0A4CE36
:1036E000EDE4F1E01382128288EE93E0A0E0B0E016
:1036F00084839583A683B78383E191E0918380835C
:103700000895E3ECF1E08DE491E0968385831086E3
:10371000178286E0818788EC91E09383828314820C
:103720008BE091E09183808308950E94701B0C943C
:10373000811B0E94640285E00E9499018AE00E9438
:10374000990189E00E94990188E00E94990186E030
:103750000E9499018CE00E9499018BE00E949901DE
:10376000209A559A6E9A1092C2011092C10110923D
:10377000BE011092C0010E946C080E94CE010E94FE
:10378000C6018BB190E289278BB985B191E0892779
:1037900085B9C0E409C06CE271E080E090E00E946D
:1037A000BA028EB18C278EB90E94BA14882399F37D
:1037B000E091C301F091C4010280F381E02D83EC1C
:1037C00091E00995E091C501F091C6012281338114
:1037D0008217930709F4F3C0019709F4EDC00E9422
:1037E000BA1483B18095881F8827881F80930001B1
:1037F0000E94EB097894EE24E394D2E16D2E1AEB4B
:10380000212E312C412C512C00E8702E11E0C2E504
:10381000FC2E86B186FB882780F98E258093850152
:1038200083B186FB882780F98E258093840183B13C
:1038300085FB882780F98E258093830183B182954B
:1038400081708E258093820189B18095881F882799
:10385000881F8093800189B186FB882780F98E2597
:103860008093810183B18095881F8827881F90915C
:103870000001891781F08091E00081608093E00071
:1038800088E19CE00FB6F894A895809360000FBE85
:1038900090936000FFCFE6E8F1E0262D11922A9583
:1038A000E9F77092060170920501E091C301F09171
:1038B000C4010280F381E02D83EC91E00995E09151
:1038C000C501F091C601228133818217930709F463
:1038D00037C1019709F431C1E6E8F1E0262D1192D4
:1038E0002A95E9F77092060170920501E091C501F1
:1038F000F091C601C081D1811093BD01F092BF014A
:103900001092BE011092C001E881F9810190F0810E
:10391000E02D60EFCE010995E881F9810190F081F9
:10392000E02D65E5CE0109956091C0018091BF0150
:103930000E949C061092BE011092C0011092BD011F
:10394000811170C16AE070E080E090E00E94BA02EC
:103950001093BD01F092BF01E881F9810190F081DF
:10396000E02D6BEFCE010995E881F9810190F0819E
:10397000E02D60E0CE0109956091C0018091BF010A
:103980000E949C061092BE011092C0011092BD01CF
:10399000811148C164E170E080E090E00E94BA02C9
:1039A0000E94DB100E94F61180E090E0892B09F460
:1039B00030CF0E9400002BCF232B09F410CF6F01D2
:1039C00025E0C20ED11CB480C081D18181E08093FA
:1039D000BD0182E58093BF011092BE011092C0012B
:1039E000E881F9810190F081E02D60E0CE01099538
:1039F0006091C0018091BF010E949C061092BE019F
:103A00001092C0011092BD018111E9CE0E94C10146
:103A10008B2D30E23B1508F480E20E9405051092E0
:103A2000C2018093C101E82EF12C10E000E0E11406
:103A3000F10459F10E941E03688779878A879B8762
:103A400013C00E941E03488459846A847B846419CD
:103A50007509860997094C805D806E807F806415AA
:103A600075058605970588F4E881F9810284F38558
:103A7000E02DCE01099597FDE4CFF60181936F010A
:103A80000F5F1F4FE016F106A9F6B012A8CEE09125
:103A9000C501F091C6018481DF011596882309F4E0
:103AA0009ECE8A0F9B2F911D2FEF30E04D91342B2E
:103AB0002423A817B907D1F7332309F490CE2F3F59
:103AC00009F48DCE8EB11EB88091C7018111B8C0A6
:103AD000E091C501F091C6019581292F2F7344E033
:103AE000249F90011124209304018681282F2F7395
:103AF00044E0249F90011124209303012781907CAE
:103B0000969596959695807C829586958770892B5B
:103B1000422F407850E0440F452F441F550B842B13
:103B2000E8E08E02C001112480930201822F880FE9
:103B3000880F880F8093010154CE232B09F4CCCE3B
:103B40005F0135E0A30EB11C0481C081D1811093C7
:103B5000BD01F092BF011092BE011092C001E88138
:103B6000F9810190F081E02D60E0CE01099560912E
:103B7000C0018091BF010E949C061092BE0110926C
:103B8000C0011092BD018111A7CE0E94C101802FFA
:103B9000013208F080E20E9405051092C201809374
:103BA000C101882E912CD12CC12CC814D90410F538
:103BB0000E941E03688779878A879B87E881F9813D
:103BC0000284F385E02DCE01099597FF32C00E9453
:103BD0001E03288539854A855B85621B730B840B20
:103BE000950B2C813D814E815F816217730784079D
:103BF000950720F3C091C501D091C6010C116CCE80
:103C00002C81AE014B5F5F4FFA018FEF90E030E007
:103C1000BF01641B750B62177307ECF46191962B5F
:103C20008623F6CFE091C501F091C601138212827E
:103C3000B9CEF50181935F01FFEFCF1ADF0AB5CF4F
:103C4000858180930401878180930301868180931D
:103C5000020180856FCF992309F43ECE8F3F09F48E
:103C60003BCE0091C70180918501882309F4ACC047
:103C700080918401882309F44EC3002309F426C3EC
:103C80002C85822F80958170809386018B8590E0B2
:103C9000AC01042E452F000C441F550B000C441F93
:103CA000551F4095509541704093870130E0359500
:103CB000279520953095217020938801880F892FB2
:103CC000881F990BE1E08E27817080938901E09134
:103CD000C501F091C60120918301211177C2809125
:103CE0008201811154C220918101002309F4C3C1D2
:103CF000838590E0AC01559547955595479540953E
:103D0000509541704093920195958795959587952B
:103D100095958795959587958095909581708093D9
:103D20009301848590E0AC0155954795559547954D
:103D300055954795409550954170BC01062E672FCB
:103D4000000C661F770B000C661F771F609570953F
:103D50006170DC01B595A795B595A795B595A79523
:103D6000B595A795A095B095A170959587959595D2
:103D70008795959587959595879595958795809540
:103D80009095382F317021116DC1A0938A016093F5
:103D90008B0140938C0130938D01809180018111C2
:103DA00036C1002309F431C1838590E0959587954C
:103DB000959587959595879580959095817009F44F
:103DC000F1CD10939601EECD3E812D81DF80002351
:103DD00009F4EEC08C85982F909591709093860190
:103DE0004B8550E0BA01062E672F000C661F770B3B
:103DF000000C661F771F6095709561706093870156
:103E000090E0959587958095909581708093880135
:103E1000CA01880F892F881F990BE1E08E278093B4
:103E20008901422F50E08091040190E0BC016D5F58
:103E30007F4F6417750724F0039748175907ECF470
:103E400030E050E040E022323105410551050CF4EC
:103E5000ABC02D3D3105410551050CF0A7C02252E4
:103E6000310941095109AFEFB0E00E941722A201C8
:103E700091010E943122209306012D2D30E0809186
:103E8000030190E0AC014D5F5F4F4217530724F0F0
:103E900003972817390744F58D2D90E0B0E0A0E096
:103EA00082329105A105B1050CF456C08D3D9105F6
:103EB000A105B1050CF04CC09C01AD0122523109A5
:103EC00041095109A2E0BFEF0E9459222BEB30E0DB
:103ED00040E050E00E943122DA01C90181509F4F39
:103EE000AF4FBF4F809305010023D9F18B8590E040
:103EF0009C013595279535952795359527953595C9
:103F000027953595279520953095217020938E0122
:103F10009595879580959095817080938F018C857C
:103F200090E09C01220F232F221F330B41E0242716
:103F30002093900195958795959587958095909577
:103F4000817080939101E091C501F091C601CBCEC3
:103F500080E090E0DC01C6CF8FEF90E0A0E0B0E021
:103F6000C1CF898590E09C0135952795359527959A
:103F70003595279535952795359527952095309535
:103F8000217020938E0195958795809590958170ED
:103F900080938F018A8590E09C01220F232F221F9E
:103FA000330BF1E02F27C4CF20E065CF2FEF63CF95
:103FB0008A85982F9095917090938601498550E05D
:103FC000BA01062E672F000C661F770B000C661FC8
:103FD000771F6095709561706093870190E095956B
:103FE000879580959095817080938801CA01880F8C
:103FF000892F881F990B41E0842780938901220F24
:10400000220FD32EDD0CDD0C0CCF8185CECE00230C
:1040100009F49BC08385282F30E0A901042E452F89
:10402000000C441F550B000C441F551F4095509524
:1040300040FF71C0A90155954795559547955595F0
:104040004795559547954095509540FF64C010920F
:104050009201109293011093960110929701109281
:1040600087019FCEA0938B0160938A0140938D01BD
:1040700030938C0192CE818590E0AC0155954795A7
:10408000559547954095509541704093920195956F
:10409000879595958795959587959595879580951D
:1040A0009095817080939301828590E0AC01559545
:1040B00047955595479555954795559547955595E8
:1040C000479540955095342F3170AC0155954795E3
:1040D0005595479555954795409550954170BC012C
:1040E000062E672F000C661F770B000C661F771FCC
:1040F000609570956170959587959595879595953F
:1041000087959595879580959095817021113CC0F4
:1041100080938A013CCE948590FD47CE35952795B6
:10412000359527952095309520FF3FCE8091000151
:10413000811137CE10929201109293011092960144
:1041400010939701109286012CCE8185282F30E0A4
:10415000A901042E452F000C441F550B000C441FD1
:10416000551F4095509540FF0DC0A90155954795A5
:104170005595479555954795559547954095509533
:1041800040FD65CF9285C8CF80938B016DCF002312
:1041900009F481C0238530E0A901559547955595CF
:1041A000479555954795559547955595479540950C
:1041B000509540FF64C01093900135952795209548
:1041C000309520FF21C0809391018DCD0023E1F136
:1041D000838590E0AC015595479555954795559544
:1041E000479555954795559547954095509540FF6E
:1041F00020C010938E01959587958095909580FFAE
:104200000DC020938F016BCD848590E095958795A7
:1042100095958795809590958170D5CF848590E010
:10422000959587959595879580959095282F2170E0
:10423000E8CF448550E0440F452F441F550B452BD4
:10424000C1F210928E01D7CF818590E0AC015595D7
:104250004795559547955595479555954795559546
:1042600047954095509540FFCAC010938E01959593
:1042700087958095909580FDC4CF8285D0CF448569
:1042800050E0440F452F441F550B452B09F493CFA5
:104290001092900192CF218530E0A9015595479564
:1042A00055954795559547955595479555954795F6
:1042B0004095509540FFAFC01093900135952795DC
:1042C0002095309520FD7FCF82859FCF2A85822F34
:1042D0008095817080938601898590E0AC01042EE1
:1042E000452F000C441F550B000C441F551F4095D3
:1042F000509541704093870130E035952795209582
:104300003095217020938801880F892F881F990B81
:1043100041E08427D9CC0023E9F18C8580FD05C0DC
:10432000809105018F57809305018B8590E0082EC1
:10433000892F000C881F990B000C881F991F8095EE
:10434000909580FF05C080910501815880930501FB
:10435000E091C501F091C601848590E0959587951F
:104360008095909580FF05C0809106018F578093BE
:104370000601838590E0880F892F881F990B31E013
:104380008327817009F4A7CC80910601815880931E
:104390000601A1CC8A8580FD05C0809105018F575B
:1043A00080930501898590E0082E892F000C881FD5
:1043B000990B000C881F991F8095909580FF05C070
:1043C00080910501815880930501E091C501F0912C
:1043D000C601828590E0959587958095909580FFA0
:1043E00005C0809106018F5780930601818590E07A
:1043F000880F892F881F990B21E08227C2CF428521
:1044000050E0440F452F441F550B452B09F42DCF89
:1044100010928E012CCF428550E0440F452F441F4F
:10442000550B452B09F448CF1092900147CF0E94BD
:104430002222A59F900DB49F900DA49F800D911DE9
:1044400011240895A29FB001B39FC001A39F700DD6
:10445000811D1124911DB29F700D811D1124911D8C
:104460000895052E97FB1EF400940E94482257FDE4
:1044700007D00E945E2207FC03D04EF40C94482221
:1044800050954095309521953F4F4F4F5F4F089580
:1044900090958095709561957F4F8F4F9F4F0895B0
:1044A000EE0FFF1F0590F491E02D0994B7FF0C94D7
:1044B00017220E941722821B930B0895A1E21A2E45
:1044C000AA1BBB1BFD010DC0AA1FBB1FEE1FFF1FB8
:1044D000A217B307E407F50720F0A21BB30BE40B08
:1044E000F50B661F771F881F991F1A9469F760954F
:1044F0007095809590959B01AC01BD01CF01089509
:10450000FB01DC0102C001900D9241505040D8F7F0
:104510000895DC0101C06D9341505040E0F70895CB
:04452000F894FFCF3D
:1045240001808080808080000000002C15E5090057
:10453400000000B0097E09E80953097709630954AA
:0245440009006C
:00000001FF
