:100000000C9435010C945D010C945D010C945D0120
:100010000C945D010C945D010C945D010C945D01E8
:100020000C945D010C945D010C94E8090C944D0A4C
:100030000C945D010C945D010C945D010C945D01C8
:100040000C945D010C945D010C945D010C945D01B8
:100050000C945D010C945D010C945D010C94610B9A
:100060000C945D010C945D010C945D010C945D0198
:100070000C945D010C945D010C945D010C945D0188
:100080000C945D010C945D010C945D010C945D0178
:100090000C94AB0B0C945D010C945D010C945D0110
:1000A0000C945D010C945D010C945D010000000056
:1000B0002300260029002C002F00090299000401CA
:1000C00000A0FA0904000002FF5D010011210001F7
:1000D00001258114000000001302080000070581BB
:1000E000032000040705020320000809040100049E
:1000F000FF5D03001B210001010183400104201664
:100100008500000000000016050000000000000748
:10011000058303200002070504032000040705856A
:100120000320004007050503200010090402000118
:10013000FF5D0200092100010122860700070586F4
:10014000032000100904030000FFFD130406410012
:100150000101030403090412010002FFFFFF405ED6
:10016000048E0214010102030158626F7820536566
:10017000637572697479204D6574686F6420332CDF
:100180002056657273696F6E20312E30302C20A995
:100190002032303035204D6963726F736F66742082
:1001A000436F72706F726174696F6E2E20416C6C58
:1001B000207269676874732072657365727665640E
:1001C0002E0041726475696E6F2058496E707574A7
:1001D0002041565200A94D6963726F736F667400B7
:1001E00041726475696E6F204D6963726F00000023
:1001F000000200090F0000030401000C00000000D1
:1002000000000000000000000000000000000000EE
:1002100000250028002B002E0031000000000024E3
:100220000027002A002D0030000404040404030405
:100230000502020202040302020202060606060684
:100240000604040202020404040802011040804073
:1002500010204080408008020401804020100201EC
:100260001080102040402000CA0C11241FBECFEF88
:10027000DAE0DEBFCDBF11E0A0E0B1E0E6E4F4E2F9
:1002800002C005900D92A436B107D9F722E0A4E68A
:10029000B1E001C01D92A939B207E1F711E0C5E351
:1002A000D1E004C02197FE010E941B12C433D10784
:1002B000C9F70E947E0D0C9421120C94000080312D
:1002C00081F028F48F3051F090E080E00895813182
:1002D00059F08231C9F787E692E008958FE492E001
:1002E000089587E592E008958FE592E00895982FAC
:1002F00080912C028111FCCF81E080932C028093AD
:100300002B022FEF20932A0210922902290F20930B
:1003100028028093270280912702846A8093270213
:10032000809126028130F9F41092260280912702F2
:100330008093BB008091BC0083FDF8CF85EC809357
:10034000BC0080912C028130E1F380912902891751
:1003500010F490912902A6E0B2E0E6EEF1E080E030
:10036000891303C0089585EEEACF2D9121938F5F05
:10037000F7CF982F2091E50181E0213208F043C0AA
:1003800080912C028111FCCF8091E40132E0309306
:100390002C0290932B029FEF90932A021092290235
:1003A00020932802A4ECB1E0E6E0F2E090E029130B
:1003B00031C01092270290912702880F892B8093D9
:1003C000270280912602813049F510922602809101
:1003D00027028093BB008091BC0083FDF8CF85ECA1
:1003E0008093BC0080912C028230E1F380912A023C
:1003F0008F3FB1F080912A028032A1F080912A02D1
:10040000803391F084E01092C3011092E5011092C4
:10041000C20108953D9131939F5FC9CF85EEE0CF32
:1004200080E0F1CF82E0EFCF83E0EDCF21E02093B9
:10043000C20122E52093E4011092C3011092E5016C
:10044000DC01ED91FC910190F081E02D099581E0B6
:100450000E94B90191E0811190E0892F08951F93C6
:10046000CF93DF93EC01142F81E08093C20182E5EA
:100470008093E4011092C3011092E501E881F981B3
:100480000190F081E02DCE010995E881F98101907C
:10049000F081E02D612FCE01099581E00E94B90124
:1004A00091E0811190E0892FDF91CF911F91089504
:1004B000E0917D02F0917E028481813889F485810A
:1004C0008138C9F486818138B1F48781813899F403
:1004D0008085811110C081E0918591110CC0089533
:1004E000843849F48581863831F48681863819F458
:1004F0008781863869F380E0F2CFCF93DF9390E075
:10050000FC01E85BFD4F2491875D9D4FFC018491C8
:100510008823C1F090E0880F991FFC01E55EFD4F34
:10052000C591D491FC01E35FFD4FA591B4919FB7B4
:10053000F8943881822F809583238883EC91E22B75
:10054000EC939FBFDF91CF91089592E0423009F480
:1005500096E090628093E90081E08093EB006093E5
:10056000EC009093ED008091EE00881F8827881F93
:1005700008954091BC015091BD012091BA01309184
:10058000BB0142175307B4F49091E8009570E1F372
:100590009091E80092FD19C08093F1008091BC0118
:1005A0009091BD0101968F739927892B19F48EEFD5
:1005B0008093E8008091BC019091BD0101969093D9
:1005C000BD018093BC0181E0089580E00895EF9221
:1005D000FF921F93CF93DF93F82E192FE62E81E021
:1005E000860F880F0E94B90283E00E94B902CF2DC6
:1005F000D12FEC0EFD2EF11CCE15DF0591F0FE0182
:1006000084910E94B902182F80E00E94B9028123D0
:1006100021968111F1CFDF91CF911F91FF90EF9043
:10062000089581E0F8CFEF92FF920F931F93CF933D
:10063000DF938B01EC017C01E60EF71ECE15DF0582
:1006400049F0FE0184910E94B90221968111F6CFF2
:100650000FEF1FEFC801DF91CF911F910F91FF9016
:10066000EF90089581508F3008F047C0E82FF0E0F8
:10067000E45CFC4F0C941B1259035D034B035103C4
:1006800055037D037D037D03600366036A036E03E8
:1006900074037D037803809180008F7780938000BE
:1006A0000895809180008F7DF9CF80918000877FB1
:1006B000F5CF84B58F7784BD089584B58F7DFBCF4A
:1006C000809190008F7780939000089580919000A2
:1006D0008F7DF9CF80919000877FF5CF8091C0000A
:1006E0008F778093C00008958091C0008F7DF9CFEF
:1006F0008091C200877F8093C2000895CF93DF93DB
:10070000282F30E0F901E251FE4F8491F901E85BB6
:10071000FD4FD491F901E75DFD4FC491CC2389F0E1
:1007200081110E943203EC2FF0E0EE0FFF1FE35F18
:10073000FD4FA591B4918FB7F894EC91DE2BDC932B
:100740008FBFDF91CF910895CF93DF93282F30E0B3
:10075000F901E251FE4F8491F901E85BFD4FD4911C
:10076000F901E75DFD4FC491CC23A1F081110E94F6
:100770003203EC2FF0E0EE0FFF1FE455FF4FA59181
:10078000B491EC91ED2381E090E009F480E0DF91F9
:10079000CF91089580E090E0FACF3FB7F894809130
:1007A000B6019091B701A091B801B091B90126B5F9
:1007B000A89B05C02F3F19F00196A11DB11D3FBF99
:1007C000BA2FA92F982F8827BC01CD01620F711D68
:1007D000811D911D42E0660F771F881F991F4A9562
:1007E000D1F708958F929F92AF92BF92CF92DF92EE
:1007F000EF92FF924B015C010E94CD036B017C01E3
:100800000E94CD036C197D098E099F09683E7340D3
:1008100081059105A8F321E0821A9108A108B10889
:1008200088EEC80E83E0D81EE11CF11C81149104EF
:10083000A104B10429F7FF90EF90DF90CF90BF9013
:10084000AF909F908F900895BF92CF92DF92EF92DA
:10085000FF920F931F93CF93DF937C0180912F0220
:1008600081110CC08FEF9FEFDF91CF911F910F91FE
:10087000FF90EF90DF90CF90BF90089580912E026F
:1008800080FF05C08091E00082608093E0000AEF65
:1008900010E0C4E1D0E0DD24D39480E4B82E9AE3E4
:1008A000C92E9FB7F894D092E9008091E80085FDA9
:1008B0001EC09FBF0150B1F261E070E080E090E0A7
:1008C0000E94F203209769F71111EBCF5D9A84E63D
:1008D00080932D0281E08093E9008091F2008823CB
:1008E00019F08AE38093E80084E190E0BDCF809125
:1008F000F2002B2D281B822F9FBF2223D9F22C1709
:100900001D0611F00CF08C2F9FB7F894D092E900DF
:100910002091E80025FD02C09FBFD4CF282F30E0F2
:10092000C21BD30BF701815020F041914093F1009D
:10093000FACFE20EF31E112321F0C092E80010E07E
:10094000EBCF8091E80085FDE7CFC092E80011E091
:10095000209711F3F4CF80914702882351F08091C2
:100960004602882331F01092460282E392E00C9412
:10097000240408954F925F926F927F928F929F927C
:10098000AF92BF92CF92DF92EF92FF920F931F939D
:10099000CF93C82F6A017B018F3009F48EC080315C
:1009A00009F46EC0CF911F910F91FF90EF90DF90EF
:1009B000CF90BF90AF909F908F907F906F905F90FF
:1009C0004F900895C814D904EA04FB040CF078C0D1
:1009D000411451046104710431F48FEF88169104BD
:1009E000A104B104A1F0A701960124193509460913
:1009F0005709AFEFB0E00E94DF11A501940124195F
:100A00003509460957090E94C01169017A01CF30A2
:100A100049F0C03109F462C080E00BC0C12CD12C78
:100A20007601CA94E1E5F1E0E081F0E0EE5CFD4F93
:100A3000808190E0B0E0A0E08C159D05AE05BF057B
:100A400009F4B0CFD801EC91F0E0EE5CFD4FC0822C
:100A500081E080934602CF911F910F91FF90EF901C
:100A6000DF90CF90BF90AF909F908F907F906F90CE
:100A70005F904F900C94AB04C12CD12C7601D2CF57
:100A800000E511E08C2F0E945F01FC014080518045
:100A90006280738084809580A680B7804C145D044A
:100AA0006E047F040CF48ECFCF3031F3C03109F0E7
:100AB00079CFC12CD12C760111C001E511E0E2CF34
:100AC000CF3009F4ABCFC12CD12C7601CA94C03100
:100AD00009F0B8CFC12CD12C7601CA94E0E5F1E041
:100AE000A3CFCF93DF93E82FF0E0EE0FFF1FE65D7B
:100AF000FE4FA081B1811097E1F0EC91F0E0EE5C47
:100B0000FD4F908111968C91392F382321E009F403
:100B100020E0621729F1662349F0892B808381E068
:100B200080934602DF91CF910C94AB04809589238A
:100B3000F5CFD62FC82F0E945F01009789F0FC01E6
:100B4000DD2349F044815581668177818C2FDF91C7
:100B5000CF910C94BA044081518162817381F6CFA8
:100B6000DF91CF9108950F931F93CF93DF93162FAB
:100B7000C42FD22F811110E0CC2319F0C1E0CD2772
:100B8000D0E00091470210924702682F8BE00E944C
:100B90007105612F8CE00E9471056C2F8DE00E9421
:100BA00071056D2F8EE00E94710500934702DF9161
:100BB000CF911F910F910C94AB040895089508955F
:100BC000AF92BF92CF92DF92EF92FF920F931F935B
:100BD000CF93DF93EC016B017B01E40EF51E8B01DB
:100BE0005801AC18BD080E151F05A1F12FB7F894D8
:100BF0008091B2019091B301A091B401B091B5017F
:100C00002FBF88879987AA87BB87E881F9810284EB
:100C1000F385E02DCE01099597FF28C02FB7F894F2
:100C20008091B2019091B301A091B401B091B5014E
:100C30002FBF488559856A857B85841B950BA60B3C
:100C4000B70B4C815D816E817F8184179507A60764
:100C5000B707D8F2C501DF91CF911F910F91FF9097
:100C6000EF90DF90CF90BF90AF900895F8018193FF
:100C70008F01B6CF85ED8093BC008091BC0084FDD0
:100C8000FCCF10922C02089520918401260F332767
:100C9000331F21323105ECF420912C02FC0190E04D
:100CA00080E0243069F082E00895A09184012191D0
:100CB000AC014C595E4FA40FB52FB11D2C9301967A
:100CC000861798F380918401680F6093840180E017
:100CD000089581E00895E091C1018091C001E81775
:100CE00030F4F0E0EA51FE4F808190E008958FEFFC
:100CF0009FEF08959091C1018091C0012FEF3FEFC8
:100D0000981748F4E92FF0E0EA51FE4F208130E0D7
:100D10009F5F9093C101C90108958091C001909196
:100D2000C101891B990B0895CF92DF92EF92FF9238
:100D30000F931F93CF93DF937C01CB018A01209106
:100D4000C201222389F0EB016B01C40ED51ECC1524
:100D5000DD0569F06991D701ED91FC910190F08179
:100D6000E02DC7010995F3CF642F0E944406C80106
:100D7000DF91CF911F910F91FF90EF90DF90CF9077
:100D80000895CF93DF931F92CDB7DEB7698320918B
:100D9000C2012223F9F02091E501203258F021E030
:100DA00030E0FC013383228390E080E00F90DF91FC
:100DB000CF9108958091C301E82FF0E0EC53FE4FEE
:100DC000998190838F5F8093C3018093E50181E0D7
:100DD00090E0ECCF61E0CE0101960E944406F7CF8F
:100DE00090E080E00895CF93DF93CDB7DEB72897EA
:100DF0000FB6F894DEBF0FBECDBF2FB7F89482E0D8
:100E00008093E9009091F2002FBF992309F470C0FC
:100E100090912F02992309F46BC03FB7F894809307
:100E2000E9002091F200822F90E08930910514F0C2
:100E300088E090E0FE01319644E6815038F0289A2F
:100E40004093BF019091F1009193F7CF222339F0A5
:100E50008091F200811103C08BE68093E8003FBFD0
:100E6000233008F445C08981811116C09C8190937C
:100E700049029D8190934A02E0914D02F0914E0209
:100E8000309709F435C028960FB6F894DEBF0FBE30
:100E9000CDBFDF91CF910994813071F72B812E3036
:100EA00058F730E030934C0220934B02E0914B0214
:100EB000F0914C02EA30F105F8F6EF59F84F0C9436
:100EC0001B126B076B076E077207740776076E07B6
:100ED00072077407760710924802CECF91E0909384
:100EE0004802CACF92E0FBCF93E0F9CF94E0F7CF6E
:100EF00028960FB6F894DEBF0FBECDBFDF91CF911D
:100F00000895823119F482E291E0089586E291E039
:100F100008954F925F926F927F928F929F92AF92BD
:100F2000BF92CF92DF92EF92FF920F931F93CF93D6
:100F3000DF9300D000D000D0CDB7DEB7782E4A01C5
:100F40005B01680179010E9481078C01892B09F4FA
:100F5000F8C0872D0E945F01DC014D905D906D907F
:100F60007C90139714962D913D914D915C9117971C
:100F700029833A834B835C83481459046A047B04B5
:100F80000CF0C3C082169306A406B5060CF0C4C0CC
:100F90004114B0E85B06BFEF6B067B0629F42F3FD8
:100FA0003F4741055105D1F0A501940124193509A8
:100FB00046095709AFEFBFEF0E94DF1129813A813F
:100FC0004B815C8124193509460957090E94C011DB
:100FD00049015A01F0E89F1AA108B1084C145D04B8
:100FE0006E047F040CF09FC029813A814B815C81A3
:100FF000C216D306E406F5060CF09CC0411430E896
:1010000053063FEF6306730649F489819A81AB81E9
:10101000BC818F3F9F47A105B105D1F0A701960183
:101020002419350946095709AFEFBFEF0E94DF11B8
:1010300029813A814B815C81241935094609570978
:101040000E94C01169017A01F0E8DF1AE108F10895
:10105000C6019401D801EC91F0E011964C91A42FB7
:10106000B0E0AE5CBD4F4C91EE5CFD4F508145272A
:101070005427452784169506B9F4D80113964C9148
:10108000A42FB0E0AE5CBD4F4C91D80112965C919C
:10109000A52FB0E0AE5CBD4F5C9145275427452796
:1010A000C416D50609F44DC08082D8011196EC9182
:1010B0001197F0E0EE5CFD4F30831296EC911297A1
:1010C000F0E0EE5CFD4FC0821396EC91F0E0EE5C38
:1010D000FD4F908381E08093460226960FB6F894E8
:1010E000DEBF0FBECDBFDF91CF911F910F91FF905B
:1010F000EF90DF90CF90BF90AF909F908F907F90B8
:101100006F905F904F900C94AB04812C30E8932E3D
:10111000AA24AA94BA2C62CF88248A942FE7922E0C
:10112000A12CB12C5BCFC12C90E8D92EEE24EA94EF
:10113000FE2C8ECFCC24CA948FE7D82EE12CF12C34
:1011400087CF26960FB6F894DEBF0FBECDBFDF91D6
:10115000CF911F910F91FF90EF90DF90CF90BF90B4
:10116000AF909F908F907F906F905F904F90089579
:101170008DE00E94A40321E0892B09F020E0209358
:10118000B00185E00E94A40321E0892B09F020E052
:101190002093AF018AE00E94A40321E0892B09F08B
:1011A00020E02093AE0189E00E94A40321E0892B76
:1011B00009F020E02093AD0188E00E94A40321E023
:1011C000892B09F020E02093AC0186E00E94A40363
:1011D00021E0892B09F020E02093AB010895EF92E4
:1011E000FF921F93CF93DF93C0917D02D0917E0237
:1011F0008A819B8120917B0230917C028217930728
:1012000039F02130310511F080E03FC0892BE1F346
:1012100010917F02E880F98060E0C7010E94160209
:10122000882391F387EB92E00197F1F7812F113238
:1012300008F080E20E9477011092C1018093C00102
:10124000482F50E0BE016C5F7F4FC7010E94E00550
:101250001813DACF40917F0280917D0290917E0237
:101260000496FC012FEF30E050E0BF01681B790BC2
:101270006417750724F46191362B2623F6CF3323A8
:1012800019F281E02F3F09F4BFCFDF91CF911F9179
:10129000FF90EF900895EF92FF920F931F93CF93DB
:1012A000DF9300D000D000D0CDB7DEB7E0917D0253
:1012B000F0917E020081118145E560EFC8010E9436
:1012C0002F02882309F47CC06AE070E080E090E09F
:1012D0000E94F20340E06BEFC8010E942F028823B6
:1012E00009F46EC064E170E080E090E00E94F203D7
:1012F00000917D0210917E02F801E080F1806AEF9A
:10130000C7010E941602811114C090E080E0F8012C
:10131000938382830E94EF0826960FB6F894DEBF6F
:101320000FBECDBFDF91CF911F910F91FF90EF9036
:10133000089587EB92E00197F1F786E00E9477012C
:101340001092C1018093C001482F50E0BE016F5F31
:101350007F4FC7010E94E0058630B9F68B81843A41
:1013600061F58C81803249F58D81811106C09E81A5
:10137000911108C083E090E0CACF813019F49E81BA
:10138000913091F09A81911118C08130B1F48E8121
:10139000833099F48981882351F0813059F083306A
:1013A00061F487E090E0B3CF84E090E0B0CF85E0D7
:1013B00090E0ADCF86E090E0AACF82E090E0A7CFAA
:1013C000E0917D02F0917E021382128280E0A4CF30
:1013D0001F920F920FB60F9211248F939F938091BB
:1013E000E1009091E100937F9093E10083FF0FC0B3
:1013F0001092E90091E09093EB001092EC0092E3E0
:101400009093ED0010922F0298E09093F00082FFED
:1014100018C090912D02992341F090912D02915086
:1014200090932D02911101C05D989091BF01992375
:1014300041F09091BF0191509093BF01911101C073
:10144000289884FF18C08091E2008E7E816080938E
:10145000E2008091E1008F7E8093E10080912E0276
:101460008E7E806180932E029F918F910F900FBE90
:101470000F901F90189580FFF7CF8091E2008E7E2D
:1014800080618093E2008091E1008E7E8093E10094
:1014900080912E028E7E8160E5CF1F920F920FB653
:1014A0000F9211242F933F934F935F936F937F93EA
:1014B0008F939F93AF93BF93EF93FF93CF93DF935C
:1014C000CDB7DEB72897DEBFCDBF82E08093E900BD
:1014D0008091E80082FF0CC08091E8008B7F8093B0
:1014E000E800E0913002F0913102309709F009955F
:1014F0001092E9008091E80083FF2CC089E0FE0192
:101500003196815021F09091F1009083F9CF289A83
:1015100084E68093BF0182EF8093E800898187FF92
:1015200032C09091E80090FFFCCF982F907679F42C
:101530009A814B815C813B812C8191112BC0803839
:1015400031F58091BE018093F1001092F1008EEF91
:101550008093E80028960FB6F894DEBF0FBECDBF8B
:10156000DF91CF91FF91EF91BF91AF919F918F91BB
:101570007F916F915F914F913F912F910F900FBE8F
:101580000F901F9018959EEF9093E800CECF109289
:10159000F100DBCF913059F48111D9CF41305105A1
:1015A000B1F68091BE018D7F8093BE01D0CF933084
:1015B00049F48111CCCF4130510549F68091BE01EB
:1015C0008260F2CF953041F48091E80080FFFCCF3B
:1015D00030683093E300BBCF9630D9F58F81988582
:1015E0001092E9001092BD011092BC019093BB01D2
:1015F0008093BA0169E970E08AEB90E0223009F447
:101600005AC0213009F452C0233069F48B818823F9
:1016100009F454C0823059F46DE080EE91E00E94EC
:10162000E702811194CF81E28093EB0093CF813068
:1016300021F46AE085ED91E0F2CF833021F462E19C
:1016400082EC91E0ECCF843071F768E589E691E0B7
:10165000E6CF973041F3983021F481E08093F10098
:1016600076CF993009F073CF8370E9F641E061ECF1
:1016700081E00E94A50242E060EC82E00E94A502A7
:1016800041E061EC85E00E94A5028EE78093EA00CC
:101690001092EA0082E08093E9008091F00084607B
:1016A0008093F0008B8180932F0251CF87E591E0EA
:1016B000FC01649170E00E94130349CF83E591E03F
:1016C000F7CF1F920F920FB60F9211242F933F93D3
:1016D0008F939F93AF93BF938091B2019091B30189
:1016E000A091B401B091B5013091B10123E0230F75
:1016F0002D3758F50196A11DB11D2093B10180939E
:10170000B2019093B301A093B401B093B50180915D
:10171000B6019091B701A091B801B091B9010196BD
:10172000A11DB11D8093B6019093B701A093B8019C
:10173000B093B901BF91AF919F918F913F912F913C
:101740000F900FBE0F901F90189526E8230F02965A
:10175000A11DB11DD2CF1F920F920FB60F9211246F
:101760002F933F934F935F936F937F938F939F93A9
:10177000AF93BF93EF93FF938091B900887F80363A
:1017800009F44AC0F0F5883209F4A7C018F5803191
:1017900009F49BC0B8F4882309F4F9C0883009F42F
:1017A00094C0FF91EF91BF91AF919F918F917F91E5
:1017B0006F915F914F913F912F910F900FBE0F90BE
:1017C0001F901895883109F488C0803251F78093B2
:1017D0002A0214C0803409F49DC040F48033B9F368
:1017E0008833F9F680932A0285ECB0C0803509F47D
:1017F00085C0883509F496C0883499F60E943A0667
:10180000D0CF883909F48CC038F5883729F050F4E6
:10181000883611F0803729F683E080932C021092ED
:10182000A60157C0883809F47BC0803919F0803888
:1018300009F0B7CF8091A601803208F071C0E09125
:10184000A60181E08E0F8093A6018091BB00F0E09D
:10185000EA57FE4F80833DC0803B39F0E0F4803A88
:1018600009F479C0883A09F09CCF84E080932C0277
:101870001092850110928401E091A901F091AA01D2
:1018800009958091840181110FC081E080938401CA
:101890001092640109C0803C09F4A6CF883C09F489
:1018A000A3CF883B09F07DCFE091850181E08E0FC9
:1018B00080938501F0E0EC59FE4F80818093BB005E
:1018C000909185018091840129C0809127028093A5
:1018D000BB0085EC8093BC0064CF9091290280917D
:1018E0002802981758F5E091290281E08E0F809325
:1018F0002902F0E0EA5FFD4F8081E9CFE091290203
:1019000081E08E0F809329028091BB00F0E0EA5FB6
:10191000FD4F808390912902809128029817C8F288
:1019200085E8D8CFE091290281E08E0F80932902CB
:101930008091BB00F0E0EA5FFD4F808380912B0235
:1019400081115CCF81E08093260284EA8093BC0001
:1019500010922C0226CF85EC8093BC0010922C02B2
:101960008091A601803230F4E091A601F0E0EA57C0
:10197000FE4F10826091A60170E0E091A701F09106
:10198000A80186E891E009951092A6010ACF10926D
:101990002A0234CFCF93109272021092710288EE15
:1019A00093E0A0E0B0E08093730290937402A09360
:1019B0007502B093760286E591E090937002809371
:1019C0006F02E2E3F2E01192B2E0E634FB07D9F7EE
:1019D0001092490210924A028091490290914A0263
:1019E000E4E3F2E082E1DF011D928A95E9F7C1E0CC
:1019F000C09346020E94AB041092320284E18093AD
:101A000033021092480210924A0210924902109238
:101A10004C0210924B0210924F0210925002109200
:101A20005102109252028FEF90E0A0E0B0E080935C
:101A3000530290935402A0935502B0935602109211
:101A40005702109258021092590210925A02809333
:101A50005B0290935C02A0935D02B0935E0240E053
:101A600050E86FEF7FEF40935F0250936002609306
:101A70006102709362028FEF9FE7A0E0B0E0809375
:101A8000630290936402A0936502B0936602409350
:101A90006702509368026093690270936A028093B0
:101AA0006B0290936C02A0936D02B0936E02109241
:101AB0004E0210924D02C093470283EF96E090933E
:101AC00031028093300284E090E090937C02809316
:101AD0007B0280E892E090937E0280937D0286E014
:101AE00080937F028FE692E0909381028093800240
:101AF0001092830210928202CF910895789484B557
:101B0000826084BD84B5816084BD85B5826085BDF9
:101B100085B5816085BD80916E00816080936E0087
:101B20001092810080918100826080938100809179
:101B3000810081608093810080918000816080932A
:101B4000800080919100826080939100809191004B
:101B500081608093910080919000816080939000DB
:101B60008091C10084608093C1008091C100826037
:101B70008093C1008091C10081608093C1008091F9
:101B8000C30081608093C3008091C0008260809315
:101B9000C0008091C20081608093C20080917A0071
:101BA000846080937A0080917A00826080937A00CA
:101BB00080917A00816080937A0080917A008068B9
:101BC00080937A0010922F021092BE0110922E0282
:101BD0008091D70081608093D70080EA8093D800FD
:101BE00089B5806189BD89B5826089BD09B400FE6F
:101BF000FDCF61E070E080E090E00E94F203809110
:101C0000D8008F7C80618093D8008091E000807F35
:101C10008093E0008091E1008E7E8093E1008DE072
:101C20008093E200559A209A5D9828981092C101FD
:101C30001092C0011092C3011092E50110922C0283
:101C400081E080932B021092260282E00E947E03A4
:101C500083E00E947E038091B9008E7F8093B9005B
:101C60008091B9008D7F8093B90088E48093B8009B
:101C700085E48093BC008EED95E09093AA0180935B
:101C8000A9018FED95E09093A8018093A7018DE0C5
:101C90000E947D0285E00E947D028AE00E947D0212
:101CA00089E00E947D0288E00E947D0286E00E9419
:101CB0007D0214E0C12ED12CE12CF12CC0924F02F8
:101CC000D0925002E0925102F09252028AE190E0EA
:101CD000A0E0B0E08093530290935402A093550289
:101CE000B0935602C0925702D0925802E092590225
:101CF000F0925A0280935B0290935C02A0935D0283
:101D0000B0935E020E94B8088091B001882309F464
:101D100042C010925F021092600210926102109213
:101D2000620282E090E0A0E0B0E0809363029093D2
:101D30006402A0936502B09366021092670210924B
:101D400068021092690210926A0280936B0290936B
:101D50006C02A0936D02B0936E0210924702C5E12F
:101D6000E0917D02F0917E0213821282E0917D0269
:101D7000F0917E023496DF018C2F1D928A95E9F74F
:101D80000E944B0981112CC068EE73E080E090E066
:101D90000E94F203E5CF88E090E0A0E0B0E08093FD
:101DA0005F0290936002A0936102B093620288E3A5
:101DB00090E0A0E0B0E08093630290936402A0936F
:101DC0006502B0936602C0926702D0926802E09208
:101DD0006902F0926A028CE190E0A0E0B0E0B5CF39
:101DE0000E945802882319F088E080937F02B4E0B3
:101DF0008B2E912CA12CB12CCCE14C2E512C612C92
:101E0000712CD2E0CD2ED12CE12CF12CC1E0D0E010
:101E1000A0E02A2EA0E03A2E0E94B8080E94EF0807
:101E2000882309F49FC20E945802882399F0809168
:101E30007F02883078F0E0917D02F0917E029FE58C
:101E400094838FED85838FE88683178282858087D0
:101E5000838581878091B001882309F496C110920F
:101E60005F02109260021092610210926202C092B0
:101E70006302D0926402E0926502F09266021092D0
:101E80006702109268021092690210926A02C09270
:101E90006B02D0926C02E0926D02F0926E02809121
:101EA000AF01882309F45CC1E0917D02F0917E02CC
:101EB000608570E081859B01220F232F221F330B49
:101EC000A1E02A272170482F50E05595479540956D
:101ED00050954170F6E075956795FA95E1F7609534
:101EE00070956170809581700E94B3058091AE01FC
:101EF00001E010E020E030E041E050E060E070E020
:101F0000882309F449C0D0930301C0930201D09300
:101F10000101C0930001E0917D02F0917E024185B4
:101F200040FD06C082E090E09093010180930001A3
:101F30002085822F90E026FD0AC02091000130917B
:101F4000010121503109309301012093000141FD2D
:101F500004C01092030110920201880F892F881F7C
:101F6000990B892B49F4809102019091030101960C
:101F700090930301809302010091000110910101EF
:101F8000012E000C220B330B4091020150910301F2
:101F9000052E000C660B770B81E10E94890701E09A
:101FA00010E020E030E041E050E060E070E082E1ED
:101FB0000E9489078091AD01882309F4D6C0E09181
:101FC0007D02F0917E02608570E005E07595679571
:101FD0000A95E1F760957095617085E00E94710542
:101FE000E0917D02F0917E02608570E075956795C5
:101FF00060957095617086E00E9471058091AC01DA
:10200000882309F4B8C0E0917D02F0917E028185B9
:1020100090E0880F892F881F990B4AE150E060E01B
:1020200070E0892B21F044E050E060E070E08FE048
:102030000E94BA04E0917D02F0917E0281854AE11E
:1020400050E060E070E082FF04C044E050E060E0F7
:1020500070E080E10E94BA04E0917D02F0917E027E
:10206000618570E0E6E075956795EA95E1F7609522
:102070007095617081E00E947105E0917D02F091A0
:102080007E02618570E0F4E075956795FA95E1F759
:1020900060957095617082E00E947105E0917D020B
:1020A000F0917E02618570E0A5E075956795AA952F
:1020B000E1F760957095617083E00E947105E09191
:1020C0007D02F0917E02618570E0B3E075956795C1
:1020D000BA95E1F760957095617084E00E94710592
:1020E0008091AB01882301F1E0917D02F0917E02A5
:1020F000808590E09C0144E0359527954A95E1F76D
:1021000056E0959587955A95E1F7822B80FD07C19A
:1021100061E080E00E94710560E088E00E94710546
:1021200060E087E00E947105E0917D02F0917E02FF
:10213000808583FD04C061E080E00E94710580918C
:102140004602882331F01092460282E392E00E9418
:1021500024042114310409F45FCE0E94000056CEFD
:1021600020E040E060E080E0BFCE60E085E00E94DB
:10217000710560E040CF40E050E0BA018FE00E947E
:10218000BA0440E050E0BA0164CF88E090E0A0E0FB
:10219000B0E080935F0290936002A0936102B093DD
:1021A000620288E390E0A0E0B0E080936302909345
:1021B0006402A0936502B0936602809267029092D7
:1021C0006802A0926902B0926A0240926B02509239
:1021D0006C0260926D0270926E02E0917D02F0914D
:1021E0007E0205810F7310E030E020E044814F73E0
:1021F00050E070E060E081E10E948907E0917D029B
:10220000F0917E025681052F0F7110E030E020E042
:102210008581807C982F9295969597708481807C9B
:10222000869586958695892B5078452F50E0440FEA
:10223000452F441F550B482B042E000C550B660BE5
:10224000770B82E10E948907E0917D02F0917E0286
:10225000608570E081859B01220F232F221F330BA5
:1022600091E029272170482F50E0559547954095DA
:1022700050954170F6E075956795FA95E1F7609590
:1022800070956170809581700E94B305E0917D0228
:10229000F0917E02418550E0440F452F441F550BBD
:1022A000A1E04A27052E000C660B770B8FE00E94F9
:1022B000BA04E0917D02F0917E02418550E055958F
:1022C0004795559547954095509541705527052E52
:1022D000000C660B770B80E10E94BA04E0917D024E
:1022E000F0917E028781982F9295969597708681BE
:1022F000807686958695892B61E009F460E085E01B
:102300000E947105E0917D02F0917E0287818F71BC
:1023100061E009F460E086E00E9471059DCE60E016
:1023200080E00E947105E0917D02F0917E0260855F
:1023300070E0759567957595679560957095617076
:1023400088E00E947105E0917D02F0917E02608537
:1023500070E094E0759567959A95E1F760957095B2
:102360006170DFCEE4E3F2E082E111928A95E9F751
:1023700091E0909346020E94AB040E944B09DFCE8D
:10238000052E97FB1EF400940E94D71157FD07D02D
:102390000E94EA1107FC03D04EF40C94D71150951B
:1023A0004095309521953F4F4F4F5F4F0895909541
:1023B0008095709561957F4F8F4F9F4F08950E9434
:1023C0000C12A59F900DB49F900DA49F800D911DA0
:1023D00011240895A1E21A2EAA1BBB1BFD010DC0FA
:1023E000AA1FBB1FEE1FFF1FA217B307E407F507C5
:1023F00020F0A21BB30BE40BF50B661F771F881FA1
:10240000991F1A9469F760957095809590959B0136
:10241000AC01BD01CF010895A29FB001B39FC001DF
:10242000A39F700D811D1124911DB29F700D811D00
:102430001124911D0895EE0FFF1F0590F491E02DDA
:062440000994F894FFCF9F
:1024460001000100020802040202020102800240A9
:10245600021002200302030103800340032003103D
:1024660003040A0B0C0D0607080920011E011C01B6
:102476001A01180116011401120110010E010C01B6
:102486000A01080106010401000000000E010C010A
:10249600050400000000C1069406F006DD058D0661
:0424A6007A066B0641
:00000001FF
